:020000040000FA
:1000000000100020D5000000B90B0000AD0B00006F
:1000100000000000000000000000000000000000E0
:10002000000000000000000000000000490C00007B
:100030000000000000000000010C00004B0C00005C
:10004000CF0B0000B10C00001501000039010000C9
:100050005F01000085010000AB010000D10100003C
:10006000F7010000C50D0000F50D0000250E000091
:10007000550E0000C10E00002D0F0000B50C000051
:10008000F90C00003D0D0000810D00004F0C000038
:10009000050C0000B10B0000190C0000590F000006
:1000A000E7000000E7000000E7000000E7000000B4
:1000B000E7000000E7000000E7000000E7000000A4
:1000C0000348854600F014F8004800477D0F000003
:1000D000001000200448804704480047FEE7FEE780
:1000E000FEE7FEE7FEE7FEE74D0C0000C100000062
:1000F000064C0125064E05E0E36807CC2B430C3C7B
:1001000098471034B442F7D3FFF7DEFF840F0000A6
:10011000940F000010B5FF20013000F08FF9012886
:1001200002D1000200F03CF9012000F0F3F80128B0
:1001300001D100F0ADF810BD10B50120400200F073
:100140007DF9012802D1400200F02AF9022000F0D6
:10015000E1F8012802D1022000F09AF810BD10B594
:100160000120800200F06AF9012802D1800200F02B
:1001700017F9042000F0CEF8012802D1042000F085
:1001800087F810BD10B50120C00200F057F9012812
:1001900002D1C00200F004F9082000F0BBF80128E9
:1001A00002D1082000F074F810BD10B50120000342
:1001B00000F044F9012802D1000300F0F1F810200A
:1001C00000F0A8F8012802D1102000F061F810BD5D
:1001D00010B50120400300F031F9012802D140039D
:1001E00000F0DEF8202000F095F8012802D1202050
:1001F00000F04EF810BD10B50120800300F01EF98C
:10020000012802D1800300F0CBF8402000F082F8F2
:10021000012802D1402000F03BF810BD70B5044623
:10022000012C03D0082C01D0102C00D103E0074989
:1002300007A000F0A1FE154880692040002801D0E9
:10024000012500E00025284670BD0000790300006C
:100250002E2E5C2E2E5C4C69627261726965735C35
:100260004854363078785F537464506572697068AA
:100270005F4472697665725C7372635C6874367829
:1002800078785F636D752E630000000000F0004019
:1002900010B50446012C11D0022C0FD0042C0DD027
:1002A000082C0BD0102C09D0202C07D0402C05D0C6
:1002B000E009C001002802D1002C00D004E0FF2199
:1002C0009C3104A000F058FE6406640EE04310491F
:1002D000486010BD2E2E5C2E2E5C4C6962726172DD
:1002E0006965735C4854363078785F537464506540
:1002F000726970685F4472697665725C7372635C80
:100300006874367878785F657874692E63000000C9
:100310000018014070B504460025012C11D0022CB4
:100320000FD0042C0DD0082C0BD0102C09D0202C71
:1003300007D0402C05D0E009C001002802D1002CD4
:1003400000D004E0FF212A3105A000F015FE13487B
:1003500040682040002800D00125284670BD0000DC
:100360002E2E5C2E2E5C4C69627261726965735C24
:100370004854363078785F53746450657269706899
:100380005F4472697665725C7372635C6874367818
:1003900078785F657874692E63000000001801406A
:1003A00010B50446FF200130844219D04000844239
:1003B00016D04000844213D04000844210D0400048
:1003C00084420DD0400084420AD04000844207D0CD
:1003D0007F21090220468843002802D1002C00D04A
:1003E00004E0FF21683105A000F0C6FD7F20000277
:1003F0000440E0431049486010BD00002E2E5C2EE2
:100400002E5C4C69627261726965735C4854363067
:1004100078785F5374645065726970685F4472697C
:100420007665725C7372635C6874367878785F6541
:100430007874692E630000000018014070B504460E
:100440000025FF200130844219D04000844216D09C
:100450004000844213D04000844210D040008442C7
:100460000DD0400084420AD04000844207D07F2152
:10047000090220468843002802D1002C00D003E066
:10048000EA2105A000F078FD1248406820400028CD
:1004900000D00125284670BD2E2E5C2E2E5C4C69A6
:1004A000627261726965735C4854363078785F5364
:1004B00074645065726970685F4472697665725CD5
:1004C0007372635C6874367878785F657874692EC7
:1004D0006300000000180140002002490860024843
:1004E000486070470000014040AA000070470000CB
:1004F00070B505460C460C48854202D00B48854233
:1005000000D104E0FF21FC3109A000F035FD002CF2
:1005100002D01F2C00D804E0FF21FD3104A000F020
:100520002BFDE043A86170BD0090004000800040BA
:100530002E2E5C2E2E5C4C69627261726965735C52
:100540004854363078785F537464506572697068C7
:100550005F4472697665725C7372635C6874367846
:1005600078785F7561727426373831362E630000F3
:1005700070B504460D4600260F48844202D00F484D
:10058000844200D104E0FF21D6310DA000F0F4FC3C
:10059000002D02D01F2D00D804E0FF21D73108A084
:1005A00000F0EAFCA0692840002801D0012600E004
:1005B0000026304670BD00000090004000800040E2
:1005C0002E2E5C2E2E5C4C69627261726965735CC2
:1005D0004854363078785F53746450657269706837
:1005E0005F4472697665725C7372635C68743678B6
:1005F00078785F7561727426373831362E63000063
:1006000010B50446E008C000002802D1002C00D03C
:1006100004E00921890103A000F0AEFCE043104989
:10062000086110BD2E2E5C2E2E5C4C6962726172C8
:100630006965735C4854363078785F5374645065EC
:10064000726970685F4472697665725C7372635C2C
:100650006874367878785F706D752E6300000000DE
:1006600000F4004070B504460025E008C0000028F2
:1006700002D1002C00D003E0064907A000F07CFC6A
:10068000144800692040002801D0012500E0002521
:10069000284670BD1F0200002E2E5C2E2E5C4C6979
:1006A000627261726965735C4854363078785F5362
:1006B00074645065726970685F4472697665725CD3
:1006C0007372635C6874367878785F706D752E63CA
:1006D0000000000000F4004070B505460C461048CC
:1006E000854200D103E0EE210EA000F045FC012C74
:1006F0000BD0022C09D0042C07D0082C05D02009DF
:100700000001002802D1002C00D003E0EF2105A059
:1007100000F032FC6868C4B2A868C4B270BD0000C2
:1007200000B000402E2E5C2E2E5C4C69627261720D
:100730006965735C4854363078785F5374645065EB
:10074000726970685F4472697665725C7372635C2B
:100750006874367878785F7370692E6300000000E3
:1007600070B505460C461248854200D103E0CB2106
:1007700010A000F001FC012C0BD0022C09D0042C9D
:1007800007D0082C05D020090001002802D1002C38
:1007900000D003E0CC2107A000F0EEFB6868204009
:1007A000002801D0012600E00026304670BD000080
:1007B00000B000402E2E5C2E2E5C4C69627261727D
:1007C0006965735C4854363078785F53746450655B
:1007D000726970685F4472697665725C7372635C9B
:1007E0006874367878785F7370692E630000000053
:1007F00010B50446012C0FD0022C0DD0042C0BD0C8
:10080000082C09D0102C07D0202C05D0A00980017D
:10081000002802D1002C00D003E0044904A000F01D
:10082000ABFBE0431149886010BD00008307000066
:100830002E2E5C2E2E5C4C69627261726965735C4F
:100840004854363078785F537464506572697068C4
:100850005F4472697665725C7372635C6874367843
:1008600078785F7462732E630000000000E000403F
:1008700070B50446012C0FD0022C0DD0042C0BD0E7
:10088000082C09D0102C07D0202C05D0A0098001FD
:10089000002802D1002C00D003E0074907A000F097
:1008A0006BFB154880682040002801D0012500E03E
:1008B0000025284670BD00004B0700002E2E5C2E40
:1008C0002E5C4C69627261726965735C48543630A3
:1008D00078785F5374645065726970685F447269B8
:1008E0007665725C7372635C6874367878785F746E
:1008F00062732E630000000000E0004070B5054602
:100900000C461448854208D01348854205D0134848
:10091000854202D01248854200D103E0114912A05D
:1009200000F02AFB012C09D0022C07D0042C05D0A2
:10093000E008C000002802D1002C00D004E00949E2
:10094000083109A000F018FB08200443E043E861E7
:1009500070BD00000010004000200040003000404A
:10096000004000405A0300002E2E5C2E2E5C4C6985
:10097000627261726965735C4854363078785F538F
:1009800074645065726970685F4472697665725C00
:100990007372635C6874367878785F74696D6572B9
:1009A0002E63000070B505460C46002615488542AA
:1009B00008D01548854205D01448854202D0144815
:1009C000854200D103E0134913A000F0D5FA012CB1
:1009D00009D0022C07D0042C05D0E008C000002864
:1009E00002D1002C00D004E00A4908310AA000F02E
:1009F000C3FAE8692040002801D0012600E0002663
:100A0000304670BD00100040002000400030004023
:100A1000004000401F0300002E2E5C2E2E5C4C690F
:100A2000627261726965735C4854363078785F53DE
:100A300074645065726970685F4472697665725C4F
:100A40007372635C6874367878785F74696D657208
:100A50002E63000070B504460D46124884420ED045
:100A6000114884420BD01148844208D01048844277
:100A700005D01048844202D08004844200D104E0B2
:100A8000FF2190310CA000F077FA002D02D0072D45
:100A900000D804E0FF21913107A000F06DFAE8438F
:100AA000606170BD00500040006000400070004078
:100AB00000800040009000402E2E5C2E2E5C4C6981
:100AC000627261726965735C4854363078785F533E
:100AD00074645065726970685F4472697665725CAF
:100AE0007372635C6874367878785F7561727426A7
:100AF000373831362E63000070B504460D460026A7
:100B0000154884420ED0154884420BD014488442C4
:100B100008D01448844205D01348844202D080048F
:100B2000844200D104E0FF21653110A000F024FAD6
:100B3000002D02D0072D00D804E0FF2166310BA064
:100B400000F01AFA60692840002801D0012600E070
:100B50000026304670BD000000500040006000409C
:100B60000070004000800040009000402E2E5C2E5F
:100B70002E5C4C69627261726965735C48543630F0
:100B800078785F5374645065726970685F44726905
:100B90007665725C7372635C6874367878785F75BA
:100BA00061727426373831362E63000000BFFEE7CD
:100BB00010B5FFF79BFC10BD10B50120FFF72EFB11
:100BC0000820FFF72BFB1020FFF728FB10BD10B506
:100BD0000120FFF747FD012801D1FFF711FD022099
:100BE000FFF740FD012802D10220FFF709FD042094
:100BF000FFF738FD012802D10420FFF701FD10BDE9
:100C00007047000003498968C8B20021014A916019
:100C10007047000000C0004010B501210948FFF7EF
:100C20009FFD012803D101210648FFF755FD08214A
:100C30000448FFF795FD012803D108210148FFF77B
:100C40004BFD10BD00B0004070477047704710B5B5
:100C50000120FFF70DFE012801D1FFF7C9FD022099
:100C6000FFF706FE012802D10220FFF7C1FD042094
:100C7000FFF7FEFD012802D10420FFF7B9FD08208F
:100C8000FFF7F6FD012802D10820FFF7B1FD102083
:100C9000FFF7EEFD012802D11020FFF7A9FD20206B
:100CA000FFF7E6FD012802D12020FFF7A1FD10BDCE
:100CB0007047000010B501210E48FFF773FE0128B0
:100CC00003D101210B48FFF719FE02210948FFF764
:100CD00069FE012803D102210648FFF70FFE042117
:100CE0000448FFF75FFE012803D104210148FFF704
:100CF00005FE10BD0010004010B501210E48FFF7A1
:100D000051FE012803D101210B48FFF7F7FD022115
:100D10000948FFF747FE012803D102210648FFF7E3
:100D2000EDFD04210448FFF73DFE012803D1042115
:100D30000148FFF7E3FD10BD0020004010B5012180
:100D40000E48FFF72FFE012803D101210B48FFF7C2
:100D5000D5FD02210948FFF725FE012803D1022114
:100D60000648FFF7CBFD04210448FFF71BFE0128CE
:100D700003D104210148FFF7C1FD10BD0030004040
:100D800010B501210E48FFF70DFE012803D1012106
:100D90000B48FFF7B3FD02210948FFF703FE0128C6
:100DA00003D102210648FFF7A9FD04210448FFF7FB
:100DB000F9FD012803D104210148FFF79FFD10BD73
:100DC0000040004010B501210948FFF795FE0128B9
:100DD00003D101210648FFF73DFE02210448FFF739
:100DE0008BFE012803D102210148FFF733FE10BD1D
:100DF0000050004010B501210948FFF77DFE012891
:100E000003D101210648FFF725FE02210448FFF720
:100E100073FE012803D102210148FFF71BFE10BD1C
:100E20000060004010B501210948FFF765FE012868
:100E300003D101210648FFF70DFE02210448FFF708
:100E40005BFE012803D102210148FFF703FE10BD1C
:100E50000070004010B501211848FFF74DFE012831
:100E600003D101211548FFF7F5FD02211348FFF7D3
:100E700043FE012803D102211048FFF7EBFD0121B9
:100E80000E48FFF775FB012803D101210B48FFF73E
:100E90002FFB02210948FFF76BFB012803D1022138
:100EA0000648FFF725FB04210448FFF761FB0128F2
:100EB00003D104210148FFF71BFB10BD0080004057
:100EC00010B501211848FFF717FE012803D10121B1
:100ED0001548FFF7BFFD02211348FFF70DFE01285B
:100EE00003D102211048FFF7B5FD01210E48FFF79D
:100EF0003FFB012803D101210B48FFF7F9FA02213A
:100F00000948FFF735FB012803D102210648FFF706
:100F1000EFFA04210448FFF72BFB012803D1042139
:100F20000148FFF7E5FA10BD0090004010B501211F
:100F30008807FFF7E1FD012803D101218007FFF7B2
:100F400089FD02214807FFF7D7FD012803D10221BF
:100F50008007FFF77FFD10BD704702E008C8121F31
:100F600008C1002AFAD170477047002001E001C192
:100F7000121F002AFBD1704700BFFEE701E0FFF718
:100F8000ABFAFCE7C40F00000000002000100000D6
:100F90006A0F0000000000000000000000000000D8
:100FA0000000000000000000000000000000000041
:100FB0000000000000000000000000000000000031
:040FC00009FFFFFF27
:04000005000000C136
:00000001FF
