:020000040000FA
:1000000000200020D500000081100000A90F000092
:1000100000000000000000000000000000000000E0
:10002000000000000000000000000000B70F00000A
:100030000000000000000000B50F0000BB0F000032
:100040009710000015010000E70100000B020000FE
:1000500031020000570200007D020000A3020000F0
:10006000C9020000151400004514000075140000BA
:10007000A5140000111500007D15000005120000F8
:100080005D120000B51200000D1300005D110000AC
:10009000E9100000AD0F0000FD1000002D11000060
:1000A000B90F000065130000BD130000A915000082
:1000B000EF020000170300003F03000047010000AB
:1000C0000348854600F014F800480047F915000081
:1000D000002000200448804704480047FEE7FEE770
:1000E000FEE7FEE7FEE7FEE7BD0F0000C1000000EF
:1000F000064C0125064E05E0E36807CC2B430C3C7B
:1001000098471034B442F7D3FFF7DEFF0016000023
:100110001016000010B5012000F060F9012801D18F
:1001200000F022F9022000F059F9012802D1022042
:1001300000F01AF9042000F051F9012802D104203E
:1001400000F012F910BD10B500F001F810BD10B5A7
:10015000012000F009FA012801D100F0BBF91020BC
:1001600000F002FA012802D1102000F0B3F9FF20BC
:10017000013000F0F9F9012802D1000200F0AAF9DB
:10018000022000F0F1F9012802D1022000F0A2F9CA
:10019000202000F0E9F9012802D1202000F09AF98E
:1001A0000120400200F0E0F9012802D1400200F0F5
:1001B00091F9042000F0D8F9012802D1042000F0C0
:1001C00089F9402000F0D0F9012802D1402000F048
:1001D00081F90120800200F0C7F9012802D18002D4
:1001E00000F078F910BD10B5FF20013000F02EFBB3
:1001F000012802D1000200F0C3FA012000F05EFAEB
:10020000012801D100F000FA10BD10B50120400214
:1002100000F01CFB012802D1400200F0B1FA0220DC
:1002200000F04CFA012802D1022000F0EDF910BDD7
:1002300010B50120800200F009FB012802D18002E4
:1002400000F09EFA042000F039FA012802D10420BF
:1002500000F0DAF910BD10B50120C00200F0F6FA86
:10026000012802D1C00200F08BFA082000F026FA23
:10027000012802D1082000F0C7F910BD10B50120F7
:10028000000300F0E3FA012802D1000300F078FA3D
:10029000102000F013FA012802D1102000F0B4F968
:1002A00010BD10B50120400300F0D0FA012802D1A2
:1002B000400300F065FA202000F000FA012802D186
:1002C000202000F0A1F910BD10B50120800300F03E
:1002D000BDFA012802D1800300F052FA402000F05C
:1002E000EDF9012802D1402000F08EF910BD10B5C3
:1002F0000120000600F0AAFA012802D1000600F051
:100300003FFA0120000400F0D9F9012802D10004CD
:1003100000F07AF910BD10B50120400600F096FA01
:10032000012802D1400600F02BFA0120400400F021
:10033000C5F9012802D1400400F066F910BD10B5DE
:100340000120800600F082FA012802D1800600F028
:1003500017FA0120800400F0B1F9012802D18004CD
:1003600000F052F910BD000010B50446012C09D070
:10037000022C07D0042C05D0A0088000002802D150
:10038000002C00D004E0FF217C3103A001F032F901
:10039000E0431149C86310BD2E2E5C2E2E5C4C69C3
:1003A000627261726965735C4854363078785F5365
:1003B00074645065726970685F4472697665725CD6
:1003C0007372635C6874367878785F6165732672DF
:1003D000616E642E630000000021014070B5044688
:1003E0000025012C09D0022C07D0042C05D0A00830
:1003F0008000002802D1002C00D004E0FF215D31F4
:1004000006A001F0F7F81548C06B2040002801D085
:10041000012500E00025284670BD00002E2E5C2E30
:100420002E5C4C69627261726965735C4854363047
:1004300078785F5374645065726970685F4472695C
:100440007665725C7372635C6874367878785F6125
:1004500065732672616E642E630000000021014006
:1004600070B50446012C03D0082C01D0102C00D10B
:1004700003E0074907A001F0BDF815488069204056
:10048000002801D0012500E00025284670BD0000AD
:10049000790300002E2E5C2E2E5C4C696272617214
:1004A0006965735C4854363078785F53746450657E
:1004B000726970685F4472697665725C7372635CBE
:1004C0006874367878785F636D752E63000000007D
:1004D00000F0004010B50446012C19D0022C17D0B2
:1004E000042C15D0102C13D0202C11D0402C0FD060
:1004F000FF20013084420BD04000844208D04000ED
:10050000844205D007482040002802D1002C00D0AA
:1005100004E0FF215B3104A001F06CF8E0431149D5
:10052000486010BD88F8FFFF2E2E5C2E2E5C4C69B3
:10053000627261726965735C4854363078785F53D3
:1005400074645065726970685F4472697665725C44
:100550007372635C6874367878785F646D612E635B
:10056000000000000000024070B50446012C19D0C4
:10057000022C17D0042C15D0102C13D0202C11D005
:10058000402C0FD0FF20013084420BD04000844229
:1005900008D04000844205D00A482040002802D1FB
:1005A000002C00D004E0FF211B3107A001F022F84D
:1005B000144840682040002801D0012500E00025B3
:1005C000284670BD88F8FFFF2E2E5C2E2E5C4C69ED
:1005D000627261726965735C4854363078785F5333
:1005E00074645065726970685F4472697665725CA4
:1005F0007372635C6874367878785F646D612E63BB
:10060000000000000000024070B504460120000414
:10061000844221D0400084421ED0400084421BD03E
:100620000721090420468843002801D1002C13D15A
:10063000012C11D0022C0FD0042C0DD0082C0BD083
:10064000102C09D0202C07D0402C05D0E009C00187
:10065000002802D1002C00D004E0FF219A3107A02D
:1006600000F0C8FF072000042040050C6406640E5B
:10067000E04311494860E843486170BD2E2E5C2E6E
:100680002E5C4C69627261726965735C48543630E5
:1006900078785F5374645065726970685F447269FA
:1006A0007665725C7372635C6874367878785F65BF
:1006B0007874692E630000000018014070B504468C
:1006C000002601200004844221D0400084421ED034
:1006D000400084421BD0072109042046884300289B
:1006E00001D1002C13D1012C11D0022C0FD0042CDD
:1006F0000DD0082C0BD0102C09D0202C07D0402C6A
:1007000005D0E009C001002802D1002C00D004E08F
:10071000FF2128310AA000F06DFF072000042040CF
:10072000050C164840682040002800D001261348D8
:1007300040692840002800D00126304670BD0000E6
:100740002E2E5C2E2E5C4C69627261726965735C40
:100750004854363078785F537464506572697068B5
:100760005F4472697665725C7372635C6874367834
:1007700078785F657874692E630000000018014086
:1007800070B504460120000684422BD0400084420C
:1007900028D04000844225D00721090620468843FE
:1007A000002801D1002C1DD1FF200130844219D036
:1007B0004000844216D04000844213D0400084425E
:1007C00010D0400084420DD0400084420AD0400046
:1007D000844207D07F21090220468843002802D1A5
:1007E000002C00D004E0FF21663108A000F002FFD9
:1007F000072000062040050C7F2000020440E04353
:1008000011494860E843486170BD00002E2E5C2EFF
:100810002E5C4C69627261726965735C4854363053
:1008200078785F5374645065726970685F44726968
:100830007665725C7372635C6874367878785F652D
:100840007874692E630000000018014070B50446FA
:1008500000260120000684422BD04000844228D08C
:100860004000844225D007210906204688430028FD
:1008700001D1002C1DD1FF200130844219D040004D
:10088000844216D04000844213D04000844210D0ED
:10089000400084420DD0400084420AD0400084428F
:1008A00007D07F21090220468843002802D1002C6E
:1008B00000D003E0E8210AA000F09CFE072000061B
:1008C0002040050C154840682040002800D0012633
:1008D000124840692840002800D00126304670BDEB
:1008E0002E2E5C2E2E5C4C69627261726965735C9F
:1008F0004854363078785F53746450657269706814
:100900005F4472697665725C7372635C6874367892
:1009100078785F657874692E6300000000180140E4
:10092000014802494860704740AA000000000140A9
:100930007047000070B505460C460C48854202D051
:100940000B48854200D104E0FF21FC3109A000F0F2
:1009500051FE002C02D01F2C00D804E0FF21FD31F5
:1009600004A000F047FEE043A86170BD0090004085
:10097000008000402E2E5C2E2E5C4C6962726172EB
:100980006965735C4854363078785F537464506599
:10099000726970685F4472697665725C7372635CD9
:1009A0006874367878785F756172742637383136B6
:1009B0002E63000070B504460D4600260F488442A1
:1009C00002D00F48844200D104E0FF21D6310DA0AF
:1009D00000F010FE002D02D01F2D00D804E0FF21F2
:1009E000D73108A000F006FEA0692840002801D0F9
:1009F000012600E00026304670BD00000090004057
:100A0000008000402E2E5C2E2E5C4C69627261725A
:100A10006965735C4854363078785F537464506508
:100A2000726970685F4472697665725C7372635C48
:100A30006874367878785F75617274263738313625
:100A40002E63000010B5044660094001002802D161
:100A5000002C00D004E00921890103A000F0CAFDA8
:100A6000E0431049086110BD2E2E5C2E2E5C4C69AF
:100A7000627261726965735C4854363078785F538E
:100A800074645065726970685F4472697665725CFF
:100A90007372635C6874367878785F706D752E63F6
:100AA0000000000000F4004070B504460025600915
:100AB0004001002802D1002C00D003E0064907A025
:100AC00000F098FD144800692040002801D001255D
:100AD00000E00025284670BD1F0200002E2E5C2E6F
:100AE0002E5C4C69627261726965735C4854363081
:100AF00078785F5374645065726970685F44726996
:100B00007665725C7372635C6874367878785F704F
:100B10006D752E630000000000F4004070B50546BE
:100B20000C461148854202D01048854200D103E0AE
:100B3000EE210FA000F05EFD012C0BD0022C09D09D
:100B4000042C07D0082C05D020090001002802D170
:100B5000002C00D003E0EF2105A000F04BFD6868F9
:100B6000C4B2A868C4B270BD00B0004000700140BB
:100B70002E2E5C2E2E5C4C69627261726965735C0C
:100B80004854363078785F53746450657269706881
:100B90005F4472697665725C7372635C6874367800
:100BA00078785F7370692E630000000070B50546A9
:100BB0000C461348854202D01248854200D103E01A
:100BC000CB2111A000F016FD012C0BD0022C09D076
:100BD000042C07D0082C05D020090001002802D1E0
:100BE000002C00D003E0CC2107A000F003FD6868D2
:100BF0002040002801D0012600E00026304670BDCC
:100C000000B00040007001402E2E5C2E2E5C4C691E
:100C1000627261726965735C4854363078785F53EC
:100C200074645065726970685F4472697665725C5D
:100C30007372635C6874367878785F7370692E635A
:100C40000000000010B50446012C1AD0022C18D068
:100C5000042C16D0082C14D0102C12D0202C10D01C
:100C6000402C0ED0802C0CD0FF200130844208D0C4
:100C70004000844205D0A00A8002002802D1002C46
:100C800000D003E0034904A000F0B4FCE0431149A4
:100C9000886010BD830700002E2E5C2E2E5C4C69F0
:100CA000627261726965735C4854363078785F535C
:100CB00074645065726970685F4472697665725CCD
:100CC0007372635C6874367878785F7462732E63CD
:100CD0000000000000E0004070B50446012C1AD06E
:100CE000022C18D0042C16D0082C14D0102C12D0A2
:100CF000202C10D0402C0ED0802C0CD0FF200130A6
:100D0000844208D04000844205D0A00A8002002816
:100D100002D1002C00D003E0064907A000F06AFCD5
:100D2000144880682040002801D0012500E00025FB
:100D3000284670BD4B0700002E2E5C2E2E5C4C69A1
:100D4000627261726965735C4854363078785F53BB
:100D500074645065726970685F4472697665725C2C
:100D60007372635C6874367878785F7462732E632C
:100D70000000000000E0004070B505460C46174832
:100D800085420ED0164885420BD01648854208D0C1
:100D90001548854205D01548854202D01448854241
:100DA00000D104E06B21C90012A000F023FC082C44
:100DB0000BD0012C09D0022C07D0042C05D020091F
:100DC0000001002802D1002C00D004E01B214901C1
:100DD00008A000F00FFCE043E86170BD0010004087
:100DE00000200040003000400040004000900140E2
:100DF00000A001402E2E5C2E2E5C4C696272617246
:100E00006965735C4854363078785F537464506514
:100E1000726970685F4472697665725C7372635C54
:100E20006874367878785F74696D65722E63000037
:100E300070B504460D460026194884420ED0194864
:100E400084420BD01848844208D01848844205D008
:100E50001748844202D01748844200D103E0164963
:100E600016A000F0C7FB082D0BD0012D09D0022DD4
:100E700007D0042D05D028090001002802D1002D3B
:100E800000D004E00C4908310CA000F0B3FBE0698D
:100E90002840002801D0012600E00026304670BD21
:100EA00000100040002000400030004000400040A2
:100EB0000090014000A001401D0300002E2E5C2E7A
:100EC0002E5C4C69627261726965735C485436309D
:100ED00078785F5374645065726970685F447269B2
:100EE0007665725C7372635C6874367878785F7468
:100EF000696D65722E63000070B504460D46144896
:100F0000844211D0134884420ED0134884420BD03F
:100F10001248844208D01248844205D0800484429A
:100F200002D01048844200D104E0FF2190310EA08D
:100F300000F060FB002D02D01F2D00D804E0FF213F
:100F4000913109A000F056FBE843606170BD0000DC
:100F500000500040006000400070004000800040F1
:100F600000900040008001402E2E5C2E2E5C4C69CB
:100F7000627261726965735C4854363078785F5389
:100F800074645065726970685F4472697665725CFA
:100F90007372635C6874367878785F7561727426F2
:100FA000373831362E63000000BFFEE710B5FFF77B
:100FB000BFFC10BD7047704770477047704770475F
:100FC000A2FFFFF770B504460D460026164884427E
:100FD00011D0164884420ED0154884420BD01548D3
:100FE000844208D01448844205D08004844202D050
:100FF0001248844200D104E0FF21653110A000F0C6
:10100000F9FA002D02D01F2D00D804E0FF2166312F
:101010000BA000F0EFFA60692840002801D00126FB
:1010200000E00026304670BD0050004000600040E7
:1010300000700040008000400090004000800140AF
:101040002E2E5C2E2E5C4C69627261726965735C37
:101050004854363078785F537464506572697068AC
:101060005F4472697665725C7372635C687436782B
:1010700078785F7561727426373831362E630000D8
:1010800010B50120FFF7ECF90820FFF7E9F910206F
:10109000FFF7E6F910BD10B50120FFF705FD0128A7
:1010A00001D1FFF7CFFC0220FFF7FEFC012802D19F
:1010B0000220FFF7C7FC0420FFF7F6FC012802D14D
:1010C0000420FFF7BFFC0820FFF7EEFC012802D147
:1010D0000820FFF7B7FC1020FFF7E6FC012802D13B
:1010E0001020FFF7AFFC10BD03498968C8B200218A
:1010F000014A91607047000000C0004010B5012116
:101100000948FFF753FD012803D101210648FFF7E5
:1011100005FD08210448FFF749FD012803D10821F6
:101120000148FFF7FBFC10BD00B0004010B50121E5
:101130000948FFF73BFD012803D101210648FFF7CD
:10114000EDFC08210448FFF731FD012803D10821F7
:101150000148FFF7E3FC10BD0070014010B501200D
:10116000FFF7BAFD012801D1FFF76CFD0220FFF760
:10117000B3FD012802D10220FFF764FD0420FFF730
:10118000ABFD012802D10420FFF75CFD0820FFF72A
:10119000A3FD012802D10820FFF754FD1020FFF71E
:1011A0009BFD012802D11020FFF74CFD2020FFF706
:1011B00093FD012802D12020FFF744FD8020FFF796
:1011C0008BFD012802D18020FFF73CFDFF2001307C
:1011D000FFF782FD012802D10002FFF733FD012055
:1011E0004002FFF779FD012802D14002FFF72AFDF6
:1011F0004020FFF771FD012802D14020FFF722FDBA
:1012000010BD000010B501211348FFF711FE0128A1
:1012100003D101211048FFF7AFFD02210E48FFF76F
:1012200007FE012803D102210B48FFF7A5FD042189
:101230000948FFF7FDFD012803D104210648FFF707
:101240009BFD08210448FFF7F3FD012803D1082185
:101250000148FFF791FD10BD0010004010B50121BD
:101260001348FFF7E5FD012803D101211048FFF7DE
:1012700083FD02210E48FFF7DBFD012803D1022187
:101280000B48FFF779FD04210948FFF7D1FD01283C
:1012900003D104210648FFF76FFD08210448FFF73A
:1012A000C7FD012803D108210148FFF765FD10BDE6
:1012B0000020004010B501211348FFF7B9FD0128B7
:1012C00003D101211048FFF757FD02210E48FFF717
:1012D000AFFD012803D102210B48FFF74DFD04218A
:1012E0000948FFF7A5FD012803D104210648FFF7AF
:1012F00043FD08210448FFF79BFD012803D1082185
:101300000148FFF739FD10BD0030004010B5012144
:101310001348FFF78DFD012803D101211048FFF785
:101320002BFD02210E48FFF783FD012803D1022186
:101330000B48FFF721FD04210948FFF779FD01283B
:1013400003D104210648FFF717FD08210448FFF7E1
:101350006FFD012803D108210148FFF70DFD10BDE5
:101360000040004010B501211348FFF761FD01283E
:1013700003D101211048FFF7FFFC02210E48FFF7BF
:1013800057FD012803D102210B48FFF7F5FC04218A
:101390000948FFF74DFD012803D104210648FFF756
:1013A000EBFC08210448FFF743FD012803D1082185
:1013B0000148FFF7E1FC10BD0090014010B501218C
:1013C0001348FFF735FD012803D101211048FFF72D
:1013D000D3FC02210E48FFF72BFD012803D1022187
:1013E0000B48FFF7C9FC04210948FFF721FD01283C
:1013F00003D104210648FFF7BFFC08210448FFF78A
:1014000017FD012803D108210148FFF7B5FC10BDE5
:1014100000A0014010B501210948FFF7D3FD0128C4
:1014200003D101210648FFF767FD02210448FFF7B9
:10143000C9FD012803D102210148FFF75DFD10BD60
:101440000050004010B501210948FFF7BBFD0128FD
:1014500003D101210648FFF74FFD02210448FFF7A1
:10146000B1FD012803D102210148FFF745FD10BD60
:101470000060004010B501210948FFF7A3FD0128D5
:1014800003D101210648FFF737FD02210448FFF789
:1014900099FD012803D102210148FFF72DFD10BD60
:1014A0000070004010B501211848FFF78BFD01289E
:1014B00003D101211548FFF71FFD02211348FFF753
:1014C00081FD012803D102211048FFF715FD0121FC
:1014D0000E48FFF76FFA012803D101210B48FFF7EF
:1014E00029FA02210948FFF765FA012803D10221F0
:1014F0000648FFF71FFA04210448FFF75BFA0128AA
:1015000003D104210148FFF715FA10BD0080004007
:1015100010B501211848FFF755FD012803D101211D
:101520001548FFF7E9FC02211348FFF74BFD01289E
:1015300003D102211048FFF7DFFC01210E48FFF71D
:1015400039FA012803D101210B48FFF7F3F90221F1
:101550000948FFF72FFA012803D102210648FFF7B7
:10156000E9F904210448FFF725FA012803D10421F1
:101570000148FFF7DFF910BD0090004010B50121D0
:101580008807FFF71FFD012803D101218007FFF71E
:10159000B3FC02214807FFF715FD012803D1022102
:1015A0008007FFF7A9FC10BD10B501210948FFF71E
:1015B00009FD012803D101210648FFF79DFC022106
:1015C0000448FFF7FFFC012803D102210148FFF77F
:1015D00093FC10BD0080014002E008C8121F08C142
:1015E000002AFAD17047002001E001C1121F002A31
:1015F000FBD1704700BFFEE701E0FFF791F9FCE780
:10160000101600000000002000200000E615000079
:04000005000000C136
:00000001FF
