:020000040000FA
:1000000000100020D5000000C50F00009D0F00006B
:1000100000000000000000000000000000000000E0
:10002000000000000000000000000000BF0F000002
:100030000000000000000000BD0F00006110000083
:10004000DB0F000015010000E90100000D020000B7
:1000500033020000590200007F020000A5020000E8
:10006000CB0200000D1200003D1200006D120000D6
:100070009D1200000913000075130000FD10000020
:100080004111000085110000C91100006510000039
:100090001D100000A10F000031100000E70000005B
:1000A000E7000000E701000047010000A90F000081
:1000B000E7000000E7000000E7000000E7000000A4
:1000C0000348854600F014F800480047C3130000B9
:1000D000001000200448804704480047FEE7FEE780
:1000E000FEE7FEE7FEE7FEE763100000C100000048
:1000F000064C0125064E05E0E36807CC2B430C3C7B
:1001000098471034B442F7D3FFF7DEFFCC1300005A
:10011000DC13000010B5012000F024F9012801D102
:1001200000F0E6F8022000F01DF9012802D10220BB
:1001300000F0DEF8042000F015F9012802D10420B7
:1001400000F0D6F810BD10B500F001F810BD10B5E4
:10015000012000F0CDF9012801D100F07FF9102035
:1001600000F0C6F9012802D1102000F077F9FF2035
:10017000013000F0BDF9012802D1000200F06EF953
:10018000022000F0B5F9012802D1022000F066F942
:10019000202000F0ADF9012802D1202000F05EF906
:1001A0000120400200F0A4F9012802D1400200F031
:1001B00055F9042000F09CF9012802D1042000F038
:1001C0004DF9402000F094F9012802D1402000F0C0
:1001D00045F90120800200F08BF9012802D180024C
:1001E00000F03CF910BD704710B5FF20013000F061
:1001F000A5FA012802D1000200F052FA012000F015
:1002000009FA012801D100F0C3F910BD10B5012091
:10021000400200F093FA012802D1400200F040FAB7
:10022000022000F0F7F9012802D1022000F0B0F915
:1002300010BD10B50120800200F080FA012802D123
:10024000800200F02DFA042000F0E4F9012802D128
:10025000042000F09DF910BD10B50120C00200F08F
:100260006DFA012802D1C00200F01AFA082000F04D
:10027000D1F9012802D1082000F08AF910BD10B58B
:100280000120000300F05AFA012802D1000300F017
:1002900007FA102000F0BEF9012802D1102000F06A
:1002A00077F910BD10B50120400300F047FA01288E
:1002B00002D1400300F0F4F9202000F0ABF901284E
:1002C00002D1202000F064F910BD10B50120800398
:1002D00000F034FA012802D1800300F0E1F9402057
:1002E00000F098F9012802D1402000F051F910BD2A
:1002F00010B50446012C09D0022C07D0042C05D0DF
:10030000A0088000002802D1002C00D004E0FF21CA
:100310007C3103A001F053F8E0431149C86310BDDC
:100320002E2E5C2E2E5C4C69627261726965735C64
:100330004854363078785F537464506572697068D9
:100340005F4472697665725C7372635C6874367858
:1003500078785F6165732672616E642E63000000B9
:100360000021014070B504460025012C09D0022C63
:1003700007D0042C05D0A0088000002802D1002C52
:1003800000D004E0FF215D3106A001F018F8154807
:10039000C06B2040002801D0012500E00025284640
:1003A00070BD00002E2E5C2E2E5C4C696272617254
:1003B0006965735C4854363078785F53746450656F
:1003C000726970685F4472697665725C7372635CAF
:1003D0006874367878785F6165732672616E642E12
:1003E000630000000021014070B50446012C03D0D9
:1003F000082C01D0102C00D103E0074907A000F021
:10040000DEFF154880692040002801D0012500E06A
:100410000025284670BD0000790300002E2E5C2EBA
:100420002E5C4C69627261726965735C4854363047
:1004300078785F5374645065726970685F4472695C
:100440007665725C7372635C6874367878785F6323
:100450006D752E630000000000F0004010B50446EA
:10046000012C19D0022C17D0042C15D0102C13D02D
:10047000202C11D0402C0FD0FF20013084420BD013
:100480004000844208D04000844205D00748204004
:10049000002802D1002C00D004E0FF215B3104A031
:1004A00000F08DFFE0431149486010BD88F8FFFF60
:1004B0002E2E5C2E2E5C4C69627261726965735CD3
:1004C0004854363078785F53746450657269706848
:1004D0005F4472697665725C7372635C68743678C7
:1004E00078785F646D612E63000000000060014059
:1004F00070B50446012C19D0022C17D0042C15D04D
:10050000102C13D0202C11D0402C0FD0FF20013004
:1005100084420BD04000844208D04000844205D081
:100520000A482040002802D1002C00D004E0FF211E
:100530001B3107A000F043FF14484068204000280A
:1005400001D0012500E00025284670BD88F8FFFF96
:100550002E2E5C2E2E5C4C69627261726965735C32
:100560004854363078785F537464506572697068A7
:100570005F4472697665725C7372635C6874367826
:1005800078785F646D612E630000000000600140B8
:1005900010B50446012C11D0022C0FD0042C0DD024
:1005A000082C0BD0102C09D0202C07D0402C05D0C3
:1005B000E009C001002802D1002C00D004E0FF2196
:1005C0009C3104A000F0FBFE6406640EE043104979
:1005D000486010BD2E2E5C2E2E5C4C6962726172DA
:1005E0006965735C4854363078785F53746450653D
:1005F000726970685F4472697665725C7372635C7D
:100600006874367878785F657874692E63000000C6
:100610000018014070B504460025012C11D0022CB1
:100620000FD0042C0DD0082C0BD0102C09D0202C6E
:1006300007D0402C05D0E009C001002802D1002CD1
:1006400000D004E0FF212A3105A000F0B8FE1348D5
:1006500040682040002800D00125284670BD0000D9
:100660002E2E5C2E2E5C4C69627261726965735C21
:100670004854363078785F53746450657269706896
:100680005F4472697665725C7372635C6874367815
:1006900078785F657874692E630000000018014067
:1006A00010B50446FF200130844219D04000844236
:1006B00016D04000844213D04000844210D0400045
:1006C00084420DD0400084420AD04000844207D0CA
:1006D0007F21090220468843002802D1002C00D047
:1006E00004E0FF21683105A000F069FE7F200002D0
:1006F0000440E0431049486010BD00002E2E5C2EDF
:100700002E5C4C69627261726965735C4854363064
:1007100078785F5374645065726970685F44726979
:100720007665725C7372635C6874367878785F653E
:100730007874692E630000000018014070B504460B
:100740000025FF200130844219D04000844216D099
:100750004000844213D04000844210D040008442C4
:100760000DD0400084420AD04000844207D07F214F
:10077000090220468843002802D1002C00D003E063
:10078000EA2105A000F01BFE124840682040002826
:1007900000D00125284670BD2E2E5C2E2E5C4C69A3
:1007A000627261726965735C4854363078785F5361
:1007B00074645065726970685F4472697665725CD2
:1007C0007372635C6874367878785F657874692EC4
:1007D000630000000018014001480249486070476A
:1007E00040AA0000000001407047000070B50546B7
:1007F0000C460C48854202D00B48854200D104E0EB
:10080000FF21FC3109A000F0DAFD002C02D01F2CE2
:1008100000D804E0FF21FD3104A000F0D0FDE0434A
:10082000A86170BD00900040008000402E2E5C2E1C
:100830002E5C4C69627261726965735C4854363033
:1008400078785F5374645065726970685F44726948
:100850007665725C7372635C6874367878785F75FD
:1008600061727426373831362E63000070B5044645
:100870000D4600260F48844202D00F48844200D122
:1008800004E0FF21D6310DA000F099FD002D02D02B
:100890001F2D00D804E0FF21D73108A000F08FFD04
:1008A000A0692840002801D0012600E0002630463B
:1008B00070BD000000900040008000402E2E5C2E95
:1008C0002E5C4C69627261726965735C48543630A3
:1008D00078785F5374645065726970685F447269B8
:1008E0007665725C7372635C6874367878785F756D
:1008F00061727426373831362E63000010B5044615
:10090000012C00D104E0FF215C3103A000F057FD71
:10091000E0431149486010BD2E2E5C2E2E5C4C69C0
:10092000627261726965735C4854363078785F53DF
:1009300074645065726970685F4472697665725C50
:100940007372635C6874353031785F6B657973639B
:10095000616E2E63000000000040014070B5044647
:10096000012C00D104E0FF213D3106A000F027FD5D
:10097000144840682040002801D0012500E00025EF
:10098000284670BD2E2E5C2E2E5C4C696272617200
:100990006965735C4854363078785F537464506589
:1009A000726970685F4472697665725C7372635CC9
:1009B0006874353031785F6B65797363616E2E636F
:1009C000000000000040014010B50446200900016D
:1009D000002802D1002C00D004E00921890103A0E5
:1009E00000F0EDFCE0431049086110BD2E2E5C2E96
:1009F0002E5C4C69627261726965735C4854363072
:100A000078785F5374645065726970685F44726986
:100A10007665725C7372635C6874367878785F7040
:100A20006D752E630000000000F4004070B50446B0
:100A3000002520090001002802D1002C00D003E08D
:100A4000064907A000F0BBFC1448006920400028BC
:100A500001D0012500E00025284670BD1F020000DE
:100A60002E2E5C2E2E5C4C69627261726965735C1D
:100A70004854363078785F53746450657269706892
:100A80005F4472697665725C7372635C6874367811
:100A900078785F706D752E630000000000F40040F0
:100AA00070B505460C461048854200D103E0EE21A2
:100AB0000EA000F084FC012C0BD0022C09D0042CD9
:100AC00007D0082C05D020090001002802D1002CF5
:100AD00000D003E0EF2105A000F071FC6868C4B20B
:100AE000A868C4B270BD000000B000402E2E5C2E7D
:100AF0002E5C4C69627261726965735C4854363071
:100B000078785F5374645065726970685F44726985
:100B10007665725C7372635C6874367878785F733C
:100B200070692E630000000070B505460C4612483F
:100B3000854200D103E0CB2110A000F040FC012C45
:100B40000BD0022C09D0042C07D0082C05D020098A
:100B50000001002802D1002C00D003E0CC2107A026
:100B600000F02DFC68682040002801D0012600E03C
:100B70000026304670BD000000B000402E2E5C2ED6
:100B80002E5C4C69627261726965735C48543630E0
:100B900078785F5374645065726970685F447269F5
:100BA0007665725C7372635C6874367878785F73AC
:100BB00070692E630000000010B50446012C18D0A7
:100BC000022C16D0082C14D0102C12D0402C10D08F
:100BD000042C0ED0202C0CD0FF200130844208D0F1
:100BE0004000844205D007482040002802D1002C54
:100BF00000D003E0044905A000F0E1FBE043124906
:100C0000C86010BD80FCFFFF830700002E2E5C2E05
:100C10002E5C4C69627261726965735C485436304F
:100C200078785F5374645065726970685F44726964
:100C30007665725C7372635C6874367878785F741A
:100C400062732E630000000000E0004070B50446AF
:100C5000012C18D0022C16D0082C14D0102C12D035
:100C6000402C10D0042C0ED0202C0CD0FF200130B2
:100C7000844208D04000844205D00A482040002821
:100C800002D1002C00D003E0074908A000F097FB38
:100C90001548C0682040002801D0012500E000254B
:100CA000284670BD80FCFFFF4B0700002E2E5C2EF7
:100CB0002E5C4C69627261726965735C48543630AF
:100CC00078785F5374645065726970685F447269C4
:100CD0007665725C7372635C6874367878785F747A
:100CE00062732E630000000000E0004070B505460E
:100CF0000C461448854208D01348854205D0134855
:100D0000854202D01248854200D103E0114912A069
:100D100000F055FB012C09D0022C07D0042C05D083
:100D2000E008C000002802D1002C00D004E00949EE
:100D3000083109A000F043FB08200443E043E861C8
:100D400070BD000000100040002000400030004056
:100D5000004000405A0300002E2E5C2E2E5C4C6991
:100D6000627261726965735C4854363078785F539B
:100D700074645065726970685F4472697665725C0C
:100D80007372635C6874367878785F74696D6572C5
:100D90002E63000070B505460C46002615488542B6
:100DA00008D01548854205D01448854202D0144821
:100DB000854200D103E0134913A000F000FB012C91
:100DC00009D0022C07D0042C05D0E008C000002870
:100DD00002D1002C00D004E00A4908310AA000F03A
:100DE000EEFAE8692040002801D0012600E0002644
:100DF000304670BD00100040002000400030004030
:100E0000004000401F0300002E2E5C2E2E5C4C691B
:100E1000627261726965735C4854363078785F53EA
:100E200074645065726970685F4472697665725C5B
:100E30007372635C6874367878785F74696D657214
:100E40002E63000070B504460D46124884420ED051
:100E5000114884420BD01148844208D01048844283
:100E600005D01048844202D08004844200D104E0BE
:100E7000FF2190310CA000F0A2FA002D02D0072D26
:100E800000D804E0FF21913107A000F098FAE84370
:100E9000606170BD00500040006000400070004084
:100EA00000800040009000402E2E5C2E2E5C4C698D
:100EB000627261726965735C4854363078785F534A
:100EC00074645065726970685F4472697665725CBB
:100ED0007372635C6874367878785F7561727426B3
:100EE000373831362E63000070B504460D460026B3
:100EF000154884420ED0154884420BD014488442D1
:100F000008D01448844205D01348844202D080049B
:100F1000844200D104E0FF21653110A000F04FFAB7
:100F2000002D02D0072D00D804E0FF2166310BA070
:100F300000F045FA60692840002801D0012600E051
:100F40000026304670BD00000050004000600040A8
:100F50000070004000800040009000402E2E5C2E6B
:100F60002E5C4C69627261726965735C48543630FC
:100F700078785F5374645065726970685F44726911
:100F80007665725C7372635C6874367878785F75C6
:100F900061727426373831362E63000000BFFEE7D9
:100FA00010B5FFF721FC10BD10B50120FFF7D6FCEE
:100FB000002802D00120FFF7A1FC10BD7047704748
:100FC000F2FFFFFF10B50120FFF70EFA0820FFF730
:100FD0000BFA1020FFF708FA10BD10B50120FFF73B
:100FE00025FD012801D1FFF7EFFC0220FFF71EFDD0
:100FF000012802D10220FFF7E7FC0420FFF716FDCD
:10100000012802D10420FFF7DFFC0820FFF70EFDC6
:10101000012802D10820FFF7D7FC10BD03498968D9
:10102000C8B20021014A91607047000000C0004032
:1010300010B501210948FFF777FD012803D10121EF
:101040000648FFF72DFD08210448FFF76DFD012834
:1010500003D108210148FFF723FD10BD00B0004077
:101060007047704710B50120FFF7F0FD012801D14E
:10107000FFF7A2FD0220FFF7E9FD012802D10220BF
:10108000FFF79AFD0820FFF7E1FD012802D10820B3
:10109000FFF792FD1020FFF7D9FD012802D11020A3
:1010A000FFF78AFD4020FFF7D1FD012802D1402043
:1010B000FFF782FD0420FFF7C9FD012802D10420BB
:1010C000FFF77AFD2020FFF7C1FD012802D1202083
:1010D000FFF772FDFF200130FFF7B8FD012802D1B4
:1010E0000002FFF769FD01204002FFF7AFFD012874
:1010F00002D14002FFF760FD10BD000010B50121D4
:101100000E48FFF747FE012803D101210B48FFF7E6
:10111000EDFD02210948FFF73DFE012803D1022120
:101120000648FFF7E3FD04210448FFF733FE0128DA
:1011300003D104210148FFF7D9FD10BD0010004084
:1011400010B501210E48FFF725FE012803D101212A
:101150000B48FFF7CBFD02210948FFF71BFE0128D2
:1011600003D102210648FFF7C1FD04210448FFF71F
:1011700011FE012803D104210148FFF7B7FD10BD7E
:101180000020004010B501210E48FFF703FE0128A2
:1011900003D101210B48FFF7A9FD02210948FFF700
:1011A000F9FD012803D102210648FFF79FFD042124
:1011B0000448FFF7EFFD012803D104210148FFF7A0
:1011C00095FD10BD0030004010B501210E48FFF71D
:1011D000E1FD012803D101210B48FFF787FD022122
:1011E0000948FFF7D7FD012803D102210648FFF780
:1011F0007DFD04210448FFF7CDFD012803D1042122
:101200000148FFF773FD10BD0040004010B50121FB
:101210000948FFF769FE012803D101210648FFF7BD
:1012200011FE02210448FFF75FFE012803D10221CD
:101230000148FFF707FE10BD0050004010B5012126
:101240000948FFF751FE012803D101210648FFF7A5
:10125000F9FD02210448FFF747FE012803D10221CE
:101260000148FFF7EFFD10BD0060004010B50121FF
:101270000948FFF739FE012803D101210648FFF78D
:10128000E1FD02210448FFF72FFE012803D10221CE
:101290000148FFF7D7FD10BD0070004010B50121D7
:1012A0001848FFF721FE012803D101211548FFF757
:1012B000C9FD02211348FFF717FE012803D10221BF
:1012C0001048FFF7BFFD01210E48FFF7CFFA0128B4
:1012D00003D101210B48FFF789FA02210948FFF7E2
:1012E000C5FA012803D102210648FFF77FFA04213D
:1012F0000448FFF7BBFA012803D104210148FFF796
:1013000075FA10BD0080004010B501211848FFF7A4
:10131000EBFD012803D101211548FFF793FD0221C0
:101320001348FFF7E1FD012803D102211048FFF720
:1013300089FD01210E48FFF799FA012803D1012107
:101340000B48FFF753FA02210948FFF78FFA0128EB
:1013500003D102210648FFF749FA04210448FFF7A8
:1013600085FA012803D104210148FFF73FFA10BD97
:101370000090004010B501218807FFF7B5FD012856
:1013800003D101218007FFF75DFD02214807FFF728
:10139000ABFD012803D102218007FFF753FD10BDEB
:1013A00002E008C8121F08C1002AFAD1704770472E
:1013B000002001E001C1121F002AFBD1704700BFCD
:1013C000FEE701E0FFF708FAFCE70000DC1300008D
:0C13D0000000002000100000B01300001E
:04000005000000C136
:00000001FF
