:020000040000FA
:10000000D88C00207D010000B52A00005D2A000088
:1000100000000000000000000000000000000000E0
:10002000000000000000000000000000E5000000EB
:10003000000000000000000029010000352D000034
:10004000FD2B0000F50500002D0800000909000047
:100050002F090000550900007B090000A1090000DC
:10006000C709000011320000A1320000D1320000A7
:10007000013300006D330000D9330000ED2E000085
:10008000512F0000B52F000019300000FD2D000099
:10009000512C0000AD2A0000752C0000A52C00009A
:1000A000BB0F000091300000093100000534000052
:1000B000ED0900008F010000D52C00007F06000034
:1000C0008F010000510800008F010000052D000085
:1000D000DFF80CD000F07CFA0048004755370000EC
:1000E000D88C0020224B19680868B0E8F00F80F324
:1000F0000988BFF36F8F4FF0000080F311884EF036
:100100000D0E70470000000006480068006880F38C
:10011000088862B661B6BFF34F8FBFF36F8F00DF01
:1001200000BF00BF08ED00E0EFF30980BFF36F8F61
:100130000F4B1A6820E9F00F106008B54FF040002F
:1001400080F31188BFF34F8FBFF36F8F04F0C2FAB3
:100150004FF0000080F31188BDE808401968086876
:10016000B0E8F00F80F30988BFF36F8F704700BFCE
:1001700028000020EFF30580704700000448804706
:1001800004480047FEE7FEE7FEE7FEE7FEE7FEE77E
:10019000BD0F0000D100000040EA01039B0703D01F
:1001A00009E008C9121F08C0042AFAD203E011F8B6
:1001B000013B00F8013B521EF9D27047D2B201E078
:1001C00000F8012B491EFBD270470022F6E710B55C
:1001D00013460A4604461946FFF7F0FF204610BDB5
:1001E0002DE9FE4F804681EA0300C00F0C460090C7
:1001F00021F0004123F00045B8EB0200A94105D2EF
:100200004046214690461C460B46024623F00040DD
:10021000104347D0270DC7F30A00C3F30A510290D9
:10022000401A019040286BDAC3F3130040F4801B9E
:100230000098924620B10023D2EB030A63EB0B0B2C
:1002400001985946C0F14002504600F033F9064685
:100250000D4650465946019A00F04BF910EB080044
:100260006141002487EA115284EAE7731A4340D0BF
:10027000009A62B3019A012A4FEA075215DC001B6B
:1002800061EB02014FF0004202EA0752CDE9004261
:10029000001C41F5801132462B4600F04BF903B0AB
:1002A000BDE8F08F40462146F9E7001B61EB0201F3
:1002B000001C41F5801300185B412018A2F50017BF
:1002C00047EB030140EAD570B6196D4111E06D08A6
:1002D0004FEA360645EAC0754FEA0752001B61EB4C
:1002E0000201001C41F5801149084FEA3000001955
:1002F000514132462B4603B0BDE8F04F00F00BB938
:100300000098012240000023D0EB020263EBE0736F
:10031000009821464FEAE074B8EB000061EB04015D
:10032000E9E783F000435BE781F0004158E72DE9FE
:10033000F04D81EA030404F0004B21F0004514461F
:100340004FF0000A23F0004150EA050220D054EAA1
:1003500001021DD0C5F30A570246C5F31303C1F3CA
:100360001300C1F30A5640F4801543F48013A7EB41
:100370000608101BD64608F2FD3873EB050002D3C1
:1003800008F1010801E092185B41B8F1000F03DAAF
:1003900000200146BDE8F08D00204FF48011064694
:1003A00084460EE0171B73EB050705D3121B63EBA6
:1003B000050306434CEA010C49084FEA3000921845
:1003C0005B4150EA0107EDD152EA030012D082EA04
:1003D000040083EA0501084305D0101BAB4106D297
:1003E0000122002306E000224FF0004302E06FF0FC
:1003F000010253101AEB06004CEB085110EB0A00F7
:1004000041EB0B01BDE8F04D00F085B80EB540F2B0
:10041000334102910021CDE900110A460B4600F05C
:1004200089F803B000BDC1F30A5210B5C1F313013E
:1004300040F2FF3341F480119A4201DA002010BDEE
:1004400040F233439A42A2F2334203DC524200F0BC
:1004500040F810BD904010BD30B5041E71F100048D
:1004600004DB4FF00044404264EB0101141E73F1C1
:10047000000405DB1C464FF00043524263EB0403CB
:10048000994208BF904230BD30B50B46014600206E
:100490002022012409E021FA02F59D4205D303FA46
:1004A00002F5491B04FA02F52844151EA2F10102C7
:1004B000F1DC30BD202A04DB203A00FA02F10020F2
:1004C00070479140C2F1200320FA03F31943904092
:1004D0007047202A04DB203A21FA02F000217047FD
:1004E00021FA02F3D040C2F120029140084319469C
:1004F0007047202A06DBCB17203A41FA02F043EA84
:10050000E07306E041FA02F3D040C2F120029140CC
:1005100008431946704710B5141E73F1000408DA39
:10052000401C41F1000192185B411A4301D120F0B7
:10053000010010BD2DE9F04D92469B4611B1B1FA74
:1005400081F202E0B0FA80F220329046FFF7B2FF6B
:1005500004460F4640EA0A0041EA0B0153465A4658
:10056000084313D0114653EA010019D0C8F14002E4
:100570005046FFF7AEFF05460E46504659464246E6
:10058000FFF798FF084305D0012004E020463946D4
:10059000BDE8F08D0020054346EAE0762C43374362
:1005A0000A986305E40AA0EB08000022FD0A44EA69
:1005B00047540A3002D500200146E9E70105101929
:1005C0006941DDE9084500196941BDE8F04DA2E740
:1005D000064C074D06E0E06840F0010394E8070090
:1005E00098471034AC42F6D3FFF776FD604F000019
:1005F000804F000010B5012000F066FE012801D1F7
:1006000000F02AFE012000F0B3FA012801D100F029
:1006100077FA022000F0ACFA012802D1022000F0A3
:100620006FFA042000F0A4FA012802D1042000F09F
:1006300067FA10BD2DE9FE4307460C4615461E46D7
:10064000DDF828800195ADF800408DF809608DF83F
:10065000088000208DF80A006946384601F01CF831
:10066000BDE8FE8338B505460C468DF800508DF880
:100670000140684600F042FB00F09BFC38BD10B51D
:1006800000F001F810BD10B5012000F06DFD01284B
:1006900001D100F0F7FC022000F066FD012802D134
:1006A000022000F0EFFC042000F05EFD012802D1E2
:1006B000042000F0E7FC102000F056FD012802D1D4
:1006C000102000F0DFFC202000F04EFD012802D1B8
:1006D000202000F0D7FC402000F046FD012802D188
:1006E000402000F0CFFC4FF4807000F03DFD012869
:1006F00002D1000200F0C6FC4FF4007000F034FD9F
:10070000012802D1400200F0BDFC4FF4806000F0EF
:100710002BFD012802D1800200F0B4FC4FF4805080
:1007200000F022FD012802D1000300F0ABFC4FF4E1
:10073000005000F019FD012802D1400300F0A2FC96
:100740004FF4804000F010FD012802D1800300F03A
:1007500099FC4FF4803000F007FD012802D100041D
:1007600000F090FC4FF4003000F0FEFC012802D1B4
:10077000400400F087FC4FF4802000F0F5FC0128D5
:1007800002D1800400F07EFC4FF4801000F0ECFCFD
:10079000012802D1000500F075FC4FF4001000F0B4
:1007A000E3FC012802D1400500F06CFC4FF480000E
:1007B00000F0DAFC012802D1800500F063FC4FF064
:1007C000807000F0D1FC012802D1000600F05AFC34
:1007D0004FF0007000F0C8FC012802D1400600F084
:1007E00051FC4FF0806000F0BFFC012802D1800670
:1007F00000F048FC4FF0805000F0B6FC012802D118
:10080000000700F03FFC4FF0005000F0ADFC012865
:1008100002D1400700F036FC4FF0804000F0A4FC0D
:10082000012802D1800700F02DFC10BD10B54FF457
:10083000807000F0C1FE012802D1000200F04EFEDF
:10084000012000F0E1FD012801D100F077FD10BD8D
:1008500010B54FF0006000F0AFFE012802D1C006D5
:1008600000F03CFE4FF4002000F0CEFD012802D144
:10087000C00400F063FD4FF0805000F09DFE0128A1
:1008800002D1000700F02AFE4FF4801000F0BCFDFA
:10089000012802D1000500F051FD4FF0005000F09A
:1008A0008BFE012802D1400700F018FE4FF4001023
:1008B00000F0AAFD012802D1400500F03FFD4FF0F5
:1008C000804000F079FE012802D1800700F006FE8A
:1008D0004FF4800000F098FD012802D1800500F05F
:1008E0002DFD4FF0004000F067FE012802D1C00747
:1008F00000F0F4FD4FF4000000F086FD012802D165
:10090000C00500F01BFD10BD10B54FF4007000F0E5
:1009100053FE012802D1400200F0E0FD022000F069
:1009200073FD012802D1022000F008FD10BD10B5B2
:100930004FF4806000F040FE012802D1800200F0F8
:10094000CDFD042000F060FD012802D1042000F05C
:10095000F5FC10BD10B54FF4006000F02DFE01282D
:1009600002D1C00200F0BAFD082000F04DFD0128C0
:1009700002D1082000F0E2FC10BD10B54FF4805009
:1009800000F01AFE012802D1000300F0A7FD10209C
:1009900000F03AFD012802D1102000F0CFFC10BD7C
:1009A00010B54FF4005000F007FE012802D14003BB
:1009B00000F094FD202000F027FD012802D1202026
:1009C00000F0BCFC10BD10B54FF4804000F0F4FD09
:1009D000012802D1800300F081FD402000F014FDC9
:1009E000012802D1402000F0A9FC10BD10B54FF045
:1009F000807000F0E1FD012802D1000600F06EFDDC
:100A00004FF4803000F000FD012802D1000400F016
:100A100095FC4FF0007000F0CFFD012802D1400698
:100A200000F05CFD4FF4003000F0EEFC012802D134
:100A3000400400F083FC4FF0806000F0BDFD012811
:100A400002D1800600F04AFD4FF4802000F0DCFC6B
:100A5000012802D1800400F071FC10BD1CB50648CD
:100A6000032100238022CDE9001004A1064803F0F1
:100A7000BDFF03F0EBFD1CBD00000020737461722C
:100A8000745F7461736B0000154200002DE9FC4136
:100A900007460C4615461E46DDF82080ADF802508C
:100AA000ADF800408DF805608DF8048000208DF8C9
:100AB00006006946384600F0E1FEBDE8FC81000012
:100AC00008B5012003460246014600900148FFF7A1
:100AD000DDFF08BD0014014001460BE0002005E0E9
:100AE00000BF00BF00BF00BF421C90B240F24C42AA
:100AF0009042F5DB0A1EA1F1010399B2EED17047D5
:100B000010B50446012C07D0022C05D0042C03D0CC
:100B100024F0030008B904B104E040F27B1103A003
:100B200002F0F2FDE0431149086010BD2E2E5C2E4C
:100B30002E5C4C69627261726965735C4854363030
:100B400078785F5374645065726970685F44726945
:100B50007665725C7372635C6874367878785F610E
:100B600065732672616E642E630000003C210140B3
:100B700070B504460025012C07D0022C05D0042CAA
:100B800003D024F0030008B904B104E04FF4AE71BF
:100B900005A002F0B9FD14480068204008B1012505
:100BA00000E00025284670BD2E2E5C2E2E5C4C6980
:100BB000627261726965735C4854363078785F534D
:100BC00074645065726970685F4472697665725CBE
:100BD0007372635C6874367878785F6165732672C7
:100BE000616E642E630000003C21014010B52F4B64
:100BF0005B6803F003012D4BDB6903F0070231B1A1
:100C0000012905D0022906D003294AD128E000BFD6
:100C10004FF4004047E04FF42800254B1B6803F4D5
:100C200040734BB1B3F5807F09D0B3F5007F09D095
:100C3000B3F5407F0CD108E04FF4280009E04FF0F5
:100C4000A87006E04FF0FC7003E04FF4280000E0CD
:100C500000BF00BF154B5B6903F00303D84022E0DF
:100C6000124BDB6903F008036BB1124B1B6803F0F6
:100C70000703A3EBC30303EB43034FF4287404EB14
:100C8000430318040CE00B4B1B6803F00703A3EBB2
:100C9000C30303EB43034FF4287404EB4303D8036B
:100CA00001E0002000BF00BFD04010BD00F00040B8
:100CB00004F2004020FF004010B50D4B1B6803F00C
:100CC00001030C4C54F823204AF25A53084C236079
:100CD000094B184021B123461B6B0343236304E0F7
:100CE000034B1B6B8343024C2363014B1A6010BD03
:100CF00000F00040584F0000FFFF3E0070B5044672
:100D00005F48006800F001005E4951F820502078EB
:100D1000A0B12078012811D0207802280ED02078A8
:100D200012280BD02078222808D02078322805D02D
:100D30002078032802D020780B2800D103E064211A
:100D400051A002F0E1FC6078A0B16078012811D0D8
:100D5000607802280ED0607803280BD060780428D1
:100D600008D06078052805D06078062802D0607821
:100D7000072800D103E0652143A002F0C5FC4AF238
:100D80005A503F490860207800F0080020B9607888
:100D900000F0F700607003E0607840F008006070D9
:100DA00060783749C861207800F00300032819D122
:100DB000207800F0080048B10846C06B40F0010000
:100DC000C8630846C06B40F48070C8632C48C06A92
:100DD00040F010002A49C86202F08AFB83202849AB
:100DE00048602FE0207800F00300022825D1354824
:100DF000006800F44070B0F5007F0FD120484069D2
:100E000000F0030050B91E48C06B40F001001C49BF
:100E1000C8630846C06B40F48070C8631848C06A55
:100E200040F020001649C86220780009486102F0AD
:100E30005FFB82201249486004E0207840F0800087
:100E40000F494860207800F00800B0B91D480068DC
:100E500000F44070B0F5007F04D10948406900F00B
:100E6000030050B10648C06B20F001000449C8637C
:100E70000846C06B20F48070C8630148056070BDEF
:100E800000F00040584F00002E2E5C2E2E5C4C6966
:100E9000627261726965735C4854363078785F536A
:100EA00074645065726970685F4472697665725CDB
:100EB0007372635C6874367878785F636D752E63DF
:100EC0000000000004F2004070B50446012C03D07D
:100ED000082C01D0102C00D104E040F2793106A09A
:100EE00002F012FC13488069204008B1012500E09F
:100EF0000025284670BD00002E2E5C2E2E5C4C690D
:100F0000627261726965735C4854363078785F53F9
:100F100074645065726970685F4472697665725C6A
:100F20007372635C6874367878785F636D752E636E
:100F30000000000000F0004010B50346012A1BD15C
:100F40001148C05C40B911480068114C44F82300B6
:100F500001200D4CE05415E00D4850F823000B4CD7
:100F60002468201A88420DD30020074CE054084C16
:100F700044F82300012010BD0020034CE054044C31
:100F800044F823000020F6E76C0100202400002034
:100F9000EC0000204AF640200149486070470000FC
:100FA0000000014001480068704700002400002054
:100FB000704710B500F0E2FD10BD704770477047F4
:100FC000F2FFFFE72C4A526802F0030131B1012918
:100FD00005D0022906D003294AD128E000BF4FF4EA
:100FE000004047E04FF42800244A126802F440729F
:100FF0004AB1B2F5807F09D0B2F5007F09D0B2F5D1
:10100000407F0CD108E04FF4280009E04FF0A870B1
:1010100006E04FF0FC7003E04FF4280000E000BF52
:1010200000BF154A526902F00302D04022E0124A82
:10103000D26902F008026AB1114A126802F007028E
:10104000A2EBC20202EB42024FF4287303EB42020E
:1010500010040CE00A4A126802F00702A2EBC20276
:1010600002EB42024FF4287303EB4202D00301E08B
:10107000002000BF00BF704700F0004004F20040B5
:1010800020FF004010B50446012C43D0102C41D065
:10109000B4F5807F3ED0B4F5805F3BD0B4F5803F9F
:1010A00038D0B4F5801F35D0B4F1807F32D0B4F1A0
:1010B000805F2FD0022C2DD0202C2BD0B4F5007FB8
:1010C00028D0B4F5005F25D0B4F5003F22D0B4F5A8
:1010D000001F1FD0B4F1007F1CD0B4F1005F19D005
:1010E000042C17D0402C15D0B4F5806F12D0B4F575
:1010F000804F0FD0B4F5802F0CD0B4F5800F09D0FD
:10110000B4F1806F06D0B4F1804F03D004F0883082
:1011100008B904B104E04FF4AD7103A002F0F4FA91
:10112000E0431049486010BD2E2E5C2E2E5C4C69A9
:10113000627261726965735C4854363078785F53C7
:1011400074645065726970685F4472697665725C38
:101150007372635C6874367878785F646D612E634F
:10116000000000000000024070B50446012C43D08E
:10117000102C41D0B4F5807F3ED0B4F5805F3BD0D9
:10118000B4F5803F38D0B4F5801F35D0B4F1807FFE
:1011900032D0B4F1805F2FD0022C2DD0202C2BD058
:1011A000B4F5007F28D0B4F5005F25D0B4F5003F3A
:1011B00022D0B4F5001F1FD0B4F1007F1CD0B4F1D1
:1011C000005F19D0042C17D0402C15D0B4F5806FD7
:1011D00012D0B4F5804F0FD0B4F5802F0CD0B4F5F9
:1011E000800F09D0B4F1806F06D0B4F1804F03D0E6
:1011F00004F0883008B904B104E04FF48D7106A002
:1012000002F082FA13484068204008B1012500E04E
:101210000025284670BD00002E2E5C2E2E5C4C69E9
:10122000627261726965735C4854363078785F53D6
:1012300074645065726970685F4472697665725C47
:101240007372635C6874367878785F646D612E635E
:10125000000000000000024010B50446012C07D039
:10126000022C05D0042C03D024F01F0008B904B1CF
:1012700004E040F23B4104A002F046FA1148406805
:10128000A0431049486010BD2E2E5C2E2E5C4C6988
:10129000627261726965735C4854363078785F5366
:1012A00074645065726970685F4472697665725CD7
:1012B0007372635C6874367878785F6563632E63F5
:1012C0000000000000B0014010B50446012C07D01A
:1012D000022C05D0042C03D024F01F0008B904B15F
:1012E00004E040F21D4105A002F00EFA12484068E9
:1012F000204008B1012010BD0020FCE72E2E5C2EFE
:101300002E5C4C69627261726965735C4854363058
:1013100078785F5374645065726970685F4472696D
:101320007665725C7372635C6874367878785F6532
:1013300063632E630000000000B0014070B50446F6
:10134000B4F5002F2ED0B4F5801F2BD0B4F5001FBC
:1013500028D0B4F5800F25D0B4F5000F22D024F4A6
:101360007F0000B9F4B9B4F5803F1BD0B4F5003F5D
:1013700018D0B4F5802F15D024F47F0000B98CB9B3
:10138000012C0FD0022C0DD0042C0BD0082C09D02E
:10139000102C07D0202C05D0402C03D024F07F0047
:1013A00008B904B104E04FF4CB7107A002F0ACF926
:1013B000C4F3074504F07F04E04312490860E843A2
:1013C00010491031086070BD2E2E5C2E2E5C4C69C9
:1013D000627261726965735C4854363078785F5325
:1013E00074645065726970685F4472697665725C96
:1013F0007372635C6874367878785F657874692E88
:10140000630000000418014070B504460026B4F5DE
:10141000002F2ED0B4F5801F2BD0B4F5001F28D09C
:10142000B4F5800F25D0B4F5000F22D024F47F004E
:1014300000B9F4B9B4F5803F1BD0B4F5003F18D023
:10144000B4F5802F15D024F47F0000B98CB9012C9D
:101450000FD0022C0DD0042C0BD0082C09D0102C4E
:1014600007D0202C05D0402C03D024F07F0008B9F1
:1014700004B104E04FF4927108A002F045F9C4F3FE
:10148000074515480068204000B101261248103079
:101490000068284000B10126304670BD2E2E5C2E1B
:1014A0002E5C4C69627261726965735C48543630B7
:1014B00078785F5374645065726970685F447269CC
:1014C0007665725C7372635C6874367878785F6591
:1014D0007874692E630000000418014070B504465A
:1014E000B4F1006F35D0B4F1805F32D0B4F1005F59
:1014F0002FD0B4F1804F2CD0B4F1004F29D024F07C
:101500007F4000B92CBBB4F1807F22D0B4F1007FC2
:101510001FD0B4F1806F1CD024F07F4000B9C4B953
:10152000B4F5807F15D0B4F5007F12D0B4F5806F8C
:101530000FD0B4F5006F0CD0B4F5805F09D0B4F5CE
:10154000005F06D0B4F5804F03D024F4FE4008B904
:1015500004B104E04FF4B17107A002F0D5F8200EF9
:10156000050204F4FE44E04312490860E8431149CF
:101570001031086070BD00002E2E5C2E2E5C4C6970
:10158000627261726965735C4854363078785F5373
:1015900074645065726970685F4472697665725CE4
:1015A0007372635C6874367878785F657874692ED6
:1015B000630000000418014070B504460026B4F131
:1015C000006F35D0B4F1805F32D0B4F1005F2FD01E
:1015D000B4F1804F2CD0B4F1004F29D024F07F40DB
:1015E00000B92CBBB4F1807F22D0B4F1007F1FD0B2
:1015F000B4F1806F1CD024F07F4000B9C4B9B4F5B9
:10160000807F15D0B4F5007F12D0B4F5806F0FD075
:10161000B4F5006F0CD0B4F5805F09D0B4F5005F6D
:1016200006D0B4F5804F03D024F4FE4008B904B1CD
:1016300003E0E52108A002F067F8200E0502154836
:101640000068204000B10126124810300068284090
:1016500000B10126304670BD2E2E5C2E2E5C4C69EA
:10166000627261726965735C4854363078785F5392
:1016700074645065726970685F4472697665725C03
:101680007372635C6874367878785F657874692EF5
:1016900063000000041801402DE9F04104460D46A6
:1016A0003A48844211D03A4884420ED039488442A4
:1016B0000BD03948844208D03848844205D0384895
:1016C000844202D03748844200D104E040F20D1138
:1016D00035A002F019F8287A10B1287A012800D133
:1016E00004E04FF4877130A002F00EF8687A10B170
:1016F000687A012800D104E040F20F112AA002F01C
:1017000003F8A87A012801D0A87A00B904E040F2D1
:10171000111125A001F0F8FF6068298820EA01076F
:10172000606B298820EA0106686838436060686851
:1017300046EA104060632068298808432060287AC0
:1017400020B9E06829888843E06003E0E0682988E0
:101750000843E060687A20B9206A298888432062BB
:1017600003E0206A298808432062A87A20B9606AC9
:1017700029888843606203E0606A298808436062C0
:10178000A06A29888843A062BDE8F081001001406A
:1017900000110140001201400013014000140140FB
:1017A00000160140001701402E2E5C2E2E5C4C6965
:1017B000627261726965735C4854363078785F5341
:1017C00074645065726970685F4472697665725CB2
:1017D0007372635C6874367878785F6770696F2EAF
:1017E0006300000070B504460D460E48844211D0D7
:1017F0000D4884420ED00D4884420BD00C488442E0
:1018000008D00C48844205D00B48844202D00B48D3
:10181000844200D104E040F2B51109A001F074FF48
:10182000E56170BD0010014000110140001201404F
:101830000013014000140140001601400017014050
:101840002E2E5C2E2E5C4C69627261726965735C2F
:101850004854363078785F537464506572697068A4
:101860005F4472697665725C7372635C6874367823
:1018700078785F6770696F2E6300000070B504466A
:101880000D466548844211D0644884420ED06448B5
:1018900084420BD06348844208D06348844205D018
:1018A0006248844202D06248844200D103E05C2155
:1018B00060A001F029FF6888A8B16888012812D0CB
:1018C000688810280FD0688811280CD06888B0F577
:1018D000887F08D0688840F21111884203D0688858
:1018E000B0F5807F00D103E05D2152A001F00CFF34
:1018F000287910B12879012800D103E05E214DA09C
:1019000001F002FF687910B16879012800D103E085
:101910005F2148A001F0F8FEA879012801D0A8793C
:1019200000B903E0612143A001F0EEFEA87800F0C9
:10193000100088B36888102808D160682988884317
:101940006060606B29888843606320E068881128A4
:1019500008D16068298808436060606B29888843E3
:10196000606314E06888B0F5887F08D160682988D2
:1019700088436060606B29880843606307E06068A3
:10198000298808436060606B298808436063206889
:101990002988084320600FE0FFE7688820B9A06825
:1019A00029888843A06003E0A06829880843A060D4
:1019B0002068298888432060287920B9E068298830
:1019C0008843E06003E0E06829880843E0606879C4
:1019D00020B9206A29888843206203E0206A298888
:1019E00008432062A87920B9606A29888843606228
:1019F00003E0606A2988084360626888B0F5807FE8
:101A000004D1A06A29880843A06203E0A06A29885B
:101A10008843A06270BD0000001001400011014029
:101A20000012014000130140001401400016014063
:101A3000001701402E2E5C2E2E5C4C696272617282
:101A40006965735C4854363078785F5374645065C8
:101A5000726970685F4472697665725C7372635C08
:101A60006874367878785F6770696F2E630000005D
:101A700070B505460C460C48854202D00B4885429D
:101A800000D104E040F2FB1109A001F03DFE14B1C9
:101A90001F2C00D804E04FF4FE7105A001F034FEC5
:101AA000E043A86170BD000000900040008000404D
:101AB0002E2E5C2E2E5C4C69627261726965735CBD
:101AC0004854363078785F53746450657269706832
:101AD0005F4472697665725C7372635C68743678B1
:101AE00078785F7561727426373831362E6300005E
:101AF00070B504460D4600260E48844202D00E48BA
:101B0000844200D104E040F2D5110CA001F0FCFDAC
:101B100015B11F2D00D804E04FF4EB7107A001F0C0
:101B2000F3FDA069284008B1012600E000263046F8
:101B300070BD000000900040008000402E2E5C2E02
:101B40002E5C4C69627261726965735C4854363010
:101B500078785F5374645065726970685F44726925
:101B60007665725C7372635C6874367878785F75DA
:101B700061727426373831362E63000070B5002448
:101B8000FFF734F804464FF47A70B4FBF0F1481EC6
:101B9000B0F1807F00D31BE0481E4FF0E02250617F
:101BA00050170322002804DB93071D0E094B1D5418
:101BB00006E093071E0E084B00F00F052D1F5E5523
:101BC00000BF00204FF0E02290610720106100BFAD
:101BD00070BD000000E400E018ED00E010B5044620
:101BE00024F03F0008B904B104E04FF4107103A0E1
:101BF00001F08AFDE0431049086010BD2E2E5C2ED6
:101C00002E5C4C69627261726965735C485436304F
:101C100078785F5374645065726970685F44726964
:101C20007665725C7372635C6874367878785F701E
:101C30006D752E630000000010F4004070B504467E
:101C4000002524F03F0008B904B104E040F21F2150
:101C500005A001F059FD13480068204008B1012596
:101C600000E00025284670BD2E2E5C2E2E5C4C69AF
:101C7000627261726965735C4854363078785F537C
:101C800074645065726970685F4472697665725CED
:101C90007372635C6874367878785F706D752E63E4
:101CA0000000000010F40040024909688143014A25
:101CB0001160704730F400400146044A12680A403F
:101CC0000AB1012000E000207047000030F400401D
:101CD00070B505460C461348854208D01248854227
:101CE00005D01248854202D01148854200D103E058
:101CF000EE2110A001F008FD012C09D0022C07D024
:101D0000042C05D0082C03D024F00F0008B904B12E
:101D100003E0EF2107A001F0F7FC6868C4B2A868EF
:101D2000C4B270BD00B000400070014000600140CE
:101D300000F001402E2E5C2E2E5C4C6962726172A6
:101D40006965735C4854363078785F5374645065C5
:101D5000726970685F4472697665725C7372635C05
:101D60006874367878785F7370692E6300000000BD
:101D700070B505460C461548854208D01448854282
:101D800005D01448854202D01348854200D103E0B3
:101D9000CB2112A001F0B8FC012C09D0022C07D0F5
:101DA000042C05D0082C03D024F00F0008B904B18E
:101DB00003E0CC2109A001F0A7FC6868204008B12D
:101DC000012600E00026304670BD000000B0004053
:101DD000007001400060014000F001402E2E5C2E9A
:101DE0002E5C4C69627261726965735C485436306E
:101DF00078785F5374645065726970685F44726983
:101E00007665725C7372635C6874367878785F7339
:101E100070692E630000000010B50446012C23D029
:101E2000022C21D0042C1FD0082C1DD0102C1BD02C
:101E3000202C19D0402C17D0802C15D0B4F5807FE1
:101E400012D0B4F5007F0FD0B4F5806F0CD0B4F58C
:101E5000006F09D0B4F5805F06D0B4F5005F03D001
:101E6000A00B800308B904B104E040F2837103A021
:101E700001F04AFCE0431049886010BD2E2E5C2E14
:101E80002E5C4C69627261726965735C48543630CD
:101E900078785F5374645065726970685F447269E2
:101EA0007665725C7372635C6874367878785F7498
:101EB00062732E630000000000E0004070B504462D
:101EC000012C23D0022C21D0042C1FD0082C1DD093
:101ED000102C1BD0202C19D0402C17D0802C15D0C2
:101EE000B4F5807F12D0B4F5007F0FD0B4F5806FC9
:101EF0000CD0B4F5006F09D0B4F5805F06D0B4F50E
:101F0000005F03D0A00B800308B904B104E040F2E5
:101F10004B7106A001F0F8FB13488068204008B11F
:101F2000012500E00025284670BD00002E2E5C2E05
:101F30002E5C4C69627261726965735C485436301C
:101F400078785F5374645065726970685F44726931
:101F50007665725C7372635C6874367878785F74E7
:101F600062732E630000000000E000400248006839
:101F7000401C0149086070472400002070B50546E8
:101F80000C46174885420ED0164885420BD016489D
:101F9000854208D0B5F1402F05D01448854202D0C3
:101FA0001348854200D104E04FF4567111A001F0AE
:101FB000ABFB102C0BD0082C09D0012C07D0022C25
:101FC00005D0042C03D024F01F0008B904B104E0AC
:101FD00040F25E3107A001F097FBE043E86170BD7D
:101FE0000010004000200040003000400090014000
:101FF00000A001402E2E5C2E2E5C4C696272617234
:102000006965735C4854363078785F537464506502
:10201000726970685F4472697665725C7372635C42
:102020006874367878785F74696D65722E63000025
:1020300070B504460D4616461F4884420ED01F4810
:1020400084420BD01E48844208D0B4F1402F05D002
:102050001C48844202D01C48844200D104E040F273
:10206000DD211AA001F050FB012D0BD0022D09D06B
:10207000042D07D025F01F0000B91DB9082D01D08F
:10208000102D00D104E040F2E32110A001F03CFB50
:102090000EB1012E00D104E040F2EB210BA001F0C3
:1020A00033FB0020E0611EB1A0692843A06102E07B
:1020B000A069A843A06170BD00100040002000404E
:1020C000003000400090014000A001402E2E5C2E08
:1020D0002E5C4C69627261726965735C485436307B
:1020E00078785F5374645065726970685F44726990
:1020F0007665725C7372635C6874367878785F7446
:10210000696D65722E63000070B505460C460026A9
:102110001B4885420ED01B4885420BD01A48854289
:1021200008D0B5F1402F05D01848854202D0184894
:10213000854200D104E040F21D3116A001F0E4FA1E
:10214000B4F5807F0DD0102C0BD0082C09D0012CB9
:1021500007D0022C05D0042C03D024F01F0008B9AE
:1021600004B104E040F223310AA001F0CDFAE8699D
:10217000204008B1012600E00026304670BD000076
:10218000001000400020004000300040009001405E
:1021900000A001402E2E5C2E2E5C4C696272617292
:1021A0006965735C4854363078785F537464506561
:1021B000726970685F4472697665725C7372635CA1
:1021C0006874367878785F74696D65722E63000084
:1021D00070B505460C468248854208D08148854244
:1021E00005D08148854202D0B5F1402F00D103E0EF
:1021F0008B217EA001F088FA208888B320880828E7
:102200002ED0208806282BD02088022828D020888D
:10221000122825D02088222822D0208842281FD0AA
:10222000208852281CD02088622819D020880428B1
:1022300016D020880C2813D0208840F6040188424C
:102240000ED0208841F60401884209D0208840F64B
:102250000C01884204D0208841F60C01884200D14C
:1022600003E08E2161A001F04FFAA07828B1A07898
:10227000012802D0A078032800D103E096215BA0BA
:1022800001F042FAA08910B1A089012800D103E031
:102290009A2156A001F038FA207CB8B1207C0128A0
:1022A00014D0207C022811D0207C03280ED0207C62
:1022B00005280BD0207C072808D0207C082805D0D2
:1022C000207C042802D0207C062800D103E09F2136
:1022D00046A001F019FAE08938B1E089B0F5807FB5
:1022E00003D0E089B0F5007F00D103E0A0213FA03A
:1022F00001F00AFA608A10B1608A012800D103E077
:10230000A1213AA001F000FA3548854208D03548AD
:10231000854205D03448854202D0B5F1402F5ED1C8
:10232000286820F001002860E08868602089A860A3
:102330006089686100202861E860E861207800F029
:102340000600022805D1A07800F003002862A088CA
:102350006862A08990B1E86A20F00100E862E86A4A
:1023600040F00100E8622088222802D020886228FC
:1023700008D1E86A20F00100E86203E0E86A20F092
:102380000100E862608A10B3296B21F00F01296314
:10239000296B227C11432963296B21F44071296345
:1023A000296B01F00F00052805D0072803D0062867
:1023B00001D0082802D1296B296303E0296BE28947
:1023C00011432963296B41F40041296303E0286B21
:1023D00020F4004028630126208806432E6070BD4B
:1023E0000010004000200040003000402E2E5C2EE7
:1023F0002E5C4C69627261726965735C4854363058
:1024000078785F5374645065726970685F4472696C
:102410007665725C7372635C6874367878785F7422
:10242000696D65722E63000070B504460D46134851
:10243000844211D0124884420ED0124884420BD0FC
:102440001148844208D01148844205D0B4F1804F2D
:1024500002D00F48844200D104E040F28F110DA059
:1024600001F052F915B13F2D00D804E04FF4C871C6
:1024700008A001F049F9E843606170BD00500040D8
:10248000006000400070004000800040009000406C
:10249000008001402E2E5C2E2E5C4C6962726172AF
:1024A0006965735C4854363078785F53746450655E
:1024B000726970685F4472697665725C7372635C9E
:1024C0006874367878785F7561727426373831367B
:1024D0002E6300002DE9F04104460F4615461948C9
:1024E000844211D0184884420ED0184884420BD040
:1024F0001748844208D01748844205D0B4F1804F71
:1025000002D01548844200D104E04FF49A7113A020
:1025100001F0FAF80DB1012D00D104E040F23511BF
:102520000EA001F0F1F848F20C0007EA00061DB118
:1025300060683043606002E06068B0436060BDE89E
:10254000F08100000050004000600040007000403A
:102550000080004000900040008001402E2E5C2E44
:102560002E5C4C69627261726965735C48543630E6
:1025700078785F5374645065726970685F447269FB
:102580007665725C7372635C6874367878785F75B0
:1025900061727426373831362E63000070B50446F8
:1025A0000D4600261548844211D0154884420ED0AD
:1025B000144884420BD01448844208D01348844203
:1025C00005D0B4F1804F02D01148844200D104E01C
:1025D0004FF4B2710FA001F097F815B13F2D00D85C
:1025E00004E040F265110BA001F08EF8606928400C
:1025F00008B1012600E00026304670BD00500040C2
:1026000000600040007000400080004000900040EA
:10261000008001402E2E5C2E2E5C4C69627261722D
:102620006965735C4854363078785F5374645065DC
:10263000726970685F4472697665725C7372635C1C
:102640006874367878785F756172742637383136F9
:102650002E6300002DE9F04F87B081460C465548A7
:10266000814511D0544881450ED0544881450BD046
:102670005348814508D05348814505D0B9F1804F72
:1026800002D05148814500D103E068214FA001F0FC
:102690003BF85E49A068884200D803E069214BA05E
:1026A00001F032F8207910B12079802800D103E0C0
:1026B0006A2146A001F028F8608818B16088B0F55A
:1026C000807F00D103E06B2140A001F01DF80020C5
:1026D000C9F80000D9F8040000F00C0A6079FF285E
:1026E00014D0607940B16079402805D06079202805
:1026F00002D06079602800D103E0722133A001F09C
:1027000003F84AF0100A607940EA0A0A208840EA91
:102710000A0A608840EA0A0A207940EA0A0A207B0D
:1027200008B14AF0020A607B08B14AF0010AC9F810
:1027300004A0FEF747FC0690A068FDF767FECDE910
:1027400002010698FDF762FE074600224FF0804323
:10275000FDF7EDFDCDE90001DDE90223FDF7E7FD21
:1027600000222B4BCDE90401FDF7DBFD05460E46AB
:1027700028463146FDF757FE83465846FDF746FE8C
:102780002A463346CDE90401FDF7CEFD0746002277
:10279000204BFDF761FE01D80BF1010BC9F80CB01D
:1027A000D9F8300020F00100C9F8300007B0BDE8CA
:1027B000F08F0000005000400060004000700040BA
:1027C0000080004000900040008001402E2E5C2ED2
:1027D0002E5C4C69627261726965735C4854363074
:1027E00078785F5374645065726970685F44726989
:1027F0007665725C7372635C6874367878785F753E
:1028000061727426373831362E63000040787D01BE
:102810000000F03F0000E03F08B5002003460246FC
:10282000042100900548FDF705FF00200123024622
:10283000082100900148FDF7FDFE08BD001201408F
:1028400010B504460E48844211D00E4884420ED082
:102850000D4884420BD00D48844208D00C48844275
:1028600005D0B4F1804F02D00A48844200D104E080
:1028700040F2362108A000F047FF206910BD00009B
:1028800000500040006000400070004000800040A8
:1028900000900040008001402E2E5C2E2E5C4C6982
:1028A000627261726965735C4854363078785F5340
:1028B00074645065726970685F4472697665725CB1
:1028C0007372635C6874367878785F7561727426A9
:1028D000373831362E63000010B500BF4021EFF3CA
:1028E000118081F31188BFF34F8FBFF36F8F00BF4B
:1028F00017490860FEF756FB16490860084600684D
:1029000015490968401A052805D90120134981F89D
:102910004400002008640F4800680F490860104810
:10292000FFF78EFF0D49096C0C4A50541046006C9D
:10293000401C114608640846006C402801D900205C
:1029400008640349086880F3118800BF10BD0000C7
:10295000200000201C00002018000020A4000020FF
:102960000050004070B504460D460E48844211D018
:102970000D4884420ED00D4884420BD00C4884424E
:1029800008D00C48844205D0B4F1804F02D00A48E8
:10299000844200D104E040F21A2108A000F0B4FE05
:1029A000256170BD00500040006000400070004094
:1029B0000080004000900040008001402E2E5C2EE0
:1029C0002E5C4C69627261726965735C4854363082
:1029D00078785F5374645065726970685F44726997
:1029E0007665725C7372635C6874367878785F754C
:1029F00061727426373831362E6300002DE9F047B6
:102A000081460E46174606B117B90020BDE8F0878B
:102A1000B846002400251CE0315D4846FFF7A2FFC0
:102A200001E0681C85B201214846FFF7B7FD18B9DF
:102A30004FF6FF708542F4DB4FF6FF70854201DBF5
:102A40000020E3E7002501214846FFF7EDFC601C6C
:102A500084B24445E0DB0120D8E700001CB501202A
:102A6000ADF80200ADF800008DF8050000208DF8EB
:102A700004008DF8060069460B48FEF7FFFE11E0E2
:102A800001210948FEF7AEFE002009E0002101E027
:102A90004A1C91B24FF6FF729142F9DB411C88B299
:102AA0000F28F3DBECE700000014014010B5FEF73F
:102AB0007FFA10BD10B50120FEF706FA0820FEF7D8
:102AC00003FA1020FEF700FA10BD000030B50246F0
:102AD0001AB312200121002804DB8B071C0E1E4BA9
:102AE0001C5406E08B071D0E1C4B00F00F04241F26
:102AF0001D5500BF122000280DDB00BF00BF00F0F5
:102B00001F030121994043099B0003F1E023C3F80F
:102B1000001100BF00BF00BF1CE01220002817DB1F
:102B200000F01F03012199400D4B440943F8241084
:102B300000BF00BF00BFBFF34F8F00BF00BF00BF8B
:102B400000BF00BF00BFBFF36F8F00BF00BF00BF5B
:102B500000BF00BF30BD000000E400E018ED00E061
:102B600080E100E030B502461AB3092000210028B8
:102B700004DB8B071C0E1E4B1C5406E08B071D0E3E
:102B80001C4B00F00F04241F1D5500BF0920002816
:102B90000DDB00BF00BF00F01F0301219940430976
:102BA0009B0003F1E023C3F8001100BF00BF00BF8A
:102BB0001CE00920002817DB00F01F0301219940C9
:102BC0000D4B440943F8241000BF00BF00BFBFF302
:102BD0004F8F00BF00BF00BF00BF00BF00BFBFF3EB
:102BE0006F8F00BF00BF00BF00BF00BF30BD00003F
:102BF00000E400E018ED00E080E100E010B5012005
:102C0000FFF71CF8012801D1FEF7E8FF0220FFF7CB
:102C100015F8012802D10220FEF7E0FF0420FFF79B
:102C20000DF8012802D10420FEF7D8FF0820FFF795
:102C300005F8012802D10820FEF7D0FF2020FEF77A
:102C4000FDFF012802D12020FEF7C8FF10BD0000C3
:102C500006498968C8B20021044A9160044909689C
:102C6000C8B20021C2F810137047000000C0004035
:102C700010C3004010B501210948FFF779F8012879
:102C800003D101210648FFF723F808210448FFF784
:102C90006FF8012803D108210148FFF719F810BD8A
:102CA00000B0004010B501210948FFF761F8012884
:102CB00003D101210648FFF70BF808210448FFF76C
:102CC00057F8012803D108210148FFF701F810BD8A
:102CD0000070014010B501210948FFF749F80128AB
:102CE00003D101210648FEF7F3FF08210448FFF74E
:102CF0003FF8012803D108210148FEF7E9FF10BD84
:102D00000060014010B501210948FFF731F80128A2
:102D100003D101210648FEF7DBFF08210448FFF735
:102D200027F8012803D108210148FEF7D1FF10BD83
:102D300000F0014010B501F089FE012801D001F03A
:102D400013FD10BD2DE9F04104460F4600254AF25F
:102D50005A5026490860264806682648D0F844019B
:102D6000F143884201D12148066100201F490860D3
:102D7000032C03D00B2C01D0012C2DD10320FEF706
:102D80009BFF01281FD10320FEF78EFFC820FDF70F
:102D9000A3FE0AE01548806920F00100134988610C
:102DA0006420FDF799FE681CC5B20120FEF78CF87F
:102DB000012801D10A2DEDDB0A2D11DA3946204612
:102DC000FDF750FC0CE00120FEF77EF840B93946D3
:102DD0002046FDF747FC03E039462046FDF742FC5C
:102DE0004AF2015004490860BDE8F08100F000405B
:102DF00040C1FF1F00C0FF1F00F6004010B50120BA
:102E0000FFF75CF8012801D1FFF706F80220FFF771
:102E100055F8012802D10220FEF7FEFF0420FFF73B
:102E20004DF8012802D10420FEF7F6FF0820FFF735
:102E300045F8012802D10820FEF7EEFF1020FFF729
:102E40003DF8012802D11020FEF7E6FF2020FFF711
:102E500035F8012802D12020FEF7DEFF8020FFF7A1
:102E60002DF8012802D18020FEF7D6FF4FF48070A4
:102E7000FFF724F8012802D10002FEF7CDFF4FF43E
:102E80000070FFF71BF8012802D14002FEF7C4FFD3
:102E90004FF48060FFF712F8012802D18002FEF79C
:102EA000BBFF4020FFF70AF8012802D14020FEF7BF
:102EB000B3FF4FF40060FFF701F8012802D1C00210
:102EC000FEF7AAFF4FF48050FEF7F8FF012802D169
:102ED0000003FEF7A1FF4FF40050FEF7EFFF0128BB
:102EE00002D14003FEF798FF10BD000010B501218C
:102EF0001648FFF709F9012803D101211348FFF70C
:102F00003DF802211148FFF7FFF8012809D101021D
:102F10000E48FFF7F9F8044602210C48FFF72EF897
:102F200000BF04210948FFF7EFF8012803D104216D
:102F30000648FFF723F808210448FFF7E5F80128C1
:102F400003D108210148FFF719F810BD0010004017
:102F500010B501211648FFF7D7F8012803D1012148
:102F60001348FFF70BF802211148FFF7CDF80128AD
:102F700009D101020E48FFF7C7F8044602210C48A8
:102F8000FEF7FCFF00BF04210948FFF7BDF8012848
:102F900003D104210648FEF7F1FF08210448FFF79A
:102FA000B3F8012803D108210148FEF7E7FF10BD5F
:102FB0000020004010B501211648FFF7A5F80128B0
:102FC00003D101211348FEF7D9FF02211148FFF771
:102FD0009BF8012809D101020E48FFF795F8044635
:102FE00002210C48FEF7CAFF00BF04210948FFF781
:102FF0008BF8012803D104210648FEF7BFFF082102
:103000000448FFF781F8012803D108210148FEF7A1
:10301000B5FF10BD0030004010B501214FF0402039
:10302000FFF772F8012806D1FEF7A0FF01214FF04B
:103030004020FEF7A3FF02214FF04020FFF764F885
:1030400001280BD101024FF04020FFF75DF8044644
:1030500002214FF04020FEF791FF00BF04214FF006
:103060004020FFF751F8012804D104214FF04020FF
:10307000FEF784FF08214FF04020FFF745F80128B4
:1030800004D108214FF04020FEF778FF10BD00006A
:1030900010B501211B48FFF737F8012803D10121A2
:1030A0001848FEF76BFF02211648FFF72DF801289C
:1030B00009D101021348FFF727F8044602211148FD
:1030C000FEF75CFF00BF04210E48FFF71DF8012842
:1030D00003D104210B48FEF751FF08210948FFF7EF
:1030E00013F8012803D108210648FEF747FF1021F5
:1030F0000448FFF709F8012803D110210148FEF721
:103100003DFF10BD0090014010B501211B48FEF7A6
:10311000FBFF012803D101211848FEF72FFF0221F0
:103120001648FEF7F1FF012809D101021348FEF706
:10313000EBFF044602211148FEF720FF00BF0421E7
:103140000E48FEF7E1FF012803D104210B48FEF7EA
:1031500015FF08210948FEF7D7FF012803D10821F0
:103160000648FEF70BFF10210448FEF7CDFF0128AB
:1031700003D110210148FEF701FF10BD00A001405E
:1031800000B585B001210820FDF796FD0620ADF8B9
:1031900000000020ADF80A00ADF80600FDF712FFB0
:1031A000BDF80610491CB0FBF1F04FF47A71B0FB8A
:1031B000F1F0B0FBF1F000EB4001C1EBC0100121D8
:1031C000C1EBC00080B2ADF808000020ADF80C00E3
:1031D000ADF812008DF810004802ADF80E00002086
:1031E000ADF804008DF8020069464FF04020FEF76C
:1031F000EFFF012211464FF04020FEF719FF01209A
:10320000FFF764FC05B000BD10B5FFF7B9FF10BDB6
:1032100010B501210A48FFF7C1F9012803D10121A6
:103220000748FFF701F902210548FFF7B7F9012820
:1032300005D1FFF751FB02210148FFF7F5F810BD5A
:10324000005000401FB501211020FDF735FD002082
:10325000ADF80000ADF802008DF80400FF208DF8F5
:1032600005004FF4E130029001208DF80C008DF83C
:103270000D0069460948FFF7EDF9002204210748CF
:10328000FFF728F9012208210448FFF723F901205C
:10329000FFF768FCFFF7C0FA1FBD000000500040B8
:1032A00010B501210948FFF779F9012803D101215F
:1032B0000648FFF7B9F802210448FFF76FF9012823
:1032C00003D102210148FFF7AFF810BD00600040B4
:1032D00010B501210948FFF761F9012803D1012147
:1032E0000648FFF7A1F802210448FFF757F9012823
:1032F00003D102210148FFF797F810BD007000408C
:1033000010B501211848FFF749F9012803D101211F
:103310001548FFF789F802211348FFF73FF9012804
:1033200003D102211048FFF77FF801210E48FEF774
:10333000DFFB012803D101210B48FEF799FB022195
:103340000948FEF7D5FB012803D102210648FEF704
:103350008FFB04210448FEF7CBFB012803D1042195
:103360000148FEF785FB10BD0080004010B501212B
:103370001848FFF713F9012803D101211548FFF779
:1033800053F802211348FFF709F9012803D102215C
:103390001048FFF749F801210E48FEF7A9FB012864
:1033A00003D101210B48FEF763FB02210948FEF718
:1033B0009FFB012803D102210648FEF759FB042197
:1033C0000448FEF795FB012803D104210148FEF7CC
:1033D0004FFB10BD0090004010B501218807FFF79A
:1033E000DDF8012803D101218007FFF71DF8022134
:1033F0004807FFF7D3F8012803D102218007FFF720
:1034000013F810BD10B501210948FFF7C7F80128CE
:1034100003D101210648FFF707F802210448FFF70E
:10342000BDF8012803D102210148FEF7FDFF10BDC0
:103430000080014010B5FFF705FF00F001F810BD56
:103440000020084981F8440081F84500086400BF65
:1034500004E00021034A1154411CC8B24028F8DBA3
:1034600070470000A400002010B50446B4F84000E6
:1034700082B221460148FFF7C1FA10BD005000405A
:1034800010B5184890F8440001281ED101220521EA
:103490001046FDF751FD012817D100220521FDF747
:1034A0004BFD1048006C10490860084600680F4941
:1034B0000968401A05D10B4981F84400012081F8C0
:1034C00045000948006809490860064890F8450029
:1034D000012806D10348FFF7C7FF0020014981F802
:1034E000450010BDA40000201400002010000020A2
:1034F00010B5FDF767FD04460548C06900F00700F8
:10350000C440A40A00BF201EA4F10104FBD110BDD9
:1035100000F000400FB4054B10B503A9044A02980F
:1035200000F016F810BC5DF814FB00000D37000029
:10353000A000002002E008C8121F08C1002AFAD12A
:103540007047002001E001C1121F002AFBD1704723
:103550002DE9FF4F8BB09A460F460546002606E040
:1035600025280BD052460D9990476D1C761C287863
:103570000028F5D10FB03046BDE8F08F0024A046FA
:103580000122604900E0044315F8013F203B02FAA4
:1035900003F00842F7D128782E2817D115F8010F2B
:1035A00044F004042A280ED06FF02F022878A0F1EE
:1035B000300109290AD808EB880102EB410100EB30
:1035C00001086D1CF2E757F8048B6D1C28786928F8
:1035D0003ED006DC0028CDD063280BD0642804D16F
:1035E00036E0732810D075284BD052460D9990477D
:1035F000761C85E017F8040B8DF8000000208DF88C
:103600000100E946012003E057F8049B4FF0FF302A
:1036100061074FF0000401D40AE0641C44450DDA50
:103620008442FADB19F804100029F6D106E0641C84
:103630008442FCDB19F804100029F8D1264404E088
:1036400019F8010B52460D999047641EF8D257E0C5
:1036500001CF4FF00A0B002802DA40422D2102E090
:10366000210504D52B218DF82410012103E0E10769
:1036700005D02021F7E70DF1200908910CE0002189
:10368000F9E701CF4FF00A0BF9E75946FCF7FCFECA
:1036900001F1300209F8012D0028F6D1ADEB090047
:1036A00000F1200B600701D44FF00108D84502DD7E
:1036B000A8EB0B0000E000208046002406E009A8EB
:1036C0005246005D0D999047641C761C0898844210
:1036D000F5DB04E0302052460D999047761CB8F196
:1036E0000001A8F10108F5DC05E019F8010B5246CC
:1036F0000D999047761CBBF10001ABF1010BF4DC96
:103700006D1C34E70928010000BFFEE713B50C4625
:10371000012269460248FFF771F900981CBD0000BC
:103720000050004000BFFDF735FC4FF4FA7000F088
:10373000C1FEF8E7FDF7C4F900BFFDF72BFC01213E
:103740000348FEF74FF84FF4FA7000F0B3FEF4E7C9
:103750000014014000210320FFF7F4FAFFF754FDA5
:10376000FDF77CF901E0FDF715FCFCE72DE9F041E0
:1037700005460E462648076826480068001D00F0EA
:10378000ABFD50B92348006890F82C100120884008
:1037900021490968814320480160681CD8B9D6B125
:1037A0001E4948681B49096888601A498268096887
:1037B000CA6018490968091D82685160154909687D
:1037C000091D8160154A134909684A611146096853
:1037D000491C11601AE07C190E4800684460BC4224
:1037E00007D20C480168091D0D48006800F098FDDB
:1037F0000CE008480168091D0A48006800F090FDC7
:1038000009480068844201D207480460BDE8F0819D
:103810003C00002028000020400000209C040020E4
:10382000300000202C0000205800002010B5044675
:1038300000F09CFD31480068401C30490860304869
:10384000006840B92E4804600846006801280DD180
:1038500000F0E0F90AE02B48006838B92848006811
:10386000C06AE16A884201D8254804602648006899
:10387000401C2549086008460068606494F82C10D4
:103880000120884021490968084320490860E16A0D
:1038900001EB81011E4A02EB81014868A060826849
:1038A000E260211D826851608160E16A01EB810163
:1038B000174A02EB81026261E16A01EB8101144A5D
:1038C00052F82110491CE26A02EB8202104B43F8C5
:1038D000221000F05DFD0B48006868B108480068E0
:1038E000C06AE16A884207D24FF0805009490860F7
:1038F000BFF34F8FBFF36F8F10BD00003800002063
:103900002800002044000020540000204000002037
:10391000CC01002004ED00E010B500F027FD1048B8
:103920000068D0B90F4800F0EBFC0F4800F0E8FC4D
:103930000C480E4908600C480D490860002210210F
:10394000052000F02BFF064908600846006820B1FA
:1039500008A10348006800F063FD00F019FD10BDE8
:1039600070000020B0040020C40400206800002083
:103970006C000020546D72510000000010B516E07C
:1039800000F0F4FC0C48C068C468201D00F0A4FCE2
:103990000A480068401E0949086009480068401E3E
:1039A0000749086000F0F4FC204600F05FF8044886
:1039B00000680028E4D110BD8804002038000020F1
:1039C0003400002070B504460D46206C70B1216CA7
:1039D000E0680144E160D4E90210884201D3216823
:1039E000E1602846226CE168FCF7D6FB70BD2DE94A
:1039F000F04104460F4615464FF00008A66B206CB8
:103A000048B9206800282CD1A06801F0FDF8804654
:103A10000020A06025E07DB93946226C6068FCF783
:103A2000BBFB216C606808446060D4E901018842F6
:103A300017D32068606014E03946226CE068FCF718
:103A4000ABFB216CE068411AE1602168E0688842C4
:103A500003D2216CA068411AE160022D01D106B1A8
:103A6000761E701CA0634046BDE8F08110B5044688
:103A7000206B00F09DFC204600F09AFC10BD000079
:103A80000146084A126812680AB9012200E00022C1
:103A90000A600A6822B9034A1268D268106800E016
:103AA000002070476800002030B54FF400431748ED
:103AB00000F007042CB1C01D20F00700134C041BBC
:103AC0001B1B0246124C22600024114D6C60D01862
:103AD000083820F007000F4C206000240D4D2D68A1
:103AE0006C600C4D2D682C601146441A4C60094CDA
:103AF00024680C60084D4C682C60084D4C682C60A4
:103B00004FF00044064D2C6030BD0000D80400206A
:103B10008000002088000020900000208C00002001
:103B20009C00002000BFFFF729FF0648006801281D
:103B3000F9D94FF0805004490860BFF34F8FBFF3AD
:103B40006F8FF0E7CC01002004ED00E02DE9F0419B
:103B500006460D4617469846069C0DB9246000E0BF
:103B60002760E66325640121204600F03DFE84F8CD
:103B700050800020A064BDE8F0812DE9F05F81460F
:103B80000E4690469A460A9F0C9C4FEA8801A52251
:103B9000206BFCF713FBA8F10100216B01EB800BFC
:103BA0002BF0070B86B1002507E0715D04F13400AE
:103BB0004155705D00B902E06D1C102DF5D300BFBA
:103BC00000214320015502E0002084F83400202F1A
:103BD00000D31F27E762E76400202065201D00F066
:103BE0009CFB04F1180000F098FB2461C7F1200051
:103BF000A06164620020606584F85800524649461E
:103C0000584600F0F5FA20600B9808B10B98046054
:103C1000BDE8F09F10B5002407E004EB84010F4AD3
:103C200002EB810000F06CFB641C202CF5D30C48E7
:103C300000F066FB0B4800F063FB0B4800F060FBF4
:103C40000A4800F05DFB0A4800F05AFB04480949A5
:103C5000086004480849086010BD0000CC0100203D
:103C60004C0400206004002074040020880400201C
:103C70009C0400202C0000203000002010B50146DC
:103C8000164800E0006803688B42FBD30246436895
:103C900013448B4204D143684C682344436001467B
:103CA0000A464B6813440468A34211D10C4C0368C4
:103CB0002468A34208D04B680468646823444B60BE
:103CC00003681B680B6005E0054B1B680B6001E097
:103CD00003680B60884200D0016010BD80000020A6
:103CE000880000202DE9F04104460D4616461F4687
:103CF0004FF0000865602461B5420CD8F01BA16943
:103D0000884202D34FF0010811E0211D09480068E4
:103D100000F006FB0BE0BE4204D2BD4202D34FF0DE
:103D2000010804E0211D0448006800F0F9FA40464B
:103D3000BDE8F0816C0000206800002070B50546E9
:103D400000F014FBA86B08B9012400E0002400F087
:103D50001FFB204670BDF1B50098846C0026A06B57
:103D6000E16B88421BD294F94550002269462046F7
:103D7000FFF73DFE0646681C60B9606A08B901207D
:103D800000E0002050B904F1240000F093FF28B1B6
:103D9000012603E0681C40B284F8450000BF3046AD
:103DA000F8BD000070B505460E460E480068C068B4
:103DB000C468201D00F090FA94F8280000F0040078
:103DC00028B132462946204600F0D0F805E094F8A4
:103DD000280000F0FE0084F828002046216A884769
:103DE00070BD00006800002070B586B077E00298D2
:103DF000002805DA03AED6E90020B168904700BF7D
:103E0000029800286BDB049C606908B9012000E07F
:103E1000002010B9201D00F05FFA01A800F0D2F8D0
:103E2000054602980A2858D2DFE800F05705072E09
:103E3000364706082F3700BF00BF00BF94F82800A0
:103E400040F0010084F828000398A2698118034615
:103E50002A462046FFF746FFA8B194F8280000F054
:103E6000040038B10398A26981182A46204600F060
:103E70007DF805E094F8280000F0FE0084F82800A2
:103E80002046216A884729E000BF94F8280000F006
:103E9000FE0084F8280021E000BF94F8280040F0DC
:103EA000010084F828000398A061A06941192B46FD
:103EB0002A462046FFF716FF10E094F8280000F08D
:103EC000020018B9204600F073FA05E094F82800C3
:103ED00000F0FE0084F8280000E000BF00BF0022D0
:103EE00002A90448006800F0CFFC00287FF47FAFEF
:103EF00006B070BD70000020F8B505460C4600F015
:103F0000E1FB684600F05EF80646009820BB44B925
:103F1000B54206D800F052FF31462846FFF742FF6F
:103F20001CE03CB10E480068006808B9012000E0C0
:103F300000200446A91B22460A48006800F094FAB3
:103F400000F03CFF50B94FF0805007490860BFF3C4
:103F50004F8FBFF36F8F01E000F030FFF8BD00001E
:103F60006C0000207000002004ED00E070B50446F5
:103F70000D46164604E0A06905442046216A88479C
:103F8000A06941192B4632462046FFF7ABFE0028B8
:103F9000F1D170BD09480068006808B9012000E04F
:103FA000002020B14FF0FF300549086005E00348CC
:103FB0000068C06800680249086070472C00002053
:103FC0005800002070B5044600F050FD0546074833
:103FD0000068854204D200F00BF80120206001E067
:103FE0000020206001480560284670BD7800002050
:103FF00070B508E00D480068C06804684FF0FF31F4
:104000002046FFF7CFFE09480068006808B9012084
:1040100000E000200028EDD004480568044800684E
:10402000024908600248056070BD00006800002079
:104030006C00002000BF402080F31188BFF34F8F39
:10404000BFF36F8F00BF00BFFEE708B500BF684633
:10405000FFF716FD044620460099FFF74DFFFFF7D6
:10406000C3FEF4E770B5044600F080F994F94550BA
:1040700019E0A06C30B12046FFF76DFE88B100F06A
:10408000A9FA0EE0606A08B9012000E0002038B902
:1040900004F1240000F00EFE18B100F09BFA00E0DD
:1040A00003E0681E45B2002DE3DC00BFFF2084F86A
:1040B000450000F06DF900F059F994F9445010E012
:1040C000206908B9012000E0002048B904F110007F
:1040D00000F0F0FD08B100F07DFA681E45B200E086
:1040E00001E0002DECDC00BFFF2084F8440000F06C
:1040F0004FF970BD2DE9F04104464FF0000800F083
:10410000E1FA3548006808B9FFF7CEFC334800688B
:10411000204000285BD1B4B104F10800A04212D9BC
:10412000083404F0070078B104F00700C0F108007B
:104130002044A04205D904F00700C0F1080004445F
:1041400002E0002400E00024002C40D02448006855
:1041500084423CD8234E3046056801E02E462D6847
:104160006868A04202D228680028F7D11A4800687F
:1041700085422CD0306800F10808286830606868F3
:10418000001B102807D92F196868001B78606C6025
:104190003846FFF773FD124968680968081A104924
:1041A00008600846006810490968884203D20C4834
:1041B00000680D4908600949686809680843686033
:1041C0000020286009480068401C0849086000F089
:1041D000F5FD4046BDE8F081880000209C000020ED
:1041E0008C0000208000002090000020940000201F
:1041F000001F4FF080730360001F21F00103036074
:10420000001F034B03601438026020387047000021
:10421000354000001CB5044600F0A8F81248022101
:1042200000238022CDE9001010A1134800F0DEFB2E
:104230001248012100233222CDE9001010A11348B9
:1042400000F0D4FB124800210B463222CDE90010C9
:1042500010A1134800F0CAFB1248006800F044F9AE
:1042600000F096F81CBD0000040000207561727417
:104270005F7461736B000000A94200000800002019
:104280006C6564305F7461736B000000353700004B
:104290000C00002069646C655F7461736B00000042
:1042A0002537000000000020FFF7C4F805A0FFF745
:1042B00031F900BFFCF76EFEFFF7E2F8012000F0D5
:1042C000F9F8F7E736333378204672656552544F74
:1042D000532054657374000001460A69D1E9013026
:1042E0009860D1E9010358605068884201D188681C
:1042F0005060002008611068401E10601068704710
:1043000000F1080141604FF0FF31816000F10801C8
:10431000C1600161002101607047002101617047A7
:1043200010B502460B685C1C0CB9106907E002F17D
:10433000080000E04068446824689C42FAD9446858
:104340004C604C68A160886041600A611468641C1C
:10435000146010BD42684A6093688B60936859602E
:104360009160086103685B1C0360704700BF4020D8
:1043700080F31188BFF34F8FBFF36F8F00BF0348E7
:104380000068401C01490860704700007C00002064
:1043900006480068401E054908600846006820B9C4
:1043A000002080F3118800BF00BF70477C00002010
:1043B00070B506463546FEB1083D2C460F4960688B
:1043C00009680840C0B12068B0B90C496068096844
:1043D0008843606000F076F909496068096808441C
:1043E000074908602046FFF749FC06480068401C62
:1043F0000449086000F0E2FC70BD00009C00002051
:104400008C0000209800002000204FF0E02108617F
:10441000886145F2EF50486107200861704700004D
:1044200010B502460B460021BBB1002012E00D4C36
:1044300004EBC0046468944203D10A4C04EBC0014D
:104440000AE031B9074C54F8304014B9054C04EB7C
:10445000C001401C0828EAD300BF09B10B604A60C4
:1044600010BD00008C0100202DE9F04105460E46EC
:1044700017462C46FFF77AFF94F94400401C10B908
:10448000002084F8440094F94500401C10B9002035
:1044900084F84500FFF77CFFA06B28B93A46314607
:1044A00004F1240000F0ACF82046FFF7DBFDBDE886
:1044B000F081000070B50446002544B100F002F917
:1044C00000212046FFF752F900F078FC05463DB97F
:1044D0004FF0805003490860BFF34F8FBFF36F8FD9
:1044E00070BD000004ED00E070B50546FFF73EFF2B
:1044F00015B92948006800E028460446201DFFF74A
:10450000EBFE78B9E06A00EB8000244951F8200006
:1045100040B994F82C100120884021490968814352
:104520001F480160A06A18B104F11800FFF7D4FE1B
:104530001C480068401C1B490860174800688442FA
:1045400009D1211D1848FFF705FF18480068401CD5
:104550001649086006E016480068401E14490860C5
:10456000FFF718FDFFF714FF0B480068844202D0E4
:104570002046FFF77BFA0F48006858B106480068EC
:10458000844207D14FF080500B490860BFF34F8F32
:10459000BFF36F8F70BD000028000020CC01002009
:1045A0004000002054000020880400203400002037
:1045B000380000204400002004ED00E003490968B1
:1045C0000160034909684160704700005000002005
:1045D0003C00002001200149086070474C00002089
:1045E00070B505460C460548016818312846FFF7A6
:1045F00097FE01212046FFF7B9F870BD2800002082
:1046000070B504460E46154660680F490968C861D2
:104610000D49826809680A620B4909681831826885
:1046200051600949096818318160074909688C623D
:104630002168491C21600DB14FF0FF3629463046F4
:10464000FFF794F870BD0000280000201CB5154845
:1046500000210B468222CDE9001013A1144800F07E
:10466000C5F90446012C02D100F056FC0446012C89
:1046700014D100BF402080F31188BFF34F8FBFF3E8
:104680006F8F00BF4FF0FF300A49086001200A49D0
:10469000086000200949086000F04CF808480068EC
:1046A0001CBD00005C00002049444C450000000097
:1046B000253B000058000020440000203C00002062
:1046C0006000002002480068401C014908607047F3
:1046D000640000201248006818B1012011490860E8
:1046E0001DE000200F4908600F480068B0FA80F014
:1046F000C0F11F0101EB81020C4B03EB8200426809
:104700005268426000F108024368934202D1426855
:10471000526842604268D268054B1A6000BF704719
:10472000640000204C00002040000020CC0100204C
:104730002800002010B50A48006840F440000849ED
:1047400008600846006840F040400860FFF75CFEE3
:10475000002004490860FBF7D7FC002010BD0000D2
:1047600020ED00E07C00002010B500BF402080F369
:104770001188BFF34F8FBFF36F8F00BF00F07CF93C
:1047800018B14FF080500449086000BF002080F34A
:10479000118800BF10BD000004ED00E02DE9F843D2
:1047A00004460E4617460025DCB1681EB0FBF4F047
:1047B000B04216D304FB06F010F1550F11D804FBDC
:1047C00006F909F15400FFF795FC05464DB1A846DE
:1047D00008F154083B464246314620460095FFF713
:1047E000B5F92846BDE8F8832DE9F04105460E46A7
:1047F00001272C46002C41D0E06B00283ED0B91E8A
:10480000E06BB1FBF0F0216C884237D3FFF7AEFDCF
:10481000D4E90F12206801FB0200A0600020A06311
:1048200020686060E06B401E226C216800FB021172
:10483000E160FF2084F8440084F845009EB92069B7
:1048400008B9012000E00020A8B904F1100000F030
:1048500031FA80B14FF080500A490860BFF34F8FA2
:10486000BFF36F8F07E004F11000FFF749FD04F17B
:104870002400FFF745FDFFF78BFD00E000273846D9
:10488000BDE8F08104ED00E02DE9F74183B0054675
:104890000F464FF000082C4600BFFFF767FDA66BE0
:1048A000F6B139462046FFF78DF8701EA0632069E7
:1048B00008B9012000E0002060B904F1100000F008
:1048C000F9F938B14FF080502F490860BFF34F8F8E
:1048D000BFF36F8FFFF75CFD012006B0BDE8F081EC
:1048E000059818B9FFF754FD0020F6E7B8F1000F5E
:1048F00004D101A8FFF762FE4FF00108FFF748FD61
:10490000FFF7E0FEFFF732FD94F94400401C10B9B8
:10491000002084F8440094F94500401C10B90020A0
:1049200084F84500FFF734FD05A901A800F02EF832
:10493000F0B92046FFF702FAA0B104F1240005996E
:10494000FFF74EFE2046FFF78DFB00F037FA0028F8
:10495000A3D14FF080500C490860BFF34F8FBFF3D5
:104960006F8F9AE72046FFF77DFB00F027FA94E768
:104970002046FFF777FB00F021FA2046FFF7DEF92B
:1049800000288AD00020A8E704ED00E070B50646B4
:104990000C46FFF7EBFC134802687068131A206896
:1049A000401C08B9002519E00F49306809688842A1
:1049B00006D07068904203D80125002020600DE0E9
:1049C0002068984207D92068C01A20603046FFF757
:1049D000F5FD002502E0002020600125FFF7D8FC4E
:1049E000284670BD3C000020500000202DE9FF4FFC
:1049F00085B0804689461746DDE912ABB800FFF75F
:104A000079FB064656B15C20FFF774FB04460CB1F7
:104A1000266304E03046FFF7CBFC00E000247CB1C5
:104A20000020CDE900ABCDE902403A464946404678
:104A3000089BFFF7A2F82046FEF7F8FE012501E0EB
:104A40004FF0FF35284609B0BDE8F08F05490968E9
:104A500009B9012005E00449096809B9022000E00C
:104A600000207047440000206400002001490868CD
:104A7000704700003C0000202DE9F0410027574816
:104A8000006800287ED156480068451C54480560DF
:104A90008DB95448D0F800805348006851490860E7
:104AA0005148C0F8008051480068401C4F490860D8
:104AB000FFF770FA00BF4E480068854276D300BF0A
:104AC00048480068006808B9012000E0002020B1D3
:104AD0004FF0FF304649086067E042480068C06810
:104AE000C4686668B54202D2414806605DE060690C
:104AF000D4E902128A60D4E902214A60211D426889
:104B00008A4201D1E1684160002262610168491E68
:104B10000160A06A98B1A06AD4E907128A60D4E95A
:104B200007214A6004F1180142688A4201D1216AD2
:104B300041600022A2620168491E016000BF94F832
:104B40002C10012088402B49096808432949086036
:104B5000E16A01EB8101284A02EB81014868A0600B
:104B60008268E260211D826851608160E16A01EB28
:104B70008101214A02EB81026261E16A01EB81015C
:104B80001D4A00E022E052F82110491CE26A02EBC3
:104B90008202194B43F822101849E06A0968C96A71
:104BA00088428DD301278BE700E000BF13480068DF
:104BB000C06A00EB8000104951F82000012800D99C
:104BC00001270F48006800B1012704E00D48006884
:104BD000401C0C4908603846BDE8F08164000020A4
:104BE0003C0000202C00002030000020500000205D
:104BF0005800002040000020CC01002028000020A8
:104C00004C0000204800002070B505462C460026C8
:104C1000002D48D0206D401E2065E16CE06A88427E
:104C200041D0206D00283ED1201DFFF755FB40B933
:104C300094F82C10012088401C49096881431B48C6
:104C40000160E06CE062E06AC0F12000A06194F8CD
:104C50002C10012088401549096808431349086051
:104C6000E16A01EB8101124A02EB81014868A06010
:104C70008268E260211D826851608160E16A01EB17
:104C800081010B4A02EB81026261E16A01EB810161
:104C9000074A52F82110491CE26A02EB8202044BD7
:104CA00043F822100126304670BD0000400000206D
:104CB000CC01002070B50346D868C168886AD1E984
:104CC0000745A560D1E90754656001F118044568FE
:104CD000A54201D10C6A446000258D620468641EFF
:104CE00004603048006800283DD14869D1E9024598
:104CF000A560D1E9025465600C1D4568A54201D14B
:104D0000CC68446000254D610468641E046091F81D
:104D10002C400120A040244C24682043224C2060D9
:104D2000CC6A04EB8404214D05EB84046068886040
:104D30008568CD600C1D85686C608460CC6A04EB6E
:104D400084041A4D05EB84054D61CC6A04EB8404A0
:104D5000164D55F82440641CCD6A05EB8505134EAD
:104D600046F8254010E0124C6068C86185680D6205
:104D700001F1180485686C6084600D4D8D622C46CD
:104D80002468641C2C6000BF0A4CC86A2468E46A6A
:104D9000A04204D901220120074C206000E000223B
:104DA000104670BD6400002040000020CC010020AF
:104DB00074040020280000204C00002070B500245E
:104DC0000026FFF7D3FA4B480068401E49490860A7
:104DD0000846006800287DD147480068002879D03F
:104DE0005BE04648C068C468A06AD4E907128A60DC
:104DF000D4E907214A6004F1180142688A4201D1CE
:104E0000216A41600022A2620168491E0160606956
:104E1000D4E902128A60D4E902214A60211D426865
:104E20008A4201D1E1684160002262610168491E45
:104E3000016094F82C10012088403149096808432A
:104E40002F490860E16A01EB81012E4A02EB8101E2
:104E50004868A0608268E260211D826851608160BC
:104E6000E16A01EB8101274A02EB81026261E16A9A
:104E700001EB8101234A52F82110491CE26A02EB3E
:104E80008202204B43F822101F49E06A0968C96A70
:104E9000884202D301201D4908601848006808B9FB
:104EA000012000E0002000289BD00CB1FFF772F831
:104EB0001748056865B100BFFFF7DEFD10B101209E
:104EC000124908606D1E002DF6D1002010490860BF
:104ED0000E4800E009E0006838B1012630070D49AE
:104EE0000860BFF34F8FBFF36F8FFFF751FA304663
:104EF00070BD000064000020380000207404002011
:104F000040000020CC010020280000204C000020A0
:104F10004800002004ED00E01CB50024FEF7FCFC76
:104F20000848006858B108481F2100234FF48272D6
:104F3000CDE9001005A10748FFF758FD04462046BB
:104F40001CBD00007000002074000020546D722011
:104F5000537663004B400000000000005AA500009B
:104F6000804F000000000020A40000003435000045
:104F700024500000A4000020348C000042350000C2
:104F80000000000000000000000000000000000021
:104F9000FF00000000000000000000000000000012
:104FA0000000000000000000000000000000000001
:104FB00000000000000000000000000000000000F1
:104FC00000000000000000000000000000000000E1
:104FD00000000000000000000000000000000000D1
:104FE0001F000000000000000000000000000000A2
:104FF000000000000000000000000000AAAAAAAA09
:1050000000000000000000000000000000000000A0
:105010000000000000000000000000000000000090
:04502000000000008C
:04000005000000D126
:00000001FF
