:020000040000FA
:1000000000200020D5000000690F0000490F00000B
:1000100000000000000000000000000000000000E0
:10002000000000000000000000000000C1120000FD
:10003000000000000000000079120000C312000060
:100040007F0F000015010000F70100001B020000F7
:1000500041020000670200008D020000B3020000B0
:10006000D9020000BD140000ED1400001D150000B1
:100070004D150000B9150000251600005D130000A5
:10008000B51300000D14000065140000C712000035
:100090007D1200004D0F000091120000E7000000EB
:1000A000E7000000F501000055010000550F0000B9
:1000B000FF020000270300004F030000E7000000DC
:1000C0000348854600F014F8004800477316000006
:1000D000002000200448804704480047FEE7FEE770
:1000E000FEE7FEE7FEE7FEE7C5120000C1000000E4
:1000F000064C0125064E05E0E36807CC2B430C3C7B
:1001000098471034B442F7D3FFF7DEFF7C160000A7
:100110008C16000010B5012000F0BCFA012801D1B6
:1001200000F07AFA012000F061F9012801D100F015
:1001300023F9022000F05AF9012802D1022000F030
:100140001BF9042000F052F9012802D1042000F02C
:1001500013F910BD10B500F001F810BD10B5012065
:1001600000F00AFA012801D100F0BCF9102000F0DB
:1001700003FA012802D1102000F0B4F9FF20013069
:1001800000F0FAF9012802D1000200F0ABF90220D8
:1001900000F0F2F9012802D1022000F0A3F920209A
:1001A00000F0EAF9012802D1202000F09BF901209B
:1001B000400200F0E1F9012802D1400200F092F97A
:1001C000042000F0D9F9012802D1042000F08AF9B6
:1001D000402000F0D1F9012802D1402000F082F93E
:1001E0000120800200F0C8F9012802D1800200F04D
:1001F00079F910BD704710B5FF20013000F0B0FB59
:10020000012802D1000200F045FB012000F0E0FAD5
:10021000012801D100F082FA10BD10B50120400282
:1002200000F09EFB012802D1400200F033FB0220C7
:1002300000F0CEFA012802D1022000F06FFA10BDC2
:1002400010B50120800200F08BFB012802D1800252
:1002500000F020FB042000F0BBFA012802D10420AA
:1002600000F05CFA10BD10B50120C00200F078FB70
:10027000012802D1C00200F00DFB082000F0A8FA0E
:10028000012802D1082000F049FA10BD10B5012064
:10029000000300F065FB012802D1000300F0FAFA28
:1002A000102000F095FA012802D1102000F036FA53
:1002B00010BD10B50120400300F052FB012802D10F
:1002C000400300F0E7FA202000F082FA012802D172
:1002D000202000F023FA10BD10B50120800300F0AB
:1002E0003FFB012802D1800300F0D4FA402000F047
:1002F0006FFA012802D1402000F010FA10BD10B5AD
:100300000120000600F02CFB012802D1000600F0BD
:10031000C1FA0120000400F05BFA012802D10004B8
:1003200000F0FCF910BD10B50120400600F018FBEC
:10033000012802D1400600F0ADFA0120400400F08F
:1003400047FA012802D1400400F0E8F910BD10B5C9
:100350000120800600F004FB012802D1800600F095
:1003600099FA0120800400F033FA012802D18004B8
:1003700000F0D4F910BD000010B50446012C09D0DE
:10038000022C07D0042C05D0A0088000002802D140
:10039000002C00D004E0FF217C3103A001F067F9BC
:1003A000E0431149C86310BD2E2E5C2E2E5C4C69B3
:1003B000627261726965735C4854363078785F5355
:1003C00074645065726970685F4472697665725CC6
:1003D0007372635C6874367878785F6165732672CF
:1003E000616E642E630000000021014070B5044678
:1003F0000025012C09D0022C07D0042C05D0A00820
:100400008000002802D1002C00D004E0FF215D31E3
:1004100006A001F02CF91548C06B2040002801D03F
:10042000012500E00025284670BD00002E2E5C2E20
:100430002E5C4C69627261726965735C4854363037
:1004400078785F5374645065726970685F4472694C
:100450007665725C7372635C6874367878785F6115
:1004600065732672616E642E6300000000210140F6
:1004700070B50446012C03D0082C01D0102C00D1FB
:1004800003E0074907A001F0F2F815488069204011
:10049000002801D0012500E00025284670BD00009D
:1004A000790300002E2E5C2E2E5C4C696272617204
:1004B0006965735C4854363078785F53746450656E
:1004C000726970685F4472697665725C7372635CAE
:1004D0006874367878785F636D752E63000000006D
:1004E00000F0004010B50446012C19D0022C17D0A2
:1004F000042C15D0102C13D0202C11D0402C0FD050
:10050000FF20013084420BD04000844208D04000DC
:10051000844205D007482040002802D1002C00D09A
:1005200004E0FF215B3104A001F0A1F8E043114990
:10053000486010BD88F8FFFF2E2E5C2E2E5C4C69A3
:10054000627261726965735C4854363078785F53C3
:1005500074645065726970685F4472697665725C34
:100560007372635C6874367878785F646D612E634B
:10057000000000000060014070B50446012C19D055
:10058000022C17D0042C15D0102C13D0202C11D0F5
:10059000402C0FD0FF20013084420BD04000844219
:1005A00008D04000844205D00A482040002802D1EB
:1005B000002C00D004E0FF211B3107A001F057F808
:1005C000144840682040002801D0012500E00025A3
:1005D000284670BD88F8FFFF2E2E5C2E2E5C4C69DD
:1005E000627261726965735C4854363078785F5323
:1005F00074645065726970685F4472697665725C94
:100600007372635C6874367878785F646D612E63AA
:10061000000000000060014010B50446012C0DD020
:10062000022C0BD0042C09D0082C07D0102C05D09C
:1006300060094001002802D1002C00D003E00449E9
:1006400004A001F014F8E0431149486010BD000017
:10065000460200002E2E5C2E2E5C4C696272617286
:100660006965735C4854363078785F5374645065BC
:10067000726970685F4472697665725C7372635CFC
:100680006874367878785F6563632E6300000000D5
:100690000070014070B504460025012C0DD0022CDD
:1006A0000BD0042C09D0082C07D0102C05D06009E1
:1006B0004001002802D1002C00D004E089218900EB
:1006C00006A000F0D4FF144840682040002801D064
:1006D000012500E00025284670BD00002E2E5C2E6E
:1006E0002E5C4C69627261726965735C4854363085
:1006F00078785F5374645065726970685F4472699A
:100700007665725C7372635C6874367878785F655E
:1007100063632E63000000000070014070B5044662
:1007200001200004844221D0400084421ED04000B9
:1007300084421BD00721090420468843002801D1A8
:10074000002C13D1012C11D0022C0FD0042C0DD071
:10075000082C0BD0102C09D0202C07D0402C05D011
:10076000E009C001002802D1002C00D004E0FF21E4
:100770009A3107A000F07BFF072000042040050C01
:100780006406640EE04311494860E843486170BD67
:100790002E2E5C2E2E5C4C69627261726965735CF0
:1007A0004854363078785F53746450657269706865
:1007B0005F4472697665725C7372635C68743678E4
:1007C00078785F657874692E630000000018014036
:1007D00070B50446002601200004844221D0400068
:1007E00084421ED0400084421BD0072109042046C9
:1007F0008843002801D1002C13D1012C11D0022CE8
:100800000FD0042C0DD0082C0BD0102C09D0202C8C
:1008100007D0402C05D0E009C001002802D1002CEF
:1008200000D004E0FF2128310AA000F020FF0720BB
:1008300000042040050C164840682040002800D0E5
:100840000126134840692840002800D00126304680
:1008500070BD00002E2E5C2E2E5C4C69627261729F
:100860006965735C4854363078785F5374645065BA
:10087000726970685F4472697665725C7372635CFA
:100880006874367878785F657874692E6300000044
:100890000018014070B504460120000684422BD0A8
:1008A0004000844228D04000844225D00721090618
:1008B00020468843002801D1002C1DD1FF200130A3
:1008C000844219D04000844216D04000844213D0A4
:1008D0004000844210D0400084420DD04000844249
:1008E0000AD04000844207D07F2109022046884375
:1008F000002802D1002C00D004E0FF21663108A0BE
:1009000000F0B5FE072000062040050C7F20000205
:100910000440E04311494860E843486170BD00006D
:100920002E2E5C2E2E5C4C69627261726965735C5E
:100930004854363078785F537464506572697068D3
:100940005F4472697665725C7372635C6874367852
:1009500078785F657874692E6300000000180140A4
:1009600070B5044600260120000684422BD04000CA
:10097000844228D04000844225D007210906204621
:100980008843002801D1002C1DD1FF200130844272
:1009900019D04000844216D04000844213D0400059
:1009A000844210D0400084420DD0400084420AD0DE
:1009B0004000844207D07F21090220468843002856
:1009C00002D1002C00D003E0E8210AA000F04FFE85
:1009D000072000062040050C1548406820400028EC
:1009E00000D00126124840692840002800D0012686
:1009F000304670BD2E2E5C2E2E5C4C696272617288
:100A00006965735C4854363078785F537464506518
:100A1000726970685F4472697665725C7372635C58
:100A20006874367878785F657874692E63000000A2
:100A300000180140014802494860704740AA000080
:100A4000000001407047000070B505460C460C4898
:100A5000854202D00B48854200D104E0FF21FC31E1
:100A600009A000F004FE002C02D01F2C00D804E0E6
:100A7000FF21FD3104A000F0FAFDE043A86170BD44
:100A800000900040008000402E2E5C2E2E5C4C69B1
:100A9000627261726965735C4854363078785F536E
:100AA00074645065726970685F4472697665725CDF
:100AB0007372635C6874367878785F7561727426D7
:100AC000373831362E63000070B504460D460026D7
:100AD0000F48844202D00F48844200D104E0FF2135
:100AE000D6310DA000F0C3FD002D02D01F2D00D87F
:100AF00004E0FF21D73108A000F0B9FDA06928402B
:100B0000002801D0012600E00026304670BD00001C
:100B100000900040008000402E2E5C2E2E5C4C6920
:100B2000627261726965735C4854363078785F53DD
:100B300074645065726970685F4472697665725C4E
:100B40007372635C6874367878785F756172742646
:100B5000373831362E63000010B50446012C00D121
:100B600004E0FF215C3103A000F081FDE043114966
:100B7000486010BD2E2E5C2E2E5C4C696272617234
:100B80006965735C4854363078785F537464506597
:100B9000726970685F4472697665725C7372635CD7
:100BA0006874353031785F6B65797363616E2E637D
:100BB000000000000040014070B50446012C00D147
:100BC00004E0FF213D3106A000F051FD14484068CB
:100BD0002040002801D0012500E00025284670BDF6
:100BE0002E2E5C2E2E5C4C69627261726965735C9C
:100BF0004854363078785F53746450657269706811
:100C00005F4472697665725C7372635C68743530D8
:100C100031785F6B65797363616E2E63000000004D
:100C20000040014010B5044620090001002802D10F
:100C3000002C00D004E00921890103A000F017FD79
:100C4000E0431049086110BD2E2E5C2E2E5C4C69CD
:100C5000627261726965735C4854363078785F53AC
:100C600074645065726970685F4472697665725C1D
:100C70007372635C6874367878785F706D752E6314
:100C80000000000000F4004070B504460025200973
:100C90000001002802D1002C00D003E0064907A083
:100CA00000F0E5FC144800692040002801D001252F
:100CB00000E00025284670BD1F0200002E2E5C2E8D
:100CC0002E5C4C69627261726965735C485436309F
:100CD00078785F5374645065726970685F447269B4
:100CE0007665725C7372635C6874367878785F706E
:100CF0006D752E630000000000F4004070B50546DD
:100D00000C461048854200D103E0EE210EA000F011
:100D1000AEFC012C0BD0022C09D0042C07D0082CDF
:100D200005D020090001002802D1002C00D003E0EA
:100D3000EF2105A000F09BFC6868C4B2A868C4B2AB
:100D400070BD000000B000402E2E5C2E2E5C4C6961
:100D5000627261726965735C4854363078785F53AB
:100D600074645065726970685F4472697665725C1C
:100D70007372635C6874367878785F7370692E6319
:100D80000000000070B505460C461248854200D1AF
:100D900003E0CB2110A000F06AFC012C0BD0022C48
:100DA00009D0042C07D0082C05D020090001002808
:100DB00002D1002C00D003E0CC2107A000F057FCAA
:100DC00068682040002801D0012600E00026304657
:100DD00070BD000000B000402E2E5C2E2E5C4C69D1
:100DE000627261726965735C4854363078785F531B
:100DF00074645065726970685F4472697665725C8C
:100E00007372635C6874367878785F7370692E6388
:100E10000000000010B50446012C18D0022C16D09A
:100E2000082C14D0102C12D0402C10D0042C0ED032
:100E3000202C0CD0FF200130844208D04000844296
:100E400005D007482040002802D1002C00D003E044
:100E5000044905A000F00BFCE0431249C86010BD36
:100E600080FCFFFF830700002E2E5C2E2E5C4C6959
:100E7000627261726965735C4854363078785F538A
:100E800074645065726970685F4472697665725CFB
:100E90007372635C6874367878785F7462732E63FB
:100EA0000000000000E0004070B50446012C18D09E
:100EB000022C16D0082C14D0102C12D0402C10D09C
:100EC000042C0ED0202C0CD0FF200130844208D0FE
:100ED0004000844205D00A482040002802D1002C5E
:100EE00000D003E0074908A000F0C1FB1548C06826
:100EF0002040002801D0012500E00025284670BDD3
:100F000080FCFFFF4B0700002E2E5C2E2E5C4C69F0
:100F1000627261726965735C4854363078785F53E9
:100F200074645065726970685F4472697665725C5A
:100F30007372635C6874367878785F7462732E635A
:100F40000000000000E0004000BFFEE710B5FFF722
:100F500079FD10BD10B50120FFF72EFE002802D04C
:100F60000120FFF7F9FD10BD10B50120FFF780FA51
:100F70000820FFF77DFA1020FFF77AFA10BD10B5B0
:100F80000120FFF781FE012801D1FFF74BFE02206F
:100F9000FFF77AFE012802D10220FFF743FE04206A
:100FA000FFF772FE012802D10420FFF73BFE082064
:100FB000FFF76AFE012802D10820FFF733FE10BDBB
:100FC000F2FFFFFF70B505460C461448854208D075
:100FD0001348854205D01348854202D01248854205
:100FE00000D103E0114912A000F041FB082C0BD006
:100FF000012C09D0022C07D0042C05D020090001B7
:10100000002802D1002C00D004E01B21490108A0D7
:1010100000F02DFBE043E86170BD000000100040CF
:101020000020004000300040004000405A03000013
:101030002E2E5C2E2E5C4C69627261726965735C47
:101040004854363078785F537464506572697068BC
:101050005F4472697665725C7372635C687436783B
:1010600078785F74696D65722E63000070B505460F
:101070000C4600261648854208D01648854205D001
:101080001548854202D01548854200D103E0144935
:1010900014A000F0ECFA082C0BD0012C09D0022C83
:1010A00007D0042C05D020090001002802D1002C13
:1010B00000D004E00A49891D0AA000F0D8FAE869C6
:1010C0002040002801D0012600E00026304670BDF7
:1010D0000010004000200040003000400040004070
:1010E0001F0300002E2E5C2E2E5C4C696272617212
:1010F0006965735C4854363078785F537464506522
:10110000726970685F4472697665725C7372635C61
:101110006874367878785F74696D65722E63000044
:1011200070B504460D46124884420ED011488442E0
:101130000BD01148844208D01048844205D0104892
:10114000844202D08004844200D104E0FF21903127
:101150000CA000F08CFA002D02D0072D00D804E07E
:10116000FF21913107A000F082FAE843606170BD71
:1011700000500040006000400070004000800040CF
:10118000009000402E2E5C2E2E5C4C6962726172C3
:101190006965735C4854363078785F537464506581
:1011A000726970685F4472697665725C7372635CC1
:1011B0006874367878785F7561727426373831369E
:1011C0002E63000070B504460D4600261548844283
:1011D0000ED0154884420BD01448844208D01448DD
:1011E000844205D01348844202D08004844200D156
:1011F00004E0FF21653110A000F039FA002D02D083
:10120000072D00D804E0FF2166310BA000F02FFA73
:1012100060692840002801D0012600E00026304601
:1012200070BD0000005000400060004000700040B1
:1012300000800040009000402E2E5C2E2E5C4C69F9
:10124000627261726965735C4854363078785F53B6
:1012500074645065726970685F4472697665725C27
:101260007372635C6874367878785F75617274261F
:10127000373831362E630000704700000349896813
:10128000C8B20021014A91607047000000C00040D0
:1012900010B501210948FFF775FD012803D101218F
:1012A0000648FFF72BFD08210448FFF76BFD0128D6
:1012B00003D108210148FFF721FD10BD00B0004017
:1012C00070477047704710B50120FFF7EDFD01280A
:1012D00001D1FFF79FFD0220FFF7E6FD012802D1B3
:1012E0000220FFF797FD0820FFF7DEFD012802D15D
:1012F0000820FFF78FFD1020FFF7D6FD012802D14F
:101300001020FFF787FD4020FFF7CEFD012802D116
:101310004020FFF77FFD0420FFF7C6FD012802D122
:101320000420FFF777FD2020FFF7BEFD012802D142
:101330002020FFF76FFDFF200130FFF7B5FD0128EA
:1013400002D10002FFF766FD01204002FFF7ACFD6D
:10135000012802D14002FFF75DFD10BD10B501214B
:101360001348FFF783FE012803D101211048FFF73E
:1013700029FE02210E48FFF779FE012803D1022140
:101380000B48FFF71FFE04210948FFF76FFE0128F5
:1013900003D104210648FFF715FE08210448FFF792
:1013A00065FE012803D108210148FFF70BFE10BD9F
:1013B0000010004010B501211348FFF757FE012827
:1013C00003D101211048FFF7FDFD02210E48FFF770
:1013D0004DFE012803D102210B48FFF7F3FD042144
:1013E0000948FFF743FE012803D104210648FFF70F
:1013F000E9FD08210448FFF739FE012803D108213F
:101400000148FFF7DFFD10BD0020004010B50121AD
:101410001348FFF72BFE012803D101211048FFF7E5
:10142000D1FD02210E48FFF721FE012803D1022140
:101430000B48FFF7C7FD04210948FFF717FE0128F5
:1014400003D104210648FFF7BDFD08210448FFF73A
:101450000DFE012803D108210148FFF7B3FD10BD9F
:101460000030004010B501211348FFF7FFFD0128AF
:1014700003D101211048FFF7A5FD02210E48FFF717
:10148000F5FD012803D102210B48FFF79BFD042144
:101490000948FFF7EBFD012803D104210648FFF7B7
:1014A00091FD08210448FFF7E1FD012803D108213F
:1014B0000148FFF787FD10BD0040004010B5012135
:1014C0000948FFF77FFE012803D101210648FFF7F5
:1014D00027FE02210448FFF775FE012803D10221EF
:1014E0000148FFF71DFE10BD0050004010B501215E
:1014F0000948FFF767FE012803D101210648FFF7DD
:101500000FFE02210448FFF75DFE012803D10221EE
:101510000148FFF705FE10BD0060004010B5012135
:101520000948FFF74FFE012803D101210648FFF7C4
:10153000F7FD02210448FFF745FE012803D10221EF
:101540000148FFF7EDFD10BD0070004010B501210E
:101550001848FFF737FE012803D101211548FFF78E
:10156000DFFD02211348FFF72DFE012803D10221E0
:101570001048FFF7D5FD01210E48FFF7A5FA012815
:1015800003D101210B48FFF75FFA02210948FFF759
:101590009BFA012803D102210648FFF755FA0421DE
:1015A0000448FFF791FA012803D104210148FFF70D
:1015B0004BFA10BD0080004010B501211848FFF71C
:1015C00001FE012803D101211548FFF7A9FD0221E1
:1015D0001348FFF7F7FD012803D102211048FFF758
:1015E0009FFD01210E48FFF76FFA012803D1012169
:1015F0000B48FFF729FA02210948FFF765FA01288D
:1016000003D102210648FFF71FFA04210448FFF71F
:101610005BFA012803D104210148FFF715FA10BD38
:101620000090004010B501218807FFF7CBFD01288D
:1016300003D101218007FFF773FD02214807FFF75F
:10164000C1FD012803D102218007FFF769FD10BD0C
:1016500002E008C8121F08C1002AFAD1704770477B
:10166000002001E001C1121F002AFBD1704700BF1A
:10167000FEE701E0FFF7DEF9FCE700008C16000052
:0C168000000000200020000060160000A8
:04000005000000C136
:00000001FF
