:020000040000FA
:1000000000200020D5000000210F0000150F000087
:1000100000000000000000000000000000000000E0
:10002000000000000000000000000000251000009B
:100030000000000000000000790F000029100000FF
:10004000370F0000E7000000B5010000D9010000F3
:10005000FF010000250200004B02000071020000B9
:1000600097020000E5120000151300004513000080
:1000700075130000E11300004D140000D5100000BE
:100080002D11000085110000DD1100002D10000071
:100090007D0F0000190F0000910F0000C50F000038
:1000A00027100000351200008D120000F50F00002F
:1000B000BD020000E5020000E7000000150100009D
:1000C0000348854600F014F8004800479B140000E0
:1000D000002000200448804704480047FEE7FEE770
:1000E000FEE7FEE7FEE7FEE72B100000C100000080
:1000F000064C0125064E05E0E36807CC2B430C3C7B
:1001000098471034B442F7D3FFF7DEFFA414000081
:10011000B414000010B500F001F810BD10B50120B6
:1001200000F078F9012801D100F02AF9102000F040
:1001300071F9012802D1102000F022F9FF200130CE
:1001400000F068F9012802D1000200F019F902203C
:1001500000F060F9012802D1022000F011F92020FE
:1001600000F058F9012802D1202000F009F90120FF
:10017000400200F04FF9012802D1400200F000F9DE
:10018000042000F047F9012802D1042000F0F8F81B
:10019000402000F03FF9012802D1402000F0F0F8A3
:1001A0000120800200F036F9012802D1800200F01F
:1001B000E7F810BD10B5FF20013000F09DFA0128CE
:1001C00002D1000200F032FA012000F0CDF901283E
:1001D00001D100F06FF910BD10B50120400200F010
:1001E0008BFA012802D1400200F020FA022000F030
:1001F000BBF9012802D1022000F05CF910BD10B556
:100200000120800200F078FA012802D1800200F07B
:100210000DFA042000F0A8F9012802D1042000F012
:1002200049F910BD10B50120C00200F065FA01289F
:1002300002D1C00200F0FAF9082000F095F9012877
:1002400002D1082000F036F910BD10B501200003DE
:1002500000F052FA012802D1000300F0E7F9102063
:1002600000F082F9012802D1102000F023F910BD1E
:1002700010B50120400300F03FFA012802D14003ED
:1002800000F0D4F9202000F06FF9012802D12020DD
:1002900000F010F910BD10B50120800300F02CFA19
:1002A000012802D1800300F0C1F9402000F05CF980
:1002B000012802D1402000F0FDF810BD10B501204A
:1002C000000600F019FA012802D1000600F0AEF98C
:1002D0000120000400F048F9012802D1000400F0D8
:1002E000E9F810BD10B50120400600F005FA01281C
:1002F00002D1400600F09AF90120400400F034F9E0
:10030000012802D1400400F0D5F810BD70B50446B4
:10031000012C03D0082C01D0102C00D103E0074998
:1003200007A001F0B8F8154880692040002801D0E6
:10033000012500E00025284670BD0000790300007B
:100340002E2E5C2E2E5C4C69627261726965735C44
:100350004854363078785F537464506572697068B9
:100360005F4472697665725C7372635C6874367838
:1003700078785F636D752E630000000000F0004028
:1003800010B50446012C19D0022C17D0042C15D01E
:10039000102C13D0202C11D0402C0FD0FF20013076
:1003A00084420BD04000844208D04000844205D0F3
:1003B00007482040002802D1002C00D004E0FF2193
:1003C0005B3104A001F067F8E0431149486010BDBB
:1003D00088F8FFFF2E2E5C2E2E5C4C6962726172D3
:1003E0006965735C4854363078785F53746450653F
:1003F000726970685F4472697665725C7372635C7F
:100400006874367878785F646D612E630000000050
:100410000000024070B50446012C19D0022C17D000
:10042000042C15D0102C13D0202C11D0402C0FD020
:10043000FF20013084420BD04000844208D04000AD
:10044000844205D00A482040002802D1002C00D068
:1004500004E0FF211B3107A001F01DF8144840689B
:100460002040002801D0012500E00025284670BD6D
:1004700088F8FFFF2E2E5C2E2E5C4C696272617232
:100480006965735C4854363078785F53746450659E
:10049000726970685F4472697665725C7372635CDE
:1004A0006874367878785F646D612E6300000000B0
:1004B0000000024070B5044601200004844221D0AF
:1004C000400084421ED0400084421BD00721090412
:1004D00020468843002801D1002C13D1012C11D0D3
:1004E000022C0FD0042C0DD0082C0BD0102C09D0CE
:1004F000202C07D0402C05D0E009C001002802D1F3
:10050000002C00D004E0FF219A3107A000F0C3FFC7
:10051000072000042040050C6406640EE0431149E6
:100520004860E843486170BD2E2E5C2E2E5C4C69FD
:10053000627261726965735C4854363078785F53D3
:1005400074645065726970685F4472697665725C44
:100550007372635C6874367878785F657874692E36
:10056000630000000018014070B504460026012019
:100570000004844221D0400084421ED040008442C6
:100580001BD00721090420468843002801D1002CF4
:1005900013D1012C11D0022C0FD0042C0DD0082C1B
:1005A0000BD0102C09D0202C07D0402C05D0E0090E
:1005B000C001002802D1002C00D004E0FF21283126
:1005C0000AA000F068FF072000042040050C164830
:1005D00040682040002800D0012613484069284088
:1005E000002800D00126304670BD00002E2E5C2E63
:1005F0002E5C4C69627261726965735C4854363076
:1006000078785F5374645065726970685F4472698A
:100610007665725C7372635C6874367878785F654F
:100620007874692E630000000018014070B504461C
:100630000120000684422BD04000844228D0400094
:10064000844225D00721090620468843002801D18D
:10065000002C1DD1FF200130844219D0400084427B
:1006600016D04000844213D04000844210D0400095
:1006700084420DD0400084420AD04000844207D01A
:100680007F21090220468843002802D1002C00D097
:1006900004E0FF21663108A000F0FDFE07200006FF
:1006A0002040050C7F2000020440E04311494860CF
:1006B000E843486170BD00002E2E5C2E2E5C4C6914
:1006C000627261726965735C4854363078785F5342
:1006D00074645065726970685F4472697665725CB3
:1006E0007372635C6874367878785F657874692EA5
:1006F000630000000018014070B504460026012088
:10070000000684422BD04000844228D0400084421E
:1007100025D00721090620468843002801D1002C56
:100720001DD1FF200130844219D04000844216D0F0
:100730004000844213D04000844210D040008442E4
:100740000DD0400084420AD04000844207D07F216F
:10075000090220468843002802D1002C00D003E083
:10076000E8210AA000F097FE072000062040050CB3
:10077000154840682040002800D0012612484069F2
:100780002840002800D00126304670BD2E2E5C2E59
:100790002E5C4C69627261726965735C48543630D4
:1007A00078785F5374645065726970685F447269E9
:1007B0007665725C7372635C6874367878785F65AE
:1007C0007874692E63000000001801400148024956
:1007D0004860704740AA00000000014070470000D8
:1007E00070B505460C460C48854202D00B48854240
:1007F00000D104E0FF21FC3109A000F04CFE002CE8
:1008000002D01F2C00D804E0FF21FD3104A000F02D
:1008100042FEE043A86170BD0090004000800040AF
:100820002E2E5C2E2E5C4C69627261726965735C5F
:100830004854363078785F537464506572697068D4
:100840005F4472697665725C7372635C6874367853
:1008500078785F7561727426373831362E63000000
:1008600070B504460D4600260F48844202D00F485A
:10087000844200D104E0FF21D6310DA000F00BFE30
:10088000002D02D01F2D00D804E0FF21D73108A091
:1008900000F001FEA0692840002801D0012600E0F8
:1008A0000026304670BD00000090004000800040EF
:1008B0002E2E5C2E2E5C4C69627261726965735CCF
:1008C0004854363078785F53746450657269706844
:1008D0005F4472697665725C7372635C68743678C3
:1008E00078785F7561727426373831362E63000070
:1008F00010B5044620090001002802D1002C00D0C8
:1009000004E00921890103A000F0C5FDE04310497E
:10091000086110BD2E2E5C2E2E5C4C6962726172D5
:100920006965735C4854363078785F5374645065F9
:10093000726970685F4472697665725C7372635C39
:100940006874367878785F706D752E6300000000EB
:1009500000F4004070B5044600252009000100287D
:1009600002D1002C00D003E0064907A000F093FD5F
:10097000144800692040002801D0012500E000252E
:10098000284670BD1F0200002E2E5C2E2E5C4C6986
:10099000627261726965735C4854363078785F536F
:1009A00074645065726970685F4472697665725CE0
:1009B0007372635C6874367878785F706D752E63D7
:1009C0000000000000F4004070B505460C461348D6
:1009D000854205D01248854202D01248854200D196
:1009E00003E0EE2110A000F056FD012C0BD0022CEC
:1009F00009D0042C07D0082C05D0200900010028BC
:100A000002D1002C00D003E0EF2107A000F043FD4D
:100A10006868C4B2A868C4B270BD000000B00040ED
:100A200000700140005001402E2E5C2E2E5C4C695F
:100A3000627261726965735C4854363078785F53CE
:100A400074645065726970685F4472697665725C3F
:100A50007372635C6874367878785F7370692E633C
:100A60000000000070B505460C461548854205D0CB
:100A70001448854202D01448854200D103E0CB21BE
:100A800012A000F008FD012C0BD0022C09D0042C80
:100A900007D0082C05D020090001002802D1002C25
:100AA00000D003E0CC2109A000F0F5FC68682040EC
:100AB000002801D0012600E00026304670BD00006D
:100AC00000B0004000700140005001402E2E5C2E0E
:100AD0002E5C4C69627261726965735C4854363091
:100AE00078785F5374645065726970685F447269A6
:100AF0007665725C7372635C6874367878785F735D
:100B000070692E630000000010B50446012C1AD055
:100B1000022C18D0042C16D0082C14D0102C12D073
:100B2000202C10D0402C0ED0802C0CD0FF20013077
:100B3000844208D04000844205D0A00A80020028E8
:100B400002D1002C00D003E0034904A000F0A3FC74
:100B5000E0431149886010BD830700002E2E5C2EF3
:100B60002E5C4C69627261726965735C4854363000
:100B700078785F5374645065726970685F44726915
:100B80007665725C7372635C6874367878785F74CB
:100B900062732E630000000000E0004070B5044660
:100BA000012C1AD0022C18D0042C16D0082C14D0EA
:100BB000102C12D0202C10D0402C0ED0802C0CD019
:100BC000FF200130844208D04000844205D0A00AB2
:100BD0008002002802D1002C00D003E0064907A0C3
:100BE00000F059FC144880682040002801D00125FD
:100BF00000E00025284670BD4B0700002E2E5C2E1D
:100C00002E5C4C69627261726965735C485436305F
:100C100078785F5374645065726970685F44726974
:100C20007665725C7372635C6874367878785F742A
:100C300062732E630000000000E0004070B50546BE
:100C40000C46174885420ED0164885420BD01648F0
:100C5000854208D01548854205D01548854202D006
:100C60001448854200D104E06B21C90012A000F0B5
:100C700012FC082C0BD0012C09D0022C07D0042C1C
:100C800005D020090001002802D1002C00D004E08A
:100C90001B21490108A000F0FEFBE043E86170BDA4
:100CA00000100040002000400030004000400040A4
:100CB0000090014000A001402E2E5C2E2E5C4C695D
:100CC000627261726965735C4854363078785F533C
:100CD00074645065726970685F4472697665725CAD
:100CE0007372635C6874367878785F74696D657266
:100CF0002E63000070B504460D4600261948844254
:100D00000ED0194884420BD01848844208D01848A5
:100D1000844205D01748844202D01748844200D14B
:100D200003E0164916A000F0B6FB082D0BD0012DEC
:100D300009D0022D07D0042D05D028090001002874
:100D400002D1002D00D004E00C4908310CA000F0C5
:100D5000A2FBE0692840002801D0012600E000261F
:100D6000304670BD001000400020004000300040C0
:100D7000004000400090014000A001401D03000021
:100D80002E2E5C2E2E5C4C69627261726965735CFA
:100D90004854363078785F5374645065726970686F
:100DA0005F4472697665725C7372635C68743678EE
:100DB00078785F74696D65722E63000070B50446C3
:100DC0000D46124884420ED0114884420BD011487F
:100DD000844208D01048844205D01048844202D092
:100DE0008004844200D104E0FF2190310CA000F087
:100DF00052FB002D02D01F2D00D804E0FF219131BD
:100E000007A000F048FBE843606170BD005000405F
:100E100000600040007000400080004000900040F2
:100E20002E2E5C2E2E5C4C69627261726965735C59
:100E30004854363078785F537464506572697068CE
:100E40005F4472697665725C7372635C687436784D
:100E500078785F7561727426373831362E630000FA
:100E600070B504460D460026154884420ED015483C
:100E700084420BD01448844208D01448844205D0E0
:100E80001348844202D08004844200D104E0FF2150
:100E9000653110A000F0FFFA002D02D01F2D00D800
:100EA00004E0FF2166310BA000F0F5FA60692840EC
:100EB000002801D0012600E00026304670BD000069
:100EC0000050004000600040007000400080004082
:100ED000009000402E2E5C2E2E5C4C696272617276
:100EE0006965735C4854363078785F537464506534
:100EF000726970685F4472697665725C7372635C74
:100F00006874367878785F75617274263738313650
:100F10002E63000000BFFEE710B5FFF75FFC10BDB9
:100F200010B50120FFF7F2F90820FFF7EFF91020C4
:100F3000FFF7ECF910BD10B50120FFF70BFD0128FC
:100F400001D1FFF7D5FC0220FFF704FD012802D1F3
:100F50000220FFF7CDFC0420FFF7FCFC012802D1A2
:100F60000420FFF7C5FC0820FFF7F4FC012802D19C
:100F70000820FFF7BDFC10BD7047000003498968D9
:100F8000C8B20021014A91607047000000C00040D3
:100F900010B501210948FFF765FD012803D10121A2
:100FA0000648FFF711FD08210448FFF75BFD012803
:100FB00003D108210148FFF707FD10BD00B0004034
:100FC000A2FFFFF710B501210948FFF74BFD0128EB
:100FD00003D101210648FFF7F7FC08210448FFF779
:100FE00041FD012803D108210148FFF7EDFC10BDA8
:100FF0000070014010B501210948FFF733FD0128B9
:1010000003D101210648FFF7DFFC08210448FFF760
:1010100029FD012803D108210148FFF7D5FC10BDA7
:1010200000500140704770477047704710B501206D
:10103000FFF7B4FD012801D1FFF766FD0220FFF79D
:10104000ADFD012802D10220FFF75EFD0420FFF76D
:10105000A5FD012802D10420FFF756FD0820FFF767
:101060009DFD012802D10820FFF74EFD1020FFF75B
:1010700095FD012802D11020FFF746FD2020FFF743
:101080008DFD012802D12020FFF73EFD8020FFF7D3
:1010900085FD012802D18020FFF736FDFF200130B9
:1010A000FFF77CFD012802D10002FFF72DFD012092
:1010B0004002FFF773FD012802D14002FFF724FD33
:1010C0004020FFF76BFD012802D14020FFF71CFDF7
:1010D00010BD000010B501211348FFF70BFE0128D9
:1010E00003D101211048FFF7A9FD02210E48FFF7A7
:1010F00001FE012803D102210B48FFF79FFD0421C7
:101100000948FFF7F7FD012803D104210648FFF73E
:1011100095FD08210448FFF7EDFD012803D10821C2
:101120000148FFF78BFD10BD0010004010B50121F4
:101130001348FFF7DFFD012803D101211048FFF715
:101140007DFD02210E48FFF7D5FD012803D10221C4
:101150000B48FFF773FD04210948FFF7CBFD012879
:1011600003D104210648FFF769FD08210448FFF771
:10117000C1FD012803D108210148FFF75FFD10BD23
:101180000020004010B501211348FFF7B3FD0128EE
:1011900003D101211048FFF751FD02210E48FFF74E
:1011A000A9FD012803D102210B48FFF747FD0421C7
:1011B0000948FFF79FFD012803D104210648FFF7E6
:1011C0003DFD08210448FFF795FD012803D10821C2
:1011D0000148FFF733FD10BD0030004010B501217C
:1011E0001348FFF787FD012803D101211048FFF7BD
:1011F00025FD02210E48FFF77DFD012803D10221C4
:101200000B48FFF71BFD04210948FFF773FD012878
:1012100003D104210648FFF711FD08210448FFF718
:1012200069FD012803D108210148FFF707FD10BD22
:101230000040004010B501211348FFF75BFD012875
:1012400003D101211048FFF7F9FC02210E48FFF7F6
:1012500051FD012803D102210B48FFF7EFFC0421C7
:101260000948FFF747FD012803D104210648FFF78D
:10127000E5FC08210448FFF73DFD012803D10821C2
:101280000148FFF7DBFC10BD0090014010B50121C3
:101290001348FFF72FFD012803D101211048FFF764
:1012A000CDFC02210E48FFF725FD012803D10221C4
:1012B0000B48FFF7C3FC04210948FFF71BFD012879
:1012C00003D104210648FFF7B9FC08210448FFF7C1
:1012D00011FD012803D108210148FFF7AFFC10BD23
:1012E00000A0014010B501210948FFF7B9FD012810
:1012F00003D101210648FFF761FD02210448FFF7F1
:10130000AFFD012803D102210148FFF757FD10BDB1
:101310000050004010B501210948FFF7A1FD012848
:1013200003D101210648FFF749FD02210448FFF7D8
:1013300097FD012803D102210148FFF73FFD10BDB1
:101340000060004010B501210948FFF789FD012820
:1013500003D101210648FFF731FD02210448FFF7C0
:101360007FFD012803D102210148FFF727FD10BDB1
:101370000070004010B501211848FFF771FD0128E9
:1013800003D101211548FFF719FD02211348FFF78A
:1013900067FD012803D102211048FFF70FFD01214D
:1013A0000E48FFF75DFA012803D101210B48FFF732
:1013B00017FA02210948FFF753FA012803D1022145
:1013C0000648FFF70DFA04210448FFF749FA0128FF
:1013D00003D104210148FFF703FA10BD008000404B
:1013E00010B501211848FFF73BFD012803D1012169
:1013F0001548FFF7E3FC02211348FFF731FD0128F0
:1014000003D102211048FFF7D9FC01210E48FFF754
:1014100027FA012803D101210B48FFF7E1F9022146
:101420000948FFF71DFA012803D102210648FFF7FA
:10143000D7F904210448FFF713FA012803D1042146
:101440000148FFF7CDF910BD0090004010B5012113
:101450008807FFF705FD012803D101218007FFF769
:10146000ADFC02214807FFF7FBFC012803D1022154
:101470008007FFF7A3FC10BD02E008C8121F08C1D7
:10148000002AFAD170477047002001E001C1121F05
:10149000002AFBD1704700BFFEE701E0FFF796F995
:1014A000FCE70000B4140000000000200020000051
:0414B000881400009C
:04000005000000C136
:00000001FF
