:020000040000FA
:1000000000400020D500000089160000AD0F000060
:1000100000000000000000000000000000000000E0
:10002000000000000000000000000000BB0F000006
:100030000000000000000000B90F0000BD0F00002C
:100040009F160000150100000503000029030000B1
:100050004F030000750300009B030000C103000074
:10006000E7030000C1190000F1190000211A000087
:10007000511A0000BD1A0000291B00006118000081
:10008000B918000011190000691900008517000057
:10009000E1160000B10F0000F51600002517000062
:1000A000E700000003030000550100007516000082
:1000B0000D040000551B0000551700007D040000D2
:1000C0000348854600F014F800480047A71B0000CD
:1000D000004000200448804704480047FEE7FEE750
:1000E000FEE7FEE7FEE7FEE7BF0F0000C1000000ED
:1000F000064C0125064E05E0E36807CC2B430C3C7B
:1001000098471034B442F7D3FFF7DEFFB01B00006E
:10011000C01B000010B5012000F0CCFB012801D16C
:1001200000F08AFB012000F015FA012801D100F04F
:10013000D7F9022000F00EFA012802D1022000F0C7
:10014000CFF9042000F006FA012802D1042000F0C3
:10015000C7F910BD10B500F001F810BD10B50120B1
:1001600000F0ECFA012801D100F070FA022000F052
:10017000E5FA012802D1022000F068FA042000F01C
:10018000DDFA012802D1042000F060FA102000F00E
:10019000D5FA012802D1102000F058FA202000F0F2
:1001A000CDFA012802D1202000F050FA402000F0C2
:1001B000C5FA012802D1402000F048FAFF200130A2
:1001C00000F0BCFA012802D1000200F03FFA012041
:1001D000400200F0B3FA012802D1400200F036FAE2
:1001E0000120800200F0AAFA012802D1800200F06A
:1001F0002DFA0120000300F0A1FA012802D100032A
:1002000000F024FA0120400300F098FA012802D1FE
:10021000400300F01BFA0120800300F08FFA012850
:1002200002D1800300F012FA0120000400F086FAE7
:10023000012802D1000400F009FA0120400400F076
:100240007DFA012802D1400400F000FA0120800468
:1002500000F074FA012802D1800400F0F7F90120BF
:10026000000500F06BFA012802D1000500F0EEF95C
:100270000120400500F062FA012802D1400500F09B
:10028000E5F90120800500F059FA012802D1800526
:1002900000F0DCF90120000600F050FA012802D13C
:1002A000000600F0D3F90120400600F047FA0128CB
:1002B00002D1400600F0CAF90120800600F03EFAA3
:1002C000012802D1800600F0C1F90120000700F0EA
:1002D00035FA012802D1000700F0B8F901204007E3
:1002E00000F02CFA012802D1400700F0AFF90120FC
:1002F000800700F023FA012802D1800700F0A6F958
:1003000010BD704710B5FF20013000F09FFC0128A0
:1003100002D1000200F034FC012000F0CFFB0128E4
:1003200001D100F071FB10BD10B50120400200F0BA
:100330008DFC012802D1400200F022FC022000F0D6
:10034000BDFB012802D1022000F05EFB10BD10B5FC
:100350000120800200F07AFC012802D1800200F026
:100360000FFC042000F0AAFB012802D1042000F0B9
:100370004BFB10BD10B50120C00200F067FC012846
:1003800002D1C00200F0FCFB082000F097FB01281E
:1003900002D1082000F038FB10BD10B50120000389
:1003A00000F054FC012802D1000300F0E9FB10200A
:1003B00000F084FB012802D1102000F025FB10BDC5
:1003C00010B50120400300F041FC012802D1400398
:1003D00000F0D6FB202000F071FB012802D1202084
:1003E00000F012FB10BD10B50120800300F02EFCC0
:1003F000012802D1800300F0C3FB402000F05EFB27
:10040000012802D1402000F0FFFA10BD10B50120F4
:10041000000600F01BFC012802D1000600F0B0FB32
:100420000120000400F04AFB012802D1000400F082
:10043000EBFA0120400600F009FC012802D1400639
:1004400000F09EFB0120400400F038FB012802D19F
:10045000400400F0D9FA0120800600F0F7FB0128E3
:1004600002D1800600F08CFB0120800400F026FB06
:10047000012802D1800400F0C7FA10BD10B5022097
:1004800000F08CFA012802D1022000F057FA012076
:1004900000F084FC012801D100F042FC022000F0B1
:1004A0007DFC012802D1022000F03AFC042000F07B
:1004B00075FC012802D1042000F032FC082000F075
:1004C0006DFC012802D1082000F02AFC102000F069
:1004D00065FC012802D1102000F022FC10BD0000B4
:1004E00010B50446012C09D0022C07D0042C05D0ED
:1004F000A0088000002802D1002C00D004E0FF21D9
:100500007C3103A001F04DFBE0431149C86310BDED
:100510002E2E5C2E2E5C4C69627261726965735C72
:100520004854363078785F537464506572697068E7
:100530005F4472697665725C7372635C6874367866
:1005400078785F6165732672616E642E63000000C7
:100550000021014070B504460025012C09D0022C71
:1005600007D0042C05D0A0088000002802D1002C60
:1005700000D004E0FF215D3106A001F012FB154818
:10058000C06B2040002801D0012500E0002528464E
:1005900070BD00002E2E5C2E2E5C4C696272617262
:1005A0006965735C4854363078785F53746450657D
:1005B000726970685F4472697665725C7372635CBD
:1005C0006874367878785F6165732672616E642E20
:1005D000630000000021014070B50446012C03D0E7
:1005E000082C01D0102C00D103E0074907A001F02E
:1005F000D8FA154880692040002801D0012500E084
:100600000025284670BD0000790300002E2E5C2EC8
:100610002E5C4C69627261726965735C4854363055
:1006200078785F5374645065726970685F4472696A
:100630007665725C7372635C6874367878785F6331
:100640006D752E630000000000F0004010B50446F8
:10065000012C46D0102C44D0FF200130844240D0E1
:10066000000184423DD0000184423AD0000184421E
:1006700037D00001844234D00001844231D0022CB2
:100680002FD0202C2DD0C01484422AD000018442C7
:1006900027D00001844224D00001844221D00001EF
:1006A00084421ED0000184421BD0042C19D0402C5F
:1006B00017D0C014844214D00001844211D000012C
:1006C00084420ED0000184420BD00001844208D045
:1006D0000001844205D008482040002802D1002CA7
:1006E00000D004E0FF215B3104A001F05AFAE0439E
:1006F0001149486010BD0000888888882E2E5C2E25
:100700002E5C4C69627261726965735C4854363064
:1007100078785F5374645065726970685F44726979
:100720007665725C7372635C6874367878785F643F
:100730006D612E63000000000060014070B504464A
:10074000012C46D0102C44D0FF200130844240D0F0
:10075000000184423DD0000184423AD0000184422D
:1007600037D00001844234D00001844231D0022CC1
:100770002FD0202C2DD0C01484422AD000018442D6
:1007800027D00001844224D00001844221D00001FE
:1007900084421ED0000184421BD0042C19D0402C6E
:1007A00017D0C014844214D00001844211D000013B
:1007B00084420ED0000184420BD00001844208D054
:1007C0000001844205D00B482040002802D1002CB3
:1007D00000D004E0FF211B3107A001F0E2F9154829
:1007E00040682040002801D0012500E0002528466F
:1007F00070BD0000888888882E2E5C2E2E5C4C6987
:10080000627261726965735C4854363078785F5300
:1008100074645065726970685F4472697665725C71
:100820007372635C6874367878785F646D612E6388
:10083000000000000060014010B50446012C0DD0FE
:10084000022C0BD0042C09D0082C07D0102C05D07A
:1008500060094001002802D1002C00D003E00449C7
:1008600004A001F09EF9E0431149486010BD00006A
:10087000460200002E2E5C2E2E5C4C696272617264
:100880006965735C4854363078785F53746450659A
:10089000726970685F4472697665725C7372635CDA
:1008A0006874367878785F6563632E6300000000B3
:1008B0000070014070B504460025012C0DD0022CBB
:1008C0000BD0042C09D0082C07D0102C05D06009BF
:1008D0004001002802D1002C00D004E089218900C9
:1008E00006A001F05EF9144840682040002801D0BD
:1008F000012500E00025284670BD00002E2E5C2E4C
:100900002E5C4C69627261726965735C4854363062
:1009100078785F5374645065726970685F44726977
:100920007665725C7372635C6874367878785F653C
:1009300063632E63000000000070014010B50446A0
:10094000022C00D103E0AB2103A001F02AF9E0431F
:100950001149886010BD00002E2E5C2E2E5C4C6963
:10096000627261726965735C4854363078785F539F
:1009700074645065726970685F4472697665725C10
:100980007372635C6874357833785F656D7569661A
:100990006163652E630000000020024070B50446CC
:1009A0000025022C00D103E08F2106A001F0F9F808
:1009B000144880682040002801D0012500E000256F
:1009C000284670BD2E2E5C2E2E5C4C6962726172C0
:1009D0006965735C4854363078785F537464506549
:1009E000726970685F4472697665725C7372635C89
:1009F0006874357833785F656D7569666163652EF7
:100A0000630000000020024070B50446012000048D
:100A1000844221D0400084421ED0400084421BD03A
:100A20000721090420468843002801D1002C13D156
:100A3000012C11D0022C0FD0042C0DD0082C0BD07F
:100A4000102C09D0202C07D0402C05D0E009C00183
:100A5000002802D1002C00D004E0FF219A3107A029
:100A600001F09FF8072000042040050C6406640E86
:100A7000E04311494860E843486170BD2E2E5C2E6A
:100A80002E5C4C69627261726965735C48543630E1
:100A900078785F5374645065726970685F447269F6
:100AA0007665725C7372635C6874367878785F65BB
:100AB0007874692E630000000018014070B5044688
:100AC000002601200004844221D0400084421ED030
:100AD000400084421BD00721090420468843002897
:100AE00001D1002C13D1012C11D0022C0FD0042CD9
:100AF0000DD0082C0BD0102C09D0202C07D0402C66
:100B000005D0E009C001002802D1002C00D004E08B
:100B1000FF2128310AA001F044F8072000042040FA
:100B2000050C164840682040002800D001261348D4
:100B300040692840002800D00126304670BD0000E2
:100B40002E2E5C2E2E5C4C69627261726965735C3C
:100B50004854363078785F537464506572697068B1
:100B60005F4472697665725C7372635C6874367830
:100B700078785F657874692E630000000018014082
:100B800070B504460120000684422BD04000844208
:100B900028D04000844225D00721090620468843FA
:100BA000002801D1002C1DD1FF200130844219D032
:100BB0004000844216D04000844213D0400084425A
:100BC00010D0400084420DD0400084420AD0400042
:100BD000844207D07F21090220468843002802D1A1
:100BE000002C00D004E0FF21663108A000F0D9FFFE
:100BF000072000062040050C7F2000020440E0434F
:100C000011494860E843486170BD00002E2E5C2EFB
:100C10002E5C4C69627261726965735C485436304F
:100C200078785F5374645065726970685F44726964
:100C30007665725C7372635C6874367878785F6529
:100C40007874692E630000000018014070B50446F6
:100C500000260120000684422BD04000844228D088
:100C60004000844225D007210906204688430028F9
:100C700001D1002C1DD1FF200130844219D0400049
:100C8000844216D04000844213D04000844210D0E9
:100C9000400084420DD0400084420AD0400084428B
:100CA00007D07F21090220468843002802D1002C6A
:100CB00000D003E0E8210AA000F073FF072000063F
:100CC0002040050C154840682040002800D001262F
:100CD000124840692840002800D00126304670BDE7
:100CE0002E2E5C2E2E5C4C69627261726965735C9B
:100CF0004854363078785F53746450657269706810
:100D00005F4472697665725C7372635C687436788E
:100D100078785F657874692E6300000000180140E0
:100D200010B50446012C0DD0022C0BD0042C09D098
:100D3000082C07D0102C05D060094001002802D1F2
:100D4000002C00D004E0FF21303103A000F029FF87
:100D5000E0431149886110BD2E2E5C2E2E5C4C693B
:100D6000627261726965735C4854363078785F539B
:100D700074645065726970685F4472697665725C0C
:100D80007372635C6874357833785F6672616D7016
:100D900061636B2E6300000000B0014070B5044633
:100DA0000025012C0DD0022C0BD0042C09D0082CCE
:100DB00007D0102C05D060094001002802D1002C7A
:100DC00000D004E0FF21103106A000F0EAFE154833
:100DD00080692040002801D0012500E00025284638
:100DE00070BD00002E2E5C2E2E5C4C69627261720A
:100DF0006965735C4854363078785F537464506525
:100E0000726970685F4472697665725C7372635C64
:100E10006874357833785F6672616D7061636B2ECC
:100E20006300000000B0014001480249486070477B
:100E300040AA0000000001407047000070B5054660
:100E40000C460C48854202D00B48854200D104E094
:100E5000FF21FC3109A000F0A4FE002C02D01F2CC1
:100E600000D804E0FF21FD3104A000F09AFEE04329
:100E7000A86170BD00900040008000402E2E5C2EC6
:100E80002E5C4C69627261726965735C48543630DD
:100E900078785F5374645065726970685F447269F2
:100EA0007665725C7372635C6874367878785F75A7
:100EB00061727426373831362E63000070B50446EF
:100EC0000D4600260F48844202D00F48844200D1CC
:100ED00004E0FF21D6310DA000F063FE002D02D00A
:100EE0001F2D00D804E0FF21D73108A000F059FEE3
:100EF000A0692840002801D0012600E000263046E5
:100F000070BD000000900040008000402E2E5C2E3E
:100F10002E5C4C69627261726965735C485436304C
:100F200078785F5374645065726970685F44726961
:100F30007665725C7372635C6874367878785F7516
:100F400061727426373831362E63000010B50446BE
:100F5000012C00D104E0FF215C3103A000F021FE50
:100F6000E0431149486010BD2E2E5C2E2E5C4C696A
:100F7000627261726965735C4854363078785F5389
:100F800074645065726970685F4472697665725CFA
:100F90007372635C6874353031785F6B6579736345
:100FA000616E2E63000000000040014000BFFEE7BC
:100FB00010B5FFF741FF10BD70477047704770478D
:100FC000F2FFFFFF70B50446012C00D104E0FF21C1
:100FD0003D3106A000F0E5FD14484068204000289F
:100FE00001D0012500E00025284670BD2E2E5C2E84
:100FF0002E5C4C69627261726965735C485436306C
:1010000078785F5374645065726970685F44726980
:101010007665725C7372635C6874353031785F6BCF
:1010200065797363616E2E6300000000004001402B
:1010300010B5044620090001002802D1002C00D080
:1010400004E00921890103A000F0ABFDE043104951
:10105000086110BD2E2E5C2E2E5C4C69627261728E
:101060006965735C4854363078785F5374645065B2
:10107000726970685F4472697665725C7372635CF2
:101080006874367878785F706D752E6300000000A4
:1010900000F4004070B50446002520090001002836
:1010A00002D1002C00D003E0064907A000F079FD32
:1010B000144800692040002801D0012500E00025E7
:1010C000284670BD1F0200002E2E5C2E2E5C4C693F
:1010D000627261726965735C4854363078785F5328
:1010E00074645065726970685F4472697665725C99
:1010F0007372635C6874367878785F706D752E6390
:101100000000000000F4004070B505460C4613488E
:10111000854205D01248854202D01248854200D14E
:1011200003E0EE2110A000F03CFD012C0BD0022CBE
:1011300009D0042C07D0082C05D020090001002874
:1011400002D1002C00D003E0EF2107A000F029FD20
:101150006868C4B2A868C4B270BD000000B00040A6
:1011600000C0014000D001402E2E5C2E2E5C4C6948
:10117000627261726965735C4854363078785F5387
:1011800074645065726970685F4472697665725CF8
:101190007372635C6874367878785F7370692E63F5
:1011A0000000000070B505460C461548854205D084
:1011B0001448854202D01448854200D103E0CB2177
:1011C00012A000F0EEFC012C0BD0022C09D0042C54
:1011D00007D0082C05D020090001002802D1002CDE
:1011E00000D003E0CC2109A000F0DBFC68682040BF
:1011F000002801D0012600E00026304670BD000026
:1012000000B0004000C0014000D001402E2E5C2EF6
:101210002E5C4C69627261726965735C4854363049
:1012200078785F5374645065726970685F4472695E
:101230007665725C7372635C6874367878785F7315
:1012400070692E630000000010B50446012C23D005
:10125000022C21D0082C1FD0102C1DD0402C1BD0CC
:10126000042C19D0202C17D0FF200130844213D039
:101270004000844210D0802C0ED0000184420BD05C
:101280004000844208D04000844205D007482040F6
:10129000002802D1002C00D003E0054905A000F091
:1012A00080FCE0431249C86010BD0000001CFFFF35
:1012B000830700002E2E5C2E2E5C4C6962726172D8
:1012C0006965735C4854363078785F537464506550
:1012D000726970685F4472697665725C7372635C90
:1012E0006874367878785F7462732E63000000004B
:1012F00000E0004070B50446012C23D0022C21D020
:10130000082C1FD0102C1DD0402C1BD0042C19D021
:10131000202C17D0FF200130844213D0400084429B
:1013200010D0802C0ED0000184420BD040008442AB
:1013300008D04000844205D00A482040002802D14D
:10134000002C00D003E0084908A000F02AFC164851
:10135000C0682040002801D0012500E00025284673
:1013600070BD0000001CFFFF4B0700002E2E5C2EFE
:101370002E5C4C69627261726965735C48543630E8
:1013800078785F5374645065726970685F447269FD
:101390007665725C7372635C6874367878785F74B3
:1013A00062732E630000000000E0004070B5054647
:1013B0000C461448854208D01348854205D013488E
:1013C000854202D01248854200D103E0114912A0A3
:1013D00000F0E7FB082C0BD0012C09D0022C07D021
:1013E000042C05D020090001002802D1002C00D0D7
:1013F00004E01B21490108A000F0D3FBE043E861B1
:1014000070BD00000010004000200040003000408F
:10141000004000405A0300002E2E5C2E2E5C4C69CA
:10142000627261726965735C4854363078785F53D4
:1014300074645065726970685F4472697665725C45
:101440007372635C6874367878785F74696D6572FE
:101450002E63000070B505460C46002616488542EE
:1014600008D01648854205D01548854202D0154857
:10147000854200D103E0144914A000F092FB082C2F
:101480000BD0012C09D0022C07D0042C05D0200948
:101490000001002802D1002C00D004E00A49891D77
:1014A0000AA000F07EFBE8692040002801D0012658
:1014B00000E00026304670BD0010004000200040D3
:1014C00000300040004000401F0300002E2E5C2E24
:1014D0002E5C4C69627261726965735C4854363087
:1014E00078785F5374645065726970685F4472699C
:1014F0007665725C7372635C6874367878785F7452
:10150000696D65722E63000070B504460D4614487F
:10151000844211D0134884420ED0134884420BD029
:101520001248844208D01248844205D08004844284
:1015300002D01048844200D104E0FF2190310EA077
:1015400000F02FFB002D02D0072D00D804E0FF2172
:10155000913109A000F025FBE843606170BD0000F7
:1015600000500040006000400070004000800040DB
:1015700000900040008001402E2E5C2E2E5C4C69B5
:10158000627261726965735C4854363078785F5373
:1015900074645065726970685F4472697665725CE4
:1015A0007372635C6874367878785F7561727426DC
:1015B000373831362E63000070B504460D460026DC
:1015C0001648844211D0164884420ED015488442F1
:1015D0000BD01548844208D01448844205D08004BA
:1015E000844202D01248844200D104E0FF216531D8
:1015F00010A000F0D6FA002D02D0072D00D804E08C
:10160000FF2166310BA000F0CCFA60692840002869
:1016100001D0012600E00026304670BD0050004099
:1016200000600040007000400080004000900040DA
:10163000008001402E2E5C2E2E5C4C69627261721D
:101640006965735C4854363078785F5374645065CC
:10165000726970685F4472697665725C7372635C0C
:101660006874367878785F756172742637383136E9
:101670002E63000010B50120FFF7A4FC002802D063
:101680000120FFF763FC10BD10B50120FEF7A4FF99
:101690000820FEF7A1FF1020FEF79EFF10BD10B539
:1016A0000120FFF7F7FC012801D1FFF7C1FC022060
:1016B000FFF7F0FC012802D10220FFF7B9FC04205B
:1016C000FFF7E8FC012802D10420FFF7B1FC082055
:1016D000FFF7E0FC012802D10820FFF7A9FC10BDAC
:1016E00003498968C8B20021014A9160704700002F
:1016F00000C0004010B501210948FFF753FD012843
:1017000003D101210648FFF7FFFC08210448FFF739
:1017100049FD012803D108210148FFF7F5FC10BD60
:1017200000B0004010B501210948FFF73BFD01283A
:1017300003D101210648FFF7E7FC08210448FFF721
:1017400031FD012803D108210148FFF7DDFC10BD60
:1017500000C0014010B501210948FFF723FD012811
:1017600003D101210648FFF7CFFC08210448FFF709
:1017700019FD012803D108210148FFF7C5FC10BD60
:1017800000D0014010B50120FFF7B4FD012801D1C0
:10179000FFF75AFD0220FFF7ADFD012802D102201C
:1017A000FFF752FD0820FFF7A5FD012802D1082010
:1017B000FFF74AFD1020FFF79DFD012802D1102000
:1017C000FFF742FD4020FFF795FD012802D14020A0
:1017D000FFF73AFD0420FFF78DFD012802D1042018
:1017E000FFF732FD2020FFF785FD012802D12020E0
:1017F000FFF72AFD8020FFF77DFD012802D1802020
:10180000FFF722FD01204003FFF774FD012802D1FC
:101810004003FFF719FD01208003FFF76BFD01284E
:1018200002D18003FFF710FD0120C003FFF762FD26
:10183000012802D1C003FFF707FDFF200130FFF7A9
:1018400059FD012802D10002FFF7FEFC01204002F1
:10185000FFF750FD012802D14002FFF7F5FC10BD53
:1018600010B501211348FFF7F5FD012803D101212F
:101870001048FFF79BFD02210E48FFF7EBFD012802
:1018800003D102210B48FFF791FD04210948FFF71E
:10189000E1FD012803D104210648FFF787FD082157
:1018A0000448FFF7D7FD012803D108210148FFF7BD
:1018B0007DFD10BD0010004010B501211348FFF759
:1018C000C9FD012803D101211048FFF76FFD022156
:1018D0000E48FFF7BFFD012803D102210B48FFF797
:1018E00065FD04210948FFF7B5FD012803D1042156
:1018F0000648FFF75BFD08210448FFF7ABFD012810
:1019000003D108210148FFF751FD10BD0020004020
:1019100010B501211348FFF79DFD012803D10121D6
:101920001048FFF743FD02210E48FFF793FD012801
:1019300003D102210B48FFF739FD04210948FFF7C5
:1019400089FD012803D104210648FFF72FFD082156
:101950000448FFF77FFD012803D108210148FFF764
:1019600025FD10BD0030004010B501211348FFF7E0
:1019700071FD012803D101211048FFF717FD022155
:101980000E48FFF767FD012803D102210B48FFF73E
:101990000DFD04210948FFF75DFD012803D1042155
:1019A0000648FFF703FD08210448FFF753FD01280F
:1019B00003D108210148FFF7F9FC10BD00400040A9
:1019C00010B501210948FFF7F7FD012803D10121D6
:1019D0000648FFF799FD02210448FFF7EDFD0128B5
:1019E00003D102210148FFF78FFD10BD00500040D8
:1019F00010B501210948FFF7DFFD012803D10121BE
:101A00000648FFF781FD02210448FFF7D5FD0128B4
:101A100003D102210148FFF777FD10BD00600040AF
:101A200010B501210948FFF7C7FD012803D10121A5
:101A30000648FFF769FD02210448FFF7BDFD0128B4
:101A400003D102210148FFF75FFD10BD0070004087
:101A500010B501211848FFF7AFFD012803D101217E
:101A60001548FFF751FD02211348FFF7A5FD012896
:101A700003D102211048FFF747FD01210E48FFF76F
:101A80001DFA012803D101210B48FFF7D7F90221E4
:101A90000948FFF713FA012803D102210648FFF78E
:101AA000CDF904210448FFF709FA012803D10421E4
:101AB0000148FFF7C3F910BD0080004010B50121B7
:101AC0001848FFF779FD012803D101211548FFF7D8
:101AD0001BFD02211348FFF76FFD012803D10221EE
:101AE0001048FFF711FD01210E48FFF7E7F9012823
:101AF00003D101210B48FFF7A1F902210948FFF7A3
:101B0000DDF9012803D102210648FFF797F90421E6
:101B10000448FFF7D3F9012803D104210148FFF756
:101B20008DF910BD0090004010B501218807FFF726
:101B300043FD012803D101218007FFF7E5FC0221C5
:101B40004807FFF739FD012803D102218007FFF77D
:101B5000DBFC10BD10B501210948FFF72DFD012860
:101B600003D101210648FFF7CFFC02210448FFF70B
:101B700023FD012803D102210148FFF7C5FC10BD58
:101B80000080014002E008C8121F08C1002AFAD1F3
:101B900070477047002001E001C1121F002AFBD1ED
:101BA000704700BFFEE701E0FFF73EF9FCE70000E9
:101BB000C01B00000000002000400000941B00003B
:04000005000000C136
:00000001FF
