:020000040000FA
:1000000000400020E50000004D0F0000410F0000FF
:1000100000000000000000000000000000000000E0
:10002000000000000000000000000000B70F00000A
:100030000000000000000000B50F0000BB0F000032
:10004000630F00002501000013030000EF03000010
:10005000150400003B040000610400008704000058
:10006000AD040000051900003519000065190000F5
:1000700095190000011A00006D1A000075160000A5
:10008000D91600003D170000A117000085150000DB
:10009000A1140000450F0000C5140000F514000075
:1000A000B90F0000151800008D180000991A000003
:1000B000D3040000F70000002515000065010000D2
:1000C000F700000037030000F7000000551500009E
:1000D000DFF80CD000F014F800480047E91A0000DF
:1000E000004000200448804704480047FEE7FEE740
:1000F000FEE7FEE7FEE7FEE7BD0F0000D1000000CF
:10010000064C074D06E0E06840F0010394E8070064
:1001100098471034AC42F6D3FFF7DEFFF01A000028
:10012000001B000010B5012000F0DCFB012801D10C
:1001300000F0A0FB012000F03DFA012801D100F001
:1001400001FA022000F036FA012802D1022000F064
:10015000F9F9042000F02EFA012802D1042000F061
:10016000F1F910BD10B500F001F810BD10B5012077
:1001700000F008FB012801D100F092FA022000F003
:1001800001FB012802D1022000F08AFA042000F0CD
:10019000F9FA012802D1042000F082FA102000F0C0
:1001A000F1FA012802D1102000F07AFA202000F0A4
:1001B000E9FA012802D1202000F072FA402000F074
:1001C000E1FA012802D1402000F06AFA4FF4807071
:1001D00000F0D8FA012802D1000200F061FA4FF4D1
:1001E000007000F0CFFA012802D1400200F058FA66
:1001F0004FF4806000F0C6FA012802D1800200F0BE
:100200004FFA4FF4805000F0BDFA012802D10003EC
:1002100000F046FA4FF4005000F0B4FA012802D181
:10022000400300F03DFA4FF4804000F0ABFA0128A3
:1002300002D1800300F034FA4FF4803000F0A2FACB
:10024000012802D1000400F02BFA4FF4003000F036
:1002500099FA012802D1400400F022FA4FF48020DC
:1002600000F090FA012802D1800400F019FA4FF44E
:10027000801000F087FA012802D1000500F010FA82
:100280004FF4001000F07EFA012802D1400500F082
:1002900007FA4FF4800000F075FA012802D18005BA
:1002A00000F0FEF94FF0807000F06CFA012802D1E6
:1002B000000600F0F5F94FF0007000F063FA012835
:1002C00002D1400600F0ECF94FF0806000F05AFADD
:1002D000012802D1800600F0E3F94FF0805000F0D1
:1002E00051FA012802D1000700F0DAF94FF000506E
:1002F00000F048FA012802D1400700F0D1F94FF090
:10030000804000F03FFA012802D1800700F0C8F9D0
:1003100010BD10B54FF4807000F05CFC012802D1D4
:10032000000200F0E9FB012000F07CFB012801D174
:1003300000F012FB10BD10B54FF0006000F04AFC59
:10034000012802D1C00600F0D7FB4FF4002000F0D6
:1003500069FB012802D1C00400F0FEFA4FF0805082
:1003600000F038FC012802D1000700F0C5FB4FF473
:10037000801000F057FB012802D1000500F0ECFAD4
:100380004FF0005000F026FC012802D1400700F099
:10039000B3FB4FF4001000F045FB012802D14005EB
:1003A00000F0DAFA4FF0804000F014FC012802D18E
:1003B000800700F0A1FB4FF4800000F033FB012820
:1003C00002D1800500F0C8FA4FF0004000F002FCB6
:1003D000012802D1C00700F08FFB4FF4000000F0AD
:1003E00021FB012802D1C00500F0B6FA10BD10B5FE
:1003F0004FF4007000F0EEFB012802D1400200F043
:100400007BFB022000F00EFB012802D1022000F04D
:10041000A3FA10BD10B54FF4806000F0DBFB01289B
:1004200002D1800200F068FB042000F0FBFA0128F2
:1004300002D1042000F090FA10BD10B54FF4006016
:1004400000F0C8FB012802D1C00200F055FB0820D3
:1004500000F0E8FA012802D1082000F07DFA10BD72
:1004600010B54FF4805000F0B5FB012802D1000315
:1004700000F042FB102000F0D5FA012802D1102034
:1004800000F06AFA10BD10B54FF4005000F0A2FB66
:10049000012802D1400300F02FFB202000F0C2FA17
:1004A000012802D1202000F057FA10BD10B54FF4FA
:1004B000804000F08FFB012802D1800300F01CFB7C
:1004C000402000F0AFFA012802D1402000F044FAA9
:1004D00010BD10B54FF0807000F07CFB012802D1F8
:1004E000000600F009FB4FF4803000F09BFA012871
:1004F00002D1000400F030FA4FF0007000F06AFB07
:10050000012802D1400600F0F7FA4FF4003000F065
:1005100089FA012802D1400400F01EFA4FF08060F1
:1005200000F058FB012802D1800600F0E5FA4FF4F4
:10053000802000F077FA012802D1800400F00CFA44
:1005400010BD000010B50446012C07D0022C05D0C8
:10055000042C03D034F0030001D104B104E040F2D4
:100560007B1103A001F0BEFAE0431149086010BD01
:100570002E2E5C2E2E5C4C69627261726965735C12
:100580004854363078785F53746450657269706887
:100590005F4472697665725C7372635C6874367806
:1005A00078785F6165732672616E642E6300000067
:1005B0003C21014070B504460025012C07D0022CD7
:1005C00005D0042C03D034F0030001D104B104E0C1
:1005D0004FF4AE7105A001F085FA1448006820427E
:1005E00001D0012500E00025284670BD2E2E5C2E8E
:1005F0002E5C4C69627261726965735C4854363076
:1006000078785F5374645065726970685F4472698A
:100610007665725C7372635C6874367878785F6153
:1006200065732672616E642E630000003C210140F8
:1006300070B50446012C03D0082C01D0102C00D139
:1006400004E040F2793106A001F04CFA13488069C9
:10065000204201D0012500E00025284670BD0000A1
:100660002E2E5C2E2E5C4C69627261726965735C21
:100670004854363078785F53746450657269706896
:100680005F4472697665725C7372635C6874367815
:1006900078785F636D752E630000000000F0004005
:1006A00010B50446012C43D0102C41D0B4F5807F06
:1006B0003ED0B4F5805F3BD0B4F5803F38D0B4F580
:1006C000801F35D0B4F1807F32D0B4F1805F2FD05D
:1006D000022C2DD0202C2BD0B4F5007F28D0B4F5DF
:1006E000005F25D0B4F5003F22D0B4F5001F1FD025
:1006F000B4F1007F1CD0B4F1005F19D0042C17D0E6
:10070000402C15D0B4F5806F12D0B4F5804F0FD0C7
:10071000B4F5802F0CD0B4F5800F09D0B4F1806F00
:1007200006D0B4F1804F03D014F0883F01D104B15A
:1007300004E04FF4AD7103A001F0D4F9E043104997
:10074000486010BD2E2E5C2E2E5C4C696272617268
:100750006965735C4854363078785F5374645065CB
:10076000726970685F4472697665725C7372635C0B
:100770006874367878785F646D612E6300000000DD
:100780000000024070B50446012C43D0102C41D02B
:10079000B4F5807F3ED0B4F5805F3BD0B4F5803FA8
:1007A00038D0B4F5801F35D0B4F1807F32D0B4F1A9
:1007B000805F2FD0022C2DD0202C2BD0B4F5007FC1
:1007C00028D0B4F5005F25D0B4F5003F22D0B4F5B1
:1007D000001F1FD0B4F1007F1CD0B4F1005F19D00E
:1007E000042C17D0402C15D0B4F5806F12D0B4F57E
:1007F000804F0FD0B4F5802F0CD0B4F5800F09D006
:10080000B4F1806F06D0B4F1804F03D014F0883F6C
:1008100001D104B104E04FF48D7106A001F062F93A
:1008200013484068204201D0012500E000252846F9
:1008300070BD00002E2E5C2E2E5C4C6962726172BF
:100840006965735C4854363078785F5374645065DA
:10085000726970685F4472697665725C7372635C1A
:100860006874367878785F646D612E6300000000EC
:100870000000024010B50446012C07D0022C05D020
:10088000042C03D034F01F0001D104B104E040F285
:100890003B4104A001F026F911484068A0431049EB
:1008A000486010BD2E2E5C2E2E5C4C696272617207
:1008B0006965735C4854363078785F53746450656A
:1008C000726970685F4472697665725C7372635CAA
:1008D0006874367878785F6563632E630000000083
:1008E00000B0014010B50446012C07D0022C05D001
:1008F000042C03D034F01F0001D104B104E040F215
:100900001D4105A001F0EEF812484068204201D0D8
:10091000012010BD0020FCE72E2E5C2E2E5C4C69C1
:10092000627261726965735C4854363078785F53DF
:1009300074645065726970685F4472697665725C50
:100940007372635C6874367878785F6563632E636E
:100950000000000000B0014070B50446B4F5002F5F
:100960002ED0B4F5801F2BD0B4F5001F28D0B4F5DD
:10097000800F25D0B4F5000F22D034F47F0000D1D1
:10098000F4B9B4F5803F1BD0B4F5003F18D0B4F5EE
:10099000802F15D034F47F0000D18CB9012C0FD0FA
:1009A000022C0DD0042C0BD0082C09D0102C07D011
:1009B000202C05D0402C03D034F07F0001D104B1AD
:1009C00004E04FF4CB7107A001F08CF8C4F30745A5
:1009D00004F07F04E04312490860E84310491031F5
:1009E000086070BD2E2E5C2E2E5C4C6962726172A6
:1009F0006965735C4854363078785F537464506529
:100A0000726970685F4472697665725C7372635C68
:100A10006874367878785F657874692E63000000B2
:100A20000418014070B504460026B4F5002F2ED0FE
:100A3000B4F5801F2BD0B4F5001F28D0B4F5800F7B
:100A400025D0B4F5000F22D034F47F0000D1F4B9E2
:100A5000B4F5803F1BD0B4F5003F18D0B4F5802F1B
:100A600015D034F47F0000D18CB9012C0FD0022CAA
:100A70000DD0042C0BD0082C09D0102C07D0202C22
:100A800005D0402C03D034F07F0001D104B104E044
:100A90004FF4927108A001F025F8C4F307451548FA
:100AA0000068204200D00126124810300068284219
:100AB00000D00126304670BD2E2E5C2E2E5C4C6977
:100AC000627261726965735C4854363078785F533E
:100AD00074645065726970685F4472697665725CAF
:100AE0007372635C6874367878785F657874692EA1
:100AF000630000000418014070B50446B4F1006FB3
:100B000035D0B4F1805F32D0B4F1005F2FD0B4F1B2
:100B1000804F2CD0B4F1004F29D034F07F4000D169
:100B20002CBBB4F1807F22D0B4F1007F1FD0B4F190
:100B3000806F1CD034F07F4000D1C4B9B4F5807F01
:100B400015D0B4F5007F12D0B4F5806F0FD0B4F596
:100B5000006F0CD0B4F5805F09D0B4F5005F06D00B
:100B6000B4F5804F03D034F4FE4001D104B104E069
:100B70004FF4B17107A000F0B5FF200E050204F498
:100B8000FE44E04312490860E8431149103108600F
:100B900070BD00002E2E5C2E2E5C4C69627261725C
:100BA0006965735C4854363078785F537464506577
:100BB000726970685F4472697665725C7372635CB7
:100BC0006874367878785F657874692E6300000001
:100BD0000418014070B504460026B4F1006F35D00A
:100BE000B4F1805F32D0B4F1005F2FD0B4F1804F08
:100BF0002CD0B4F1004F29D034F07F4000D12CBB71
:100C0000B4F1807F22D0B4F1007F1FD0B4F1806FA7
:100C10001CD034F07F4000D1C4B9B4F5807F15D02A
:100C2000B4F5007F12D0B4F5806F0FD0B4F5006F2B
:100C30000CD0B4F5805F09D0B4F5005F06D0B4F5F0
:100C4000804F03D034F4FE4001D104B103E0E5212C
:100C500008A000F047FF200E05021548006820425A
:100C600000D00126124810300068284200D001262A
:100C7000304670BD2E2E5C2E2E5C4C696272617205
:100C80006965735C4854363078785F537464506596
:100C9000726970685F4472697665725C7372635CD6
:100CA0006874367878785F657874692E6300000020
:100CB000041801404AF6402001494860704700008E
:100CC000000001407047000070B505460C460C4816
:100CD000854202D00B48854200D104E040F2FB116E
:100CE00009A000F0FFFE14B11F2C00D804E04FF45F
:100CF000FE7105A000F0F6FEE043A86170BD0000A3
:100D000000900040008000402E2E5C2E2E5C4C692E
:100D1000627261726965735C4854363078785F53EB
:100D200074645065726970685F4472697665725C5C
:100D30007372635C6874367878785F756172742654
:100D4000373831362E63000070B504460D46002654
:100D50000E48844202D00E48844200D104E040F2A2
:100D6000D5110CA000F0BEFE15B11F2D00D804E077
:100D70004FF4EB7107A000F0B5FEA069284201D046
:100D8000012600E00026304670BD000000900040C3
:100D9000008000402E2E5C2E2E5C4C6962726172C7
:100DA0006965735C4854363078785F537464506575
:100DB000726970685F4472697665725C7372635CB5
:100DC0006874367878785F75617274263738313692
:100DD0002E63000010B5044634F03F0001D104B189
:100DE00004E04FF4107103A000F07CFEE0431049D2
:100DF000086010BD2E2E5C2E2E5C4C6962726172F2
:100E00006965735C4854363078785F537464506514
:100E1000726970685F4472697665725C7372635C54
:100E20006874367878785F706D752E630000000006
:100E300010F4004070B50446002534F03F0001D1A5
:100E400004B104E040F21F2105A000F04BFE13485E
:100E50000068204201D0012500E00025284670BD31
:100E60002E2E5C2E2E5C4C69627261726965735C19
:100E70004854363078785F5374645065726970688E
:100E80005F4472697665725C7372635C687436780D
:100E900078785F706D752E630000000010F40040DC
:100EA00070B505460C461348854208D01248854265
:100EB00005D01248854202D01148854200D103E096
:100EC000EE2110A000F00EFE012C09D0022C07D05C
:100ED000042C05D0082C03D034F00F0001D104B14C
:100EE00003E0EF2107A000F0FDFD6868C4B2A86828
:100EF000C4B270BD00B0004000700140006001400D
:100F000000F001402E2E5C2E2E5C4C6962726172E4
:100F10006965735C4854363078785F537464506503
:100F2000726970685F4472697665725C7372635C43
:100F30006874367878785F7370692E6300000000FB
:100F400000BFFEE710B5FFF7BDFE10BD10B50120D4
:100F5000FFF76EFB0820FFF76BFB1020FFF768FB25
:100F600010BD10B50120FFF765FF012801D1FFF783
:100F700031FF0220FFF75EFF012802D10220FFF7B8
:100F800029FF0420FFF756FF012802D10420FFF7B4
:100F900021FF0820FFF74EFF012802D10820FFF7AC
:100FA00019FF2020FFF746FF012802D12020FFF77C
:100FB00011FF10BD7047704770477047704770470A
:100FC000F2FFFFE770B505460C461548854208D08C
:100FD0001448854205D01448854202D01348854202
:100FE00000D103E0CB2112A000F07CFD012C09D040
:100FF000022C07D0042C05D0082C03D034F00F00AD
:1010000001D104B103E0CC2109A000F06BFD6868B8
:10101000204201D0012600E00026304670BD0000CD
:1010200000B00040007001400060014000F001404D
:101030002E2E5C2E2E5C4C69627261726965735C47
:101040004854363078785F537464506572697068BC
:101050005F4472697665725C7372635C687436783B
:1010600078785F7370692E630000000010B5044645
:10107000012C23D0022C21D0042C1FD0082C1DD0F1
:10108000102C1BD0202C19D0402C17D0802C15D020
:10109000B4F5807F12D0B4F5007F0FD0B4F5806F27
:1010A0000CD0B4F5006F09D0B4F5805F06D0B4F56C
:1010B000005F03D0A00B800301D104B104E040F233
:1010C000837103A000F00EFDE0431049886010BD5D
:1010D0002E2E5C2E2E5C4C69627261726965735CA7
:1010E0004854363078785F5374645065726970681C
:1010F0005F4472697665725C7372635C687436789B
:1011000078785F7462732E630000000000E0004096
:1011100070B50446012C23D0022C21D0042C1FD002
:10112000082C1DD0102C1BD0202C19D0402C17D0EF
:10113000802C15D0B4F5807F12D0B4F5007F0FD08D
:10114000B4F5806F0CD0B4F5006F09D0B4F5805FB2
:1011500006D0B4F5005F03D0A00B800301D104B129
:1011600004E040F24B7106A000F0BCFC134880681C
:10117000204201D0012500E00025284670BD000076
:101180002E2E5C2E2E5C4C69627261726965735CF6
:101190004854363078785F5374645065726970686B
:1011A0005F4472697665725C7372635C68743678EA
:1011B00078785F7462732E630000000000E00040E6
:1011C00070B505460C46174885420ED01648854234
:1011D0000BD01648854208D0B5F1402F05D01448F1
:1011E000854202D01348854200D104E04FF4567185
:1011F00011A000F077FC102C0BD0082C09D0012C8A
:1012000007D0022C05D0042C03D034F01F0001D1EC
:1012100004B104E040F25E3107A000F063FCE0435B
:10122000E86170BD00100040002000400030004028
:101230000090014000A001402E2E5C2E2E5C4C69D7
:10124000627261726965735C4854363078785F53B6
:1012500074645065726970685F4472697665725C27
:101260007372635C6874367878785F74696D6572E0
:101270002E63000070B505460C4600261B488542CB
:101280000ED01B4885420BD01A48854208D0B5F1D4
:10129000402F05D01848854202D01848854200D119
:1012A00004E040F21D3116A000F01CFCB4F5807F74
:1012B0000DD0102C0BD0082C09D0012C07D0022CFB
:1012C00005D0042C03D034F01F0001D104B104E098
:1012D00040F223310AA000F005FCE869204201D069
:1012E000012600E00026304670BD000000100040DE
:1012F00000200040003000400090014000A001406C
:101300002E2E5C2E2E5C4C69627261726965735C74
:101310004854363078785F537464506572697068E9
:101320005F4472697665725C7372635C6874367868
:1013300078785F74696D65722E63000070B504463D
:101340000D461348844211D0124884420ED01248F0
:1013500084420BD01148844208D01148844205D001
:10136000B4F1804F02D00F48844200D104E040F233
:101370008F110DA000F0B6FB15B13F2D00D804E091
:101380004FF4C87108A000F0ADFBE843606170BD88
:1013900000500040006000400070004000800040AD
:1013A00000900040008001402E2E5C2E2E5C4C6987
:1013B000627261726965735C4854363078785F5345
:1013C00074645065726970685F4472697665725CB6
:1013D0007372635C6874367878785F7561727426AE
:1013E000373831362E63000070B504460D460026AE
:1013F0001548844211D0154884420ED014488442C6
:101400000BD01448844208D01348844205D0B4F16C
:10141000804F02D01148844200D104E04FF4B271F1
:101420000FA000F05FFB15B13F2D00D804E040F2A3
:1014300065110BA000F056FB6069284201D001261F
:1014400000E00026304670BD0050004000600040C3
:10145000007000400080004000900040008001408B
:101460002E2E5C2E2E5C4C69627261726965735C13
:101470004854363078785F53746450657269706888
:101480005F4472697665725C7372635C6874367807
:1014900078785F7561727426373831362E630000B4
:1014A00006498968C8B20021044A91600449096864
:1014B000C8B24FF00001C2F81013704700C00040DE
:1014C00010C3004010B501210948FFF77BFD01283A
:1014D00003D101210648FFF7E3FC08210448FFF788
:1014E00071FD012803D108210148FFF7D9FC10BD87
:1014F00000B0004010B501210948FFF763FD012845
:1015000003D101210648FFF7CBFC08210448FFF76F
:1015100059FD012803D108210148FFF7C1FC10BD86
:101520000070014010B501210948FFF74BFD01286B
:1015300003D101210648FFF7B3FC08210448FFF757
:1015400041FD012803D108210148FFF7A9FC10BD86
:101550000060014010B501210948FFF733FD012863
:1015600003D101210648FFF79BFC08210448FFF73F
:1015700029FD012803D108210148FFF791FC10BD86
:1015800000F0014010B50120FFF7C2FD012801D194
:10159000FFF76CFD0220FFF7BBFD012802D10220FE
:1015A000FFF764FD0420FFF7B3FD012802D10420FA
:1015B000FFF75CFD0820FFF7ABFD012802D10820F2
:1015C000FFF754FD1020FFF7A3FD012802D11020E2
:1015D000FFF74CFD2020FFF79BFD012802D12020C2
:1015E000FFF744FD8020FFF793FD012802D1802002
:1015F000FFF73CFD4FF48070FFF78AFD012802D110
:101600000002FFF733FD4FF40070FFF781FD012862
:1016100002D14002FFF72AFD4FF48060FFF778FD0A
:10162000012802D18002FFF721FD4020FFF770FD65
:10163000012802D14020FFF719FD4FF40060FFF7A9
:1016400067FD012802D1C002FFF710FD4FF4805062
:10165000FFF75EFD012802D10003FFF707FD4FF4FD
:101660000050FFF755FD012802D14003FFF7FEFCB3
:1016700010BD000010B501211648FFF7FBFD012841
:1016800003D101211348FFF79BFD02211148FFF709
:10169000F1FD012809D101020E48FFF7EBFD0446D8
:1016A00002210C48FFF78CFD00BF04210948FFF719
:1016B000E1FD012803D104210648FFF781FD08213F
:1016C0000448FFF7D7FD012803D108210148FFF79F
:1016D00077FD10BD0010004010B501211648FFF73E
:1016E000C9FD012803D101211348FFF769FD02213B
:1016F0001148FFF7BFFD012809D101020E48FFF78D
:10170000B9FD044602210C48FFF75AFD00BF042131
:101710000948FFF7AFFD012803D104210648FFF770
:101720004FFD08210448FFF7A5FD012803D108213A
:101730000148FFF745FD10BD0020004010B5012114
:101740001648FFF797FD012803D101211348FFF741
:1017500037FD02211148FFF78DFD012809D1010253
:101760000E48FFF787FD044602210C48FFF728FDCD
:1017700000BF04210948FFF77DFD012803D10421A2
:101780000648FFF71DFD08210448FFF773FD0128F7
:1017900003D108210148FFF713FD10BD00300040C0
:1017A00010B501214FF04020FFF764FD012804D15E
:1017B00001214FF04020FFF703FD02214FF04020B0
:1017C000FFF758FD01280BD101024FF04020FFF731
:1017D00051FD044602214FF04020FFF7F1FC00BF0D
:1017E00004214FF04020FFF745FD012804D10421DA
:1017F0004FF04020FFF7E4FC08214FF04020FFF7B6
:1018000039FD012804D108214FF04020FFF7D8FC12
:1018100010BD000010B501211B48FFF72BFD01286A
:1018200003D101211848FFF7CBFC02211648FFF72E
:1018300021FD012809D101021348FFF71BFD0446D1
:1018400002211148FFF7BCFC00BF04210E48FFF73E
:1018500011FD012803D104210B48FFF7B1FC082139
:101860000948FFF707FD012803D108210648FFF7C3
:10187000A7FC10210448FFF7FDFC012803D110212B
:101880000148FFF79DFC10BD0090014010B50121FB
:101890001B48FFF7EFFC012803D101211848FFF78F
:1018A0008FFC02211648FFF7E5FC012809D101024F
:1018B0001348FFF7DFFC044602211148FFF780FCC4
:1018C00000BF04210E48FFF7D5FC012803D10421F5
:1018D0000B48FFF775FC08210948FFF7CBFC0128EE
:1018E00003D108210648FFF76BFC10210448FFF7DD
:1018F000C1FC012803D110210148FFF761FC10BD94
:1019000000A0014010B501210948FFF76DFD012835
:1019100003D101210648FFF711FD02210448FFF71A
:1019200063FD012803D102210148FFF707FD10BD27
:101930000050004010B501210948FFF755FD01286E
:1019400003D101210648FFF7F9FC02210448FFF703
:101950004BFD012803D102210148FFF7EFFC10BD28
:101960000060004010B501210948FFF73DFD012846
:1019700003D101210648FFF7E1FC02210448FFF7EB
:1019800033FD012803D102210148FFF7D7FC10BD28
:101990000070004010B501211848FFF725FD01280F
:1019A00003D101211548FFF7C9FC02211348FFF7B5
:1019B0001BFD012803D102211048FFF7BFFC0121C4
:1019C0000E48FFF7C1F9012803D101210B48FFF7A9
:1019D0007BF902210948FFF7B7F9012803D1022159
:1019E0000648FFF771F904210448FFF7ADF9012813
:1019F00003D104210148FFF767F910BD00800040C2
:101A000010B501211848FFF7EFFC012803D101218F
:101A10001548FFF793FC02211348FFF7E5FC012866
:101A200003D102211048FFF789FC01210E48FFF77E
:101A30008BF9012803D101210B48FFF745F9022159
:101A40000948FFF781F9012803D102210648FFF771
:101A50003BF904210448FFF777F9012803D1042159
:101A60000148FFF731F910BD0090004010B5012189
:101A70008807FFF7B9FC012803D101218007FFF790
:101A80005DFC02214807FFF7AFFC012803D10221CA
:101A90008007FFF753FC10BD10B501210948FFF77F
:101AA000A3FC012803D101210648FFF747FC0221CE
:101AB0000448FFF799FC012803D102210148FFF7F0
:101AC0003DFC10BD0080014002E008C8121F08C1A3
:101AD000002AFAD17047002001E001C1121F002A3C
:101AE000FBD1704700BFFEE701E0FFF7E3F8FCE73A
:101AF000001B00000000002000400000D61A00007B
:04000005000000D126
:00000001FF
