:020000040000FA
:1000000000400020D50000005D0F0000510F0000EF
:1000100000000000000000000000000000000000E0
:10002000000000000000000000000000B90F000008
:100030000000000000000000730F0000BD0F000072
:10004000F911000015010000F5010000190200007F
:100050003F020000650200008B020000B1020000B8
:10006000D702000075150000A5150000D515000089
:100070000516000071160000DD1600006513000073
:10008000BD130000151400006D140000BD12000027
:10009000750F0000550F0000890F00005D12000071
:1000A000BB0F0000C51400001D150000091700005B
:1000B000FD020000E70000008D1200005501000065
:1000C0000348854600F014F8004800475B1700001D
:1000D000004000200448804704480047FEE7FEE750
:1000E000FEE7FEE7FEE7FEE7BF0F0000C1000000ED
:1000F000064C0125064E05E0E36807CC2B430C3C7B
:1001000098471034B442F7D3FFF7DEFF64170000BE
:100110007417000010B5012000F0B6FA012801D1D3
:1001200000F074FA012000F05BF9012801D100F021
:100130001DF9022000F054F9012802D1022000F03C
:1001400015F9042000F04CF9012802D1042000F038
:100150000DF910BD10B500F001F810BD10B501206B
:1001600000F004FA012801D100F0B6F9102000F0E7
:10017000FDF9012802D1102000F0AEF9FF20013076
:1001800000F0F4F9012802D1000200F0A5F90220E4
:1001900000F0ECF9012802D1022000F09DF92020A6
:1001A00000F0E4F9012802D1202000F095F90120A7
:1001B000400200F0DBF9012802D1400200F08CF986
:1001C000042000F0D3F9012802D1042000F084F9C2
:1001D000402000F0CBF9012802D1402000F07CF94A
:1001E0000120800200F0C2F9012802D1800200F053
:1001F00073F910BD10B5FF20013000F0ABFB0128F2
:1002000002D1000200F040FB012000F0DBFA0128DF
:1002100001D100F07DFA10BD10B50120400200F0C0
:1002200099FB012802D1400200F02EFB022000F0D1
:10023000C9FA012802D1022000F06AFA10BD10B5F7
:100240000120800200F086FB012802D1800200F02C
:100250001BFB042000F0B6FA012802D1042000F0B4
:1002600057FA10BD10B50120C00200F073FB012841
:1002700002D1C00200F008FB082000F0A3FA012818
:1002800002D1082000F044FA10BD10B5012000038F
:1002900000F060FB012802D1000300F0F5FA102005
:1002A00000F090FA012802D1102000F031FA10BDC0
:1002B00010B50120400300F04DFB012802D140039E
:1002C00000F0E2FA202000F07DFA012802D120207F
:1002D00000F01EFA10BD10B50120800300F03AFBBB
:1002E000012802D1800300F0CFFA402000F06AFA22
:1002F000012802D1402000F00BFA10BD10B50120FA
:10030000000600F027FB012802D1000600F0BCFA2D
:100310000120000400F056FA012802D1000400F088
:10032000F7F90120400600F015FB012802D1400634
:1003300000F0AAFA0120400400F044FA012802D19A
:10034000400400F0E5F90120800600F003FB0128DD
:1003500002D1800600F098FA0120800400F032FA01
:10036000012802D1800400F0D3F910BD10B5044675
:10037000012C09D0022C07D0042C05D0A008800045
:10038000002802D1002C00D004E0FF217C3103A022
:1003900001F0E1F9E0431149C86310BD2E2E5C2E37
:1003A0002E5C4C69627261726965735C48543630C8
:1003B00078785F5374645065726970685F447269DD
:1003C0007665725C7372635C6874367878785F61A6
:1003D00065732672616E642E630000000021014087
:1003E00070B504460025012C09D0022C07D0042C3E
:1003F00005D0A0088000002802D1002C00D004E025
:10040000FF215D3106A001F0A6F91548C06B204020
:10041000002801D0012500E00025284670BD00001D
:100420002E2E5C2E2E5C4C69627261726965735C63
:100430004854363078785F537464506572697068D8
:100440005F4472697665725C7372635C6874367857
:1004500078785F6165732672616E642E63000000B8
:100460000021014070B50446012C03D0082C01D0B6
:10047000102C00D103E0074907A001F06CF91548E2
:1004800080692040002801D0012500E00025284691
:1004900070BD0000790300002E2E5C2E2E5C4C698E
:1004A000627261726965735C4854363078785F5364
:1004B00074645065726970685F4472697665725CD5
:1004C0007372635C6874367878785F636D752E63D9
:1004D0000000000000F0004010B50446012C19D0C7
:1004E000022C17D0042C15D0102C13D0202C11D096
:1004F000402C0FD0FF20013084420BD040008442BA
:1005000008D04000844205D007482040002802D18E
:10051000002C00D004E0FF215B3104A001F01BF9A6
:10052000E0431149486010BD88F8FFFF2E2E5C2E75
:100530002E5C4C69627261726965735C4854363036
:1005400078785F5374645065726970685F4472694B
:100550007665725C7372635C6874367878785F6411
:100560006D612E63000000000000024070B504467B
:10057000012C19D0022C17D0042C15D0102C13D01C
:10058000202C11D0402C0FD0FF20013084420BD002
:100590004000844208D04000844205D00A482040F0
:1005A000002802D1002C00D004E0FF211B3107A05D
:1005B00001F0D1F8144840682040002801D00125FE
:1005C00000E00025284670BD88F8FFFF2E2E5C2E27
:1005D0002E5C4C69627261726965735C4854363096
:1005E00078785F5374645065726970685F447269AB
:1005F0007665725C7372635C6874367878785F6471
:100600006D612E63000000000000024010B504463A
:10061000012C0DD0022C0BD0042C09D0082C07D0B3
:10062000102C05D060094001002802D1002C00D018
:1006300003E0044904A001F08EF8E043114948604A
:1006400010BD0000460200002E2E5C2E2E5C4C6970
:10065000627261726965735C4854363078785F53B2
:1006600074645065726970685F4472697665725C23
:100670007372635C6874367878785F6563632E6341
:100680000000000000B0014070B504460025012CB8
:100690000DD0022C0BD0042C09D0082C07D0102C24
:1006A00005D060094001002802D1002C00D004E0F0
:1006B0008921890006A001F04EF8144840682040C6
:1006C000002801D0012500E00025284670BD00006B
:1006D0002E2E5C2E2E5C4C69627261726965735CB1
:1006E0004854363078785F53746450657269706826
:1006F0005F4472697665725C7372635C68743678A5
:1007000078785F6563632E630000000000B00140ED
:1007100070B5044601200004844221D04000844288
:100720001ED0400084421BD0072109042046884384
:10073000002801D1002C13D1012C11D0022C0FD094
:10074000042C0DD0082C0BD0102C09D0202C07D055
:10075000402C05D0E009C001002802D1002C00D0B7
:1007600004E0FF219A3107A000F0F5FF0720000404
:100770002040050C6406640EE04311494860E843DC
:10078000486170BD2E2E5C2E2E5C4C6962726172C7
:100790006965735C4854363078785F53746450658B
:1007A000726970685F4472697665725C7372635CCB
:1007B0006874367878785F657874692E6300000015
:1007C0000018014070B50446002601200004844250
:1007D00021D0400084421ED0400084421BD007211B
:1007E000090420468843002801D1002C13D1012C94
:1007F00011D0022C0FD0042C0DD0082C0BD0102CB3
:1008000009D0202C07D0402C05D0E009C0010028D9
:1008100002D1002C00D004E0FF2128310AA000F012
:100820009AFF072000042040050C1648406820402D
:10083000002800D00126134840692840002800D035
:100840000126304670BD00002E2E5C2E2E5C4C69B9
:10085000627261726965735C4854363078785F53B0
:1008600074645065726970685F4472697665725C21
:100870007372635C6874367878785F657874692E13
:10088000630000000018014070B504460120000616
:1008900084422BD04000844228D04000844225D09E
:1008A0000721090620468843002801D1002C1DD1CC
:1008B000FF200130844219D04000844216D040000D
:1008C000844213D04000844210D0400084420DD0B6
:1008D000400084420AD04000844207D07F210902B0
:1008E00020468843002802D1002C00D004E0FF21DC
:1008F000663108A000F02FFF072000062040050CFD
:100900007F2000020440E04311494860E843486109
:1009100070BD00002E2E5C2E2E5C4C6962726172DE
:100920006965735C4854363078785F5374645065F9
:10093000726970685F4472697665725C7372635C39
:100940006874367878785F657874692E6300000083
:100950000018014070B504460026012000068442BC
:100960002BD04000844228D04000844225D007216B
:10097000090620468843002801D1002C1DD1FF2004
:100980000130844219D04000844216D04000844295
:1009900013D04000844210D0400084420DD040006B
:1009A00084420AD04000844207D07F2109022046B9
:1009B0008843002802D1002C00D003E0E8210AA0DF
:1009C00000F0C9FE072000062040050C15484068CD
:1009D0002040002800D00126124840692840002805
:1009E00000D00126304670BD2E2E5C2E2E5C4C6948
:1009F000627261726965735C4854363078785F530F
:100A000074645065726970685F4472697665725C7F
:100A10007372635C6874367878785F657874692E71
:100A20006300000000180140014802494860704717
:100A300040AA0000000001407047000070B5054664
:100A40000C460C48854202D00B48854200D104E098
:100A5000FF21FC3109A000F07EFE002C02D01F2CEB
:100A600000D804E0FF21FD3104A000F074FEE04353
:100A7000A86170BD00900040008000402E2E5C2ECA
:100A80002E5C4C69627261726965735C48543630E1
:100A900078785F5374645065726970685F447269F6
:100AA0007665725C7372635C6874367878785F75AB
:100AB00061727426373831362E63000070B50446F3
:100AC0000D4600260F48844202D00F48844200D1D0
:100AD00004E0FF21D6310DA000F03DFE002D02D034
:100AE0001F2D00D804E0FF21D73108A000F033FE0D
:100AF000A0692840002801D0012600E000263046E9
:100B000070BD000000900040008000402E2E5C2E42
:100B10002E5C4C69627261726965735C4854363050
:100B200078785F5374645065726970685F44726965
:100B30007665725C7372635C6874367878785F751A
:100B400061727426373831362E63000010B50446C2
:100B5000A0098001002802D1002C00D004E0092166
:100B6000890103A000F0F7FDE0431049086110BDC2
:100B70002E2E5C2E2E5C4C69627261726965735C0C
:100B80004854363078785F53746450657269706881
:100B90005F4472697665725C7372635C6874367800
:100BA00078785F706D752E630000000000F40040DF
:100BB00070B504460025A0098001002802D1002C50
:100BC00000D003E0064907A000F0C5FD1448006905
:100BD0002040002801D0012500E00025284670BDF6
:100BE0001F0200002E2E5C2E2E5C4C696272617218
:100BF0006965735C4854363078785F537464506527
:100C0000726970685F4472697665725C7372635C66
:100C10006874367878785F706D752E630000000018
:100C200000F4004070B505460C461348854205D0D7
:100C30001248854202D01248854200D103E0EE21DD
:100C400010A000F088FD012C0BD0022C09D0042C40
:100C500007D0082C05D020090001002802D1002C63
:100C600000D003E0EF2107A000F075FD6868C4B272
:100C7000A868C4B270BD000000B000400070014020
:100C8000006001402E2E5C2E2E5C4C6962726172F7
:100C90006965735C4854363078785F537464506586
:100CA000726970685F4472697665725C7372635CC6
:100CB0006874367878785F7370692E63000000007E
:100CC00070B505460C461548854205D01448854246
:100CD00002D01448854200D103E0CB2112A000F0DD
:100CE0003AFD012C0BD0022C09D0042C07D0082C83
:100CF00005D020090001002802D1002C00D003E01B
:100D0000CC2109A000F027FD68682040002801D010
:100D1000012600E00026304670BD000000B0004013
:100D200000700140006001402E2E5C2E2E5C4C694C
:100D3000627261726965735C4854363078785F53CB
:100D400074645065726970685F4472697665725C3C
:100D50007372635C6874367878785F7370692E6339
:100D60000000000010B50446012C1AD0022C18D047
:100D7000042C16D0082C14D0102C12D0202C10D0FB
:100D8000402C0ED0802C0CD0FF200130844208D0A3
:100D90004000844205D0A00A8002002802D1002C25
:100DA00000D003E0034904A000F0D5FCE043114962
:100DB000886010BD830700002E2E5C2E2E5C4C69CF
:100DC000627261726965735C4854363078785F533B
:100DD00074645065726970685F4472697665725CAC
:100DE0007372635C6874367878785F7462732E63AC
:100DF0000000000000E0004070B50446012C1AD04D
:100E0000022C18D0042C16D0082C14D0102C12D080
:100E1000202C10D0402C0ED0802C0CD0FF20013084
:100E2000844208D04000844205D0A00A80020028F5
:100E300002D1002C00D003E0064907A000F08BFC93
:100E4000144880682040002801D0012500E00025DA
:100E5000284670BD4B0700002E2E5C2E2E5C4C6980
:100E6000627261726965735C4854363078785F539A
:100E700074645065726970685F4472697665725C0B
:100E80007372635C6874367878785F7462732E630B
:100E90000000000000E0004070B505460C46174811
:100EA00085420ED0164885420BD01648854208D0A0
:100EB0001548854205D01548854202D01448854220
:100EC00000D104E06B21C90012A000F044FC082C02
:100ED0000BD0012C09D0022C07D0042C05D02009FE
:100EE0000001002802D1002C00D004E01B214901A0
:100EF00008A000F030FCE043E86170BD0010004045
:100F000000200040003000400040004000900140C0
:100F100000A001402E2E5C2E2E5C4C696272617224
:100F20006965735C4854363078785F5374645065F3
:100F3000726970685F4472697665725C7372635C33
:100F40006874367878785F74696D65722E63000016
:100F500000BFFEE710B5FFF76FFD10BD10B5012013
:100F6000FFF780FA0820FFF77DFA1020FFF77AFAE2
:100F700010BD704703498968C8B20021014A9160D9
:100F80007047000000C0004010B501210948FFF77C
:100F900097FE012803D101210648FFF743FE0821EF
:100FA0000448FFF78DFE012803D108210148FFF70F
:100FB00039FE10BD00B00040704770477047704761
:100FC000A2FFFFE770B504460D460026194884428B
:100FD0000ED0194884420BD01848844208D01848D3
:100FE000844205D01748844202D01748844200D179
:100FF00003E0164916A000F0AEFB082D0BD0012D22
:1010000009D0022D07D0042D05D0280900010028A1
:1010100002D1002D00D004E00C4908310CA000F0F2
:101020009AFBE0692840002801D0012600E0002654
:10103000304670BD001000400020004000300040ED
:10104000004000400090014000A001401D0300004E
:101050002E2E5C2E2E5C4C69627261726965735C27
:101060004854363078785F5374645065726970689C
:101070005F4472697665725C7372635C687436781B
:1010800078785F74696D65722E63000070B50446F0
:101090000D461448844211D0134884420ED01348A0
:1010A00084420BD01248844208D01248844205D0B2
:1010B0008004844202D01048844200D104E0FF2121
:1010C00090310EA000F047FB002D02D01F2D00D85C
:1010D00004E0FF21913109A000F03DFBE84360618D
:1010E00070BD0000005000400060004000700040F3
:1010F0000080004000900040008001402E2E5C2EB9
:101100002E5C4C69627261726965735C485436305A
:1011100078785F5374645065726970685F4472696F
:101120007665725C7372635C6874367878785F7524
:1011300061727426373831362E63000070B504466C
:101140000D4600261648844211D0164884420ED01F
:10115000154884420BD01548844208D01448844274
:1011600005D08004844202D01248844200D104E0B9
:10117000FF21653110A000F0EEFA002D02D01F2DE6
:1011800000D804E0FF2166310BA000F0E4FA6069AA
:101190002840002801D0012600E00026304670BD1E
:1011A000005000400060004000700040008000409F
:1011B00000900040008001402E2E5C2E2E5C4C6979
:1011C000627261726965735C4854363078785F5337
:1011D00074645065726970685F4472697665725CA8
:1011E0007372635C6874367878785F7561727426A0
:1011F000373831362E63000010B50120FFF7D8FCD8
:10120000012801D1FFF7A2FC0220FFF7D1FC012841
:1012100002D10220FFF79AFC0420FFF7C9FC012845
:1012200002D10420FFF792FC0820FFF7C1FC01283F
:1012300002D10820FFF78AFC2020FFF7B9FC012823
:1012400002D12020FFF782FC1020FFF7B1FC01281B
:1012500002D11020FFF77AFC10BD000010B501216B
:101260000948FFF72DFD012803D101210648FFF7AA
:10127000D9FC08210448FFF723FD012803D10821E8
:101280000148FFF7CFFC10BD0070014010B50121EF
:101290000948FFF715FD012803D101210648FFF792
:1012A000C1FC08210448FFF70BFD012803D10821E8
:1012B0000148FFF7B7FC10BD0060014010B50120E8
:1012C000FFF79AFD012801D1FFF74CFD0220FFF73F
:1012D00093FD012802D10220FFF744FD0420FFF70F
:1012E0008BFD012802D10420FFF73CFD0820FFF709
:1012F00083FD012802D10820FFF734FD1020FFF7FD
:101300007BFD012802D11020FFF72CFD2020FFF7E4
:1013100073FD012802D12020FFF724FD8020FFF774
:101320006BFD012802D18020FFF71CFDFF2001305A
:10133000FFF762FD012802D10002FFF713FD012033
:101340004002FFF759FD012802D14002FFF70AFDD4
:101350004020FFF751FD012802D14020FFF702FD98
:1013600010BD000010B501211348FFF72BFE012826
:1013700003D101211048FFF78FFD02210E48FFF72E
:1013800021FE012803D102210B48FFF785FD04212E
:101390000948FFF717FE012803D104210648FFF78B
:1013A0007BFD08210448FFF70DFE012803D1082129
:1013B0000148FFF771FD10BD0010004010B501217C
:1013C0001348FFF7FFFD012803D101211048FFF763
:1013D00063FD02210E48FFF7F5FD012803D102212C
:1013E0000B48FFF759FD04210948FFF7EBFD0128E1
:1013F00003D104210648FFF74FFD08210448FFF7F9
:10140000E1FD012803D108210148FFF745FD10BD8A
:101410000020004010B501211348FFF7D3FD01283B
:1014200003D101211048FFF737FD02210E48FFF7D5
:10143000C9FD012803D102210B48FFF72DFD04212E
:101440000948FFF7BFFD012803D104210648FFF733
:1014500023FD08210448FFF7B5FD012803D1082129
:101460000148FFF719FD10BD0030004010B5012103
:101470001348FFF7A7FD012803D101211048FFF70A
:101480000BFD02210E48FFF79DFD012803D102212B
:101490000B48FFF701FD04210948FFF793FD0128E0
:1014A00003D104210648FFF7F7FC08210448FFF7A1
:1014B00089FD012803D108210148FFF7EDFC10BD8B
:1014C0000040004010B501211348FFF77BFD0128C3
:1014D00003D101211048FFF7DFFC02210E48FFF77E
:1014E00071FD012803D102210B48FFF7D5FC04212F
:1014F0000948FFF767FD012803D104210648FFF7DB
:10150000CBFC08210448FFF75DFD012803D1082129
:101510000148FFF7C1FC10BD0090014010B501214A
:101520001348FFF74FFD012803D101211048FFF7B1
:10153000B3FC02210E48FFF745FD012803D102212B
:101540000B48FFF7A9FC04210948FFF73BFD0128E0
:1015500003D104210648FFF79FFC08210448FFF748
:1015600031FD012803D108210148FFF795FC10BD8A
:1015700000A0014010B501210948FFF7DFFD012857
:1015800003D101210648FFF781FD02210448FFF73E
:10159000D5FD012803D102210148FFF777FD10BDD9
:1015A0000050004010B501210948FFF7C7FD012890
:1015B00003D101210648FFF769FD02210448FFF726
:1015C000BDFD012803D102210148FFF75FFD10BDD9
:1015D0000060004010B501210948FFF7AFFD012868
:1015E00003D101210648FFF751FD02210448FFF70E
:1015F000A5FD012803D102210148FFF747FD10BDD9
:101600000070004010B501211848FFF797FD012830
:1016100003D101211548FFF739FD02211348FFF7D7
:101620008DFD012803D102211048FFF72FFD012174
:101630000E48FFF743FA012803D101210B48FFF7B9
:10164000FDF902210948FFF739FA012803D10221E7
:101650000648FFF7F3F904210448FFF72FFA0128A1
:1016600003D104210148FFF7E9F910BD00800040D3
:1016700010B501211848FFF761FD012803D10121B0
:101680001548FFF703FD02211348FFF757FD012816
:1016900003D102211048FFF7F9FC01210E48FFF7A2
:1016A0000DFA012803D101210B48FFF7C7F90221E8
:1016B0000948FFF703FA012803D102210648FFF782
:1016C000BDF904210448FFF7F9F9012803D10421E9
:1016D0000148FFF7B3F910BD0090004010B501219B
:1016E0008807FFF72BFD012803D101218007FFF7B1
:1016F000CDFC02214807FFF721FD012803D102217B
:101700008007FFF7C3FC10BD10B501210948FFF7A2
:1017100015FD012803D101210648FFF7B7FC02217E
:101720000448FFF70BFD012803D102210148FFF710
:10173000ADFC10BD0080014002E008C8121F08C1C6
:10174000002AFAD170477047002001E001C1121F42
:10175000002AFBD1704700BFFEE701E0FFF764F904
:10176000FCE70000741700000000002000400000AB
:041770004817000016
:04000005000000C136
:00000001FF
